:020000040800F2
:10300000A809002001320008053200080732000834
:10301000093200080B3200080D32000800000000E1
:103020000000000000000000000000000F32000857
:1030300011320008000000001332000815320008A9
:10304000173200081732000817320008173200083C
:10305000173200081732000817320008173200082C
:10306000173200081732000817320008173200081C
:10307000173200081732000817320008173200080C
:1030800017320008173200081732000817320008FC
:1030900017320008173200081732000817320008EC
:1030A0001732000857550008173200081732000879
:1030B00017320008173200081732000817320008CC
:1030C00017320008173200081732000817320008BC
:1030D00017320008E3430008754F00081732000854
:1030E00017320008173200081732000800F002F803
:1030F00000F070F80AA090E8000C82448344AAF122
:103100000107DA4501D100F065F8AFF2090EBAE81F
:103110000F0013F0010F18BFFB1A43F0010318470B
:10312000BCBC0000DCBC00000A444FF0000C10F8EE
:10313000013B13F0070408BF10F8014B1D1108BF35
:1031400010F8015B641E05D010F8016B641E01F8D5
:10315000016BF9D113F0080F1EBF10F8014BAD1C25
:103160000C1B09D16D1E58BF01F801CBFAD505E043
:1031700014F8016B01F8016B6D1EF9D59142D6D39D
:10318000704700000023002400250026103A28BFC5
:1031900078C1FBD8520728BF30C148BF0B607047C9
:1031A00066290AF09C84642906F06C81002070472F
:1031B0001FB507F08FF904000020002109F0A8FADC
:1031C000401C60600020002109F08CFAE0601FBD07
:1031D00010B510BD07F086FC1146FFF7E9FF00F0BF
:1031E0002BF807F0D5FE03B4FFF7F2FF03BC00F0A5
:1031F0000BFA000030BF72B662B680F308887047E1
:1032000008480047FEE7FEE7FEE7FEE7FEE7FEE7C9
:10321000FEE7FEE7FEE7FEE703480449044A054BE4
:1032200070470000ED300008A8030020A809002026
:10323000A8050020A8050020092000F08DF94820ED
:1032400000F02CF8022000F072F9012000F06FF974
:1032500001F092F901F0C4F94FF41651482000F042
:10326000EBF94FF41651242001F012FE1D2141F616
:103270001F4001F008FB41F61F41312001F030FAF8
:1032800002F064FA06E006F053F80349086064208F
:1032900000F03BF8F7E70000100000204FF0E021BD
:1032A000096921F004014FF0E0221161C21700EB1F
:1032B0005272C2F3C702224B1A701946097801EB09
:1032C0004102C2EBC1114FF6FF7202EAC1011D4A71
:1032D0001180704701461A4A12784A434FF0E023A2
:1032E0005A6100229A6101221A6100BF4FF0E02268
:1032F000106910F0010F02D010F4803FF6D00022C8
:103300004FF0E0231A619A61704701460D4A128816
:103310004A434FF0E0235A6100229A6101221A6168
:1033200000BF4FF0E022106910F0010F02D010F43E
:10333000803FF6D000224FF0E0231A619A61704777
:10334000280000202A000020A44A0A400243A44B7F
:103350001A6070470146072323EA01021202A04BBC
:103360001B1D18684FF6FF0318409E4B184310436F
:103370009B4B1B1D186070472DE9F041074688469E
:1033800014461D462846FFF7E5FFC5F1040007FA7D
:1033900000F60F20284100EA0800064306F00F0659
:1033A000E21704EBD26252114FF0E02303EB8202EA
:1033B000D2F800212146E31704EBD3635B11A4EBA1
:1033C000431C012303FA0CF31A432046E31704EBD2
:1033D000D3635B114FF0E02C0CEB8303C3F80021A7
:1033E0008148005D40EA06107F490855BDE8F0813C
:1033F00070B504460B46CE1701EB9676C6F38700F0
:10340000CE1701EB9676B610A1EB8606B606350E02
:10341000764B9B6943F00103744EB3614FEAB633B8
:1034200053F820300F26AE40B343714E46F820309B
:10343000334653F8203004FA05F61E436C4B43F82C
:1034400020606C4B1B6801268E403343694E33600D
:1034500012F0010F08D0674B0C331B6801268E4019
:103460003343644E0C36336012F0020F08D0614BC8
:1034700008331E6801238B401E435E4B08331E60D9
:1034800070BD00B5002059490861C860142048612A
:1034900000208861C8610846006840F001000860AB
:1034A000084640685449084050494860084600684A
:1034B000524908404D4908600846006820F48020C1
:1034C00008600846406820F4FE00486000208860DC
:1034D0004FF440514FF00060FFF736FF00BD10B5CC
:1034E0003F480830006840F004003D49083108605A
:1034F0003E48C06940F080503C49C861404840683F
:1035000040F480703E4948600846006840F004007E
:1035100008600846006840F002000860FFF76AFE95
:1035200010BD3048001D2E49091D08607047014636
:1035300049062E4A926942F001022C4B9A612C4AAC
:10354000083A526822F0E062294B083B5A601A465A
:1035500052680A435A60704730B504460025FFF7A9
:1035600090FF2248006840F480302049086000BF86
:103570001E480068400CFBD04FF480601B49486037
:10358000A01EC4B20846406840EA8440486008462D
:10359000406840F4803048601A48006840F03200CB
:1035A000184908601148006840F080700F490860B1
:1035B00000BF0E480068400EFBD00C48406840F049
:1035C00002000A49486005E008484068C0F38705E2
:1035D00005F00305022DF7D130BD000080FFFF1F6D
:1035E00008ED00E00000FA0500E400E000100240F1
:1035F00008000140000401400000FFF8FFFFF6FE54
:103600000070004000200240014600BF704700BF2C
:10361000DC4A128812F0400FFAD0C2B2D94B1B1DFF
:103620001A807047D749091D088000BFD54909880D
:1036300011F0400FFAD070472DE9F05F05460E46B5
:1036400030010AF087F88146CF4905FB01F00AF006
:1036500081F88246494609F033FF074638460AF0AA
:1036600041F884B220460AF075F8834639460AF0DC
:10367000B6F982464FF083410AF0B4F881460AF069
:1036800031F880464FF6FF7000EA041404EB08009E
:1036900084B2BE48806940F00400BC498861084695
:1036A000806940F480408861B948006820F47F60F8
:1036B000B74908600846006840F40B600860B448E9
:1036C0000830006840F00400B14908310860AF4894
:1036D000C06840F48040AD49C8600846C06820F426
:1036E0008040C860A74808300480001D008842F26E
:1036F0000C010843A3490C3108800846008840F4B7
:10370000807008800846008840F02000088001236F
:10371000252219460020FFF72FFEBDE8F09F9D49A6
:103720009D4A126888549C490968491C9A4A11604C
:1037300011460968C82901DB00211160704700B5F6
:10374000A3B09448007810B9002023B000BD93A026
:1037500005F062FE92A18F4806F0C0F828B192A150
:103760008C4806F0BBF800283ED191A005F054FE2D
:103770009DA005F051FE9DA005F04EFEA6A005F00F
:103780004BFEB5A005F048FEC3A005F045FECE48AF
:1037900005F042FECDA005F03FFED9A005F03CFEAD
:1037A000C948483005F038FEE1A005F035FEEEA02E
:1037B00005F032FEC448D03005F02EFEF84805F082
:1037C0002BFEF748503005F027FEF548A03005F0F5
:1037D00023FEF348F03005F01FFE83A005F01CFE29
:1037E000F0A005F019FE89E2FDA16A4806F076F81E
:1037F00010B9FFF796FEF6E7FBA1664806F06EF8F3
:10380000002842D10E9036E00E98C0EBC000F94976
:1038100001EB800081690E98C0EBC000F54A02EB15
:10382000800040690E9AC2EBC202F24B03EB8202A7
:103830001269CDE9002002910E98C0EBC000194634
:1038400001EB8000C0680D900E98C0EBC0011846D7
:1038500000EB810080680C900E98C0EBC001184608
:1038600000EB81000B900021DDE90C2301F002FF49
:103870000E98401C0E900E980428C5DBDEA005F0C3
:10388000CBFDE0A005F0C8FDADE7E2A1414806F0A0
:1038900025F8002842D10E9036E00E98C0EBC0000B
:1038A000D44901EB800081690E98C0EBC000D14A79
:1038B00002EB800040690E9AC2EBC202CD4B03EBD3
:1038C00082021269CDE9002002910E98C0EBC0007F
:1038D000194601EB8000C0680D900E98C0EBC00146
:1038E000184600EB810080680C900E98C0EBC00079
:1038F000194601EB80000B900121DDE90C2301F05A
:10390000B9FE0E98401C0E900E980428C5DBBAA094
:1039100005F082FDC2A005F07FFD64E7C4A11D484B
:1039200005F0DCFF68BB00200E9092E10E98C0EB22
:10393000C000B04901EB800081690E98C0EBC00067
:10394000AC4A02EB800040690E9AC2EBC202A94B5E
:1039500003EB82021269CDE9002002910E98C0EBC0
:10396000C000194601EB8000C0680D900E98C0EBB6
:10397000C00001EB800080680C900E98C0EBC00086
:103980005CE172E10038014040420F00001002404B
:10399000040801405C0100202C000020200D0A00DA
:1039A00048454C500000000068656C700000000045
:1039B0000D0A203D3D3D3D3D3D3D3D3D3D3D3D3DB7
:1039C0003D3D3D3D3D3D20436F6D6D616E64204C3E
:1039D000697374203D3D3D3D3D3D3D3D3D3D3D3D9B
:1039E0003D3D3D3D3D3D3D200D0A00000D0A20209E
:1039F000302D20524553544152543A20202020204B
:103A000020202020202020202020205245535441D7
:103A10005254200D0A0000000D0A2020312D2053A1
:103A2000544F503A202020202020202020202020E9
:103A30002020202020202053544F5020236E202867
:103A40006E203D20307E33206F722022414C4C226C
:103A500029200D0A000000000D0A2020322D2050E0
:103A60004F53452053494E474C453A2020202020B3
:103A700020202020202020504F534520236E2070EE
:103A800020286E203D20307E332C20703D2D317E4D
:103A90003129200D0A0000000D0A2020332D20506E
:103AA0004F534520414C4C28707265205365747407
:103AB0006564293A202020504F53452023414C4C27
:103AC00020200D0A00000000E4DB00080D0A202081
:103AD000352D20574156452053494E474C453A20F5
:103AE0002020202020202020202020574156452023
:103AF000236E20286E203D20307E3329200D0A00C1
:103B00000D0A2020362D205741564520414C4C2887
:103B100070726520536574746564293A20202057BB
:103B20004156452023414C4C20200D0A0000000046
:103B30000D0A2020382D204C697374204D6F746F4E
:103B4000722070617261733A202020202020204C66
:103B500049535420236E2020286E203D20307E3390
:103B600029200D0A000000000D0A2020392D2043D5
:103B70006F6E666967204D6F746F723A2020202047
:103B80002020202020202043464720236E202D6324
:103B90002076616C20286E203D20307E3329000085
:103BA00004DD00080D0A203D3D3D3D3D3D3D3D3DD0
:103BB0003D3D3D3D3D3D3D3D3D3D3D3D3D3D3D3D35
:103BC0003D3D3D3D3D3D3D3D3D3D3D3D3D3D3D3D25
:103BD0003D3D3D3D3D3D3D3D3D3D3D200D0A00000F
:103BE0005245535441525400504F53452023414CA9
:103BF0004C000000240200200D0A20636D64203A6E
:103C0000000000000D0A2023414C4C20504F53452A
:103C1000200A0000574156452023414C4C0000002B
:103C20000D0A2023414C4C2057415645200A0000E4
:103C300053544F502023414C4C00000001EB8000B6
:103C40000B900221DDE90C2301F014FD0E98401CBD
:103C50000E900E980428FFF669AEAFF2640005F0EE
:103C6000DBFBF3A005F0D8FBB9E322AAF4A1F748E7
:103C700005F0CCFC012842D12298002802DB2298D2
:103C8000042801DB002060E52298C0EBC000F04969
:103C900001EB800081692298C0EBC000EC4A02EB86
:103CA00080004069229AC2EBC202E94B03EB820218
:103CB0001269CDE9002002912298C0EBC00019469C
:103CC00001EB8000C0680D902298C0EBC00001EBB2
:103CD000800080680C902298C0EBC00001EB80004F
:103CE0000B900221DDE90C2301F0C4FCAFF2F800D7
:103CF00005F092FBD7A0229905F08EFB6FE321AB74
:103D000022AAD8A1D14805F081FC022842D12298EC
:103D1000002802DB2298042801DB002015E5229808
:103D2000C0EBC000CA4901EB800081692298C0EB5A
:103D3000C000C74A02EB80004069229AC2EBC2026F
:103D4000C34B03EB82021269CDE900200291229855
:103D5000C0EBC000194601EB8000C0680D902298AE
:103D6000C0EBC00001EB80000C9000210D9B219A5C
:103D700001F080FCAFF2801005F04EFB219809F0B5
:103D800005FB02460B46CDE90C01B9A0229905F0CE
:103D900043FB24E322AABAA1AC4805F037FC012872
:103DA0007BD12298002802DB2298042801DB002026
:103DB000CBE42298C0EBC000A54901EB80008069EC
:103DC0002299C1EBC101A24A02EB81014969229A01
:103DD000C2EBC2029E4B03EB82021269CDE90021C5
:103DE00002902298C0EBC000194601EB8000C06829
:103DF0000D902298C0EBC00001EB800080680C9011
:103E00002298C0EBC001184600EB81000B90012105
:103E1000DDE90C2301F02EFCAFF2242005F0FCFAC2
:103E20002298C0EBC0008A4901EB800080690590B0
:103E300009F0ACFACDE90C012298C0EBC00084492E
:103E400001EB80004069059009F0A0FACDE90A0174
:103E50002298C0EBC0007E4901EB8000006905900C
:103E600009F094FACDE908012298C0EBC001784826
:103E700000EB8100C068059009F088FACDE90601E1
:103E8000DDE90C01CDE90401DDE90A01CDE902011A
:103E9000DDE90801CDE9000100E006E07BA0DDE9F5
:103EA0000623229905F0B8FA99E20FA810AB22AACE
:103EB0007EA10090654805F0A9FB03287ED19DF8FE
:103EC000400046287BD004DC412832D044282FD142
:103ED000F4E04F2855D05028F9D12298C0EBC0000B
:103EE0005B4901EB800081692298C0EBC000584A11
:103EF00002EB80004069229AC2EBC202544B03EBF2
:103F000082021269CDE9002002912298C0EBC00024
:103F1000194601EB8000C0680D902298C0EBC000EC
:103F200001EB80000C9002210D9B0F9A01F0A2FB87
:103F3000EDE02298C0EBC000454901EB80008169AB
:103F40002298C0EBC000424A02EB80004069229AEE
:103F5000C2EBC2023E4B03EB82021269CDE90020A4
:103F60000291184680680D902298C0EBC000194657
:103F700001EB80000C9002210F9B0D9A01F07AFB5F
:103F8000C5E02298C0EBC000314901EB8000806998
:103F90002299C1EBC1012E4A02EB810149690F9AB6
:103FA000CDE9002102902298C0EBC000284901EB26
:103FB0008000C0680D900846806801E0B0E00CE029
:103FC0000C902298C0EBC00001EB80000B90022106
:103FD000DDE90C2301F04EFB99E02298C0EBC00014
:103FE0001B4901EB800080692299C1EBC101184B8C
:103FF00003EB81010F9A0969CDE900120290229822
:10400000C0EBC000194601EB8000C0680D90084667
:1040100080680C902298C0EBC001184600EB81002C
:104020000B900221DDE90C2301F024FB6FE000007E
:104030000D0A2023414C4C2053544F50200A0000BD
:1040400053544F5020232564200000005C010020C1
:10405000240200200D0A2053746F70202325642051
:104060000D0A0000504F534520232564202566008B
:104070000D0A20502023256420253366200A0000E5
:104080005741564520232564000000000D0A2057A3
:10409000202325642041202566204F2025662046C8
:1040A0002025662044202566200A0000434647203C
:1040B000232564202D256320256600002298C0EB6F
:1040C000C000DA4901EB80000F9A40692299C1EBE8
:1040D000C101D64B03EB81010969CDE901020091D1
:1040E0002298C0EBC000194601EB8000C0680D901B
:1040F000084680680C902298C0EBC00001EB80005D
:104100000B900221DDE90C2301F0B4FA00BF00BFDF
:10411000AFF21C5005F080F9C5A005F07DF95EE115
:1041200022AAC6A1C84805F071FA01287FD12298B9
:10413000002802DB2298042801DB0020A3E5C3A0AD
:10414000229905F069F92298C0EBC000B74911F82F
:10415000200020B1012806D002280CD107E0C0A021
:1041600005F05AF90BE0C3A005F056F907E0C6A028
:1041700005F052F903E0C9A005F04EF900BF00BFF9
:104180002298C0EBC000A94901EB800080680B9029
:1041900009F0FCF802460B46CDE90C01C5A005F07C
:1041A0003BF92298C0EBC000A04901EB8000C06839
:1041B0000B9009F0EBF802460B46CDE90C01C2A0CA
:1041C00005F02AF92298C0EBC000984901EB800065
:1041D00000690B9009F0DAF802460B46CDE90C01B4
:1041E000BEA005F019F92298C0EBC0008F4901EB81
:1041F000800040690B9009F0C9F802460B46CDE9F2
:104200000C01BBA005F008F92298C0EBC00087495B
:1042100001EB800080690B9009F0B8F802460B466C
:10422000CDE90C01B7A005F0F7F8D8E0FFE71CA82E
:1042300011A912AA13ABCDE90632CDE9081014A8D2
:1042400015A916AA17ABCDE90232CDE9041018A8BA
:1042500019A91AAB1BAACDE90010AF497A4805F09D
:10426000D5F90C2859D1714880691C9A1A99CDE961
:10427000001202906D4880680D90024601216B4843
:104280001B9B01F0F7F9694880690C90179909F0B8
:10429000A9F80D901C9A1899CDE900120290634874
:1042A000406A0C900246012160481C30199B01F0C5
:1042B000E1F95E4880690C90149909F093F80D902B
:1042C0001C9A1599CDE9001202905848006C0C9088
:1042D0000246012155483830169B01F0CBF953486E
:1042E00080690C90119909F07DF80D901C9A129933
:1042F000CDE9001202904D48C06D0C90024601219C
:104300004A485430139B01F0B5F9AFF2147005F030
:1043100083F882A005F080F861E01DA81EA91FABFC
:1043200020AACDE9001081A1474805F06FF90428C3
:1043300050D13E4880693D4949693C4A1269CDE9FE
:10434000002102903948C06803460D90002137488B
:104350001D9A01F08FF93548406B3449096B334A97
:10436000D26ACDE9002102903048806A03460D9060
:1043700000212E481C301D9A01F07CF92B48016D5C
:10438000C06C2A4A926CCDE9002002912748406C0B
:1043900003460D900021254838301D9A01F06AF936
:1043A0002248C16E806E214A526ECDE900200291F2
:1043B0001E48006E03460D9000211C4854301D9A83
:1043C00001F058F9AFF2D07005F026F85DA005F0C5
:1043D00023F804E05FA005F01FF8002053E401205B
:1043E00051E410B55F48008810F0200F1DD05D48E3
:1043F000001D00885C490870084604780A2C02D029
:104400000D2C00D05CB90020FFF789F9FFF797F970
:1044100000205649086056A004F0FEFF05E0514810
:10442000001D04802046FFF77AF910BD2402002009
:104430000D0A20434647200A000000004C4953540F
:1044400020232564000000005C0100204944202056
:1044500020202020202020202564200D0A0000009C
:104460004D4F44452020202020202020504F5345F0
:10447000200D0A004D4F44452020202020202020E0
:1044800057415645200D0A004D4F4445202020201D
:104490002020202053544F50200D0A004D4F4445FA
:1044A00020202020202020206572726F72200D0AAB
:1044B00000000000504F53452020202020202020C5
:1044C0002566200D0A000000416D706C69747564EA
:1044D000652020202566200D0A0000004F666673C7
:1044E00065742020202020202566200D0A00000071
:1044F00066657175616E6365202020202566200D3C
:104500000A000000706861736520616E676C652049
:104510002566200D0A00000048DE00080D0A20571D
:104520004156452023414C4C200A0000504F534532
:1045300020414C4C202566202566202566202566D6
:10454000000000000D0A20504F53452023414C4CE1
:10455000200A00000D0A2057726F6E6720636D6499
:104560000A00000000380140300000202C0000202C
:10457000200D0A203E3E00001448806940F01000E3
:10458000124988611248406820F00F0010494860C5
:104590000846406840F0030048600846C06840F4A0
:1045A0000050C86070470B490968491C094A1160EE
:1045B00081420AD1084909686FEA0101074AC2F835
:1045C000B4114FF00001034A11607047001002401F
:1045D0000010014038000020B401224200002242B5
:1045E0003748806940F004003549886135480068E3
:1045F00020F07040334908600846006840F00040F1
:10460000086030480830006840F400402D49083107
:104610000860704701462C48006828B92B4800788C
:1046200010B90120294A107029480078B0B92748EC
:104630000078012807D127480078401C254A1070CF
:104640000120234A107023480078022806D1002058
:10465000204A1070204A1080022070471A480068D3
:10466000012804D10020194A1070194A1070194805
:10467000007801280ED118480088401C80B2164AE4
:104680001080884206DD0020124A1070124A108005
:104690000120E2E70020E0E71048007838B10A483E
:1046A000006820B900200D490870012070470648B5
:1046B0000068012801D1094908700020F6E70000D0
:1046C00000100240040801403C0121423C0000204F
:1046D0003D0000203E00002040000020420000205D
:1046E00070B505460C463548806940F40060334992
:1046F000886133480580001F0480314820380088D5
:1047000040F001002E49203908800846008840F01A
:10471000400008802A482C38008840F001002849D1
:104720002C3908800223192203210120FEF724FEE0
:1047300070BD70B504460D462048C06940F00100C8
:104740001E49C8610846806940F0040088611D4820
:10475000006820F47F401B4908600846006840F468
:1047600002400860C80484850585808B40F4807011
:10477000C90488830846808B88830846808B888399
:104780000846008C08840846008C40F48050088459
:104790000846808940F0100088810846808940F0F2
:1047A000010088810846008840F00100088001234C
:1047B0001C2203211846FEF7DFFD70BD00100240E9
:1047C0002C2C0140000801406A48806940F0080034
:1047D000684988616848006880B26749086008468F
:1047E00000686649084364490860704700B503469D
:1047F0000A46FFF7E9FF5F48C06940F004005D49E1
:10480000C8610846806940F0080088615A48001D68
:10481000006820F0FF005849091D0860084600683C
:1048200040F0BB00086056480380001F02805448D7
:104830001038008840F4C0405149103908800846BB
:10484000008840F0600008800846008840F400605E
:1048500008800846008840F008000880081D00888D
:1048600040F48050091D08800846008840F480709C
:104870000880C81342492C3908800846008840F057
:104880000100088000BD00B503460A46FFF79CFF03
:104890003848C06940F004003649C861084680695C
:1048A00040F0080088613448006820F07F403249B9
:1048B00008600846006840F03B400860081D00683A
:1048C00020F0FF00091D08600846006840F0BB00AA
:1048D00008602B480380001F028029481438008894
:1048E00040F4E0402649143908800846008840F02A
:1048F00070000880081D008840F4E040091D088011
:104900000846008840F070000880081F008840F4C6
:104910000060091F08800846008840F008000880F1
:10492000081D008840F40060091D088008460088C2
:1049300040F008000880081D008840F01000091DA4
:1049400008800846008840F001000880084600887A
:1049500040F4805008800846008840F48070088049
:10496000C81307492C3908800846008840F0010028
:10497000088000BD00100240000C0140000022220F
:104980002C080040FE48806940F00800FC4988611E
:10499000FC48006820F47F40FA4908600846006837
:1049A00040F44C500860704710B5F648006820F499
:1049B0007040F44908600846006840F440500860C0
:1049C0000120F1490860F148D0F82C0108B9002015
:1049D00010BD0120EE490860FEF77CFC0020EB4989
:1049E000C1F8AC01EB48006808B10020F0E70120F5
:1049F000FEF770FC0020E64908604FF00100E7E791
:104A000010B5E048006820F47040DE4908600846B0
:104A1000006840F4405008600020DD490860DB4930
:104A2000C1F8AC014FF00100FEF754FC0120D84959
:104A30000860D649C1F8AC01FEF74CFC10BD10B5BA
:104A40000024D048006820F47040CE490860084631
:104A5000006840F4004008600120CB490860FEF780
:104A600039FC0120C949C1F8A801FEF733FC0AE06E
:104A7000601CC4B2322C03DDFFF7C2FF002010BD62
:104A80000120FEF727FCC34800680028F0D1C04988
:104A900008604FF00100F2E710B50020BC49086043
:104AA000B848006820F47040B649086008460068BD
:104AB00040F4405008604FF00000B449C1F8AC0128
:104AC0004FF00100FEF706FC0120B1490860FEF737
:104AD00001FC0020AD49C1F8A80110BD10B50020AF
:104AE000AB490860A748006820F47040A5490860F9
:104AF0000846006840F4405008604FF00100A349A8
:104B0000C1F8AC01FEF7E6FB0120A1490860FEF701
:104B1000E1FB00209D49C1F8A80110BD70B5044615
:104B20009848006820F4704096490860084600687C
:104B300040F440500860002095490860054619E09F
:104B4000E009914908604FEA44604FEA10644FF071
:104B50000100FEF7BFFB01208C49C1F8A801FEF758
:104B6000B9FB00208A4908604FF00100FEF7B2FB54
:104B7000681CC5B2082DE3DB70BD2DE9F041054688
:104B80000E4617469846FFF70FFF10B90120BDE803
:104B9000F0816906080EFFF7C1FFFFF750FF18B953
:104BA000FFF72EFF0120F2E73046FFF7B7FFFFF7D0
:104BB00046FF00240BE018F80400FFF7AFFFFFF7F3
:104BC0003EFF18B9FFF71CFF0020E0E7641CBC4261
:104BD000F1DBFFF715FF0020D9E770B5054600248B
:104BE0006848006820F4704066490860084600681C
:104BF00040F400400860002616E000206449086088
:104C00004FF00200FEF766FB01206049C1F8A801E1
:104C10006006040E5F48006808B1601CC4B2022040
:104C2000FEF758FB701CC6B2082EE6DB15B1FFF785
:104C300033FF01E0FFF752FF204670BD2DE9F04140
:104C400006460F4614461D46FFF7AEFE10B901207A
:104C5000BDE8F0817106080EFFF760FFFFF7EFFE79
:104C600018B9FFF7CDFE0120F2E73846FFF756FFEF
:104C7000FFF7E5FEFFF798FE012101EB4601C8B200
:104C8000FFF74CFFFFF7DBFE0DE0012C04D1002005
:104C9000FFF7A3FF287003E00120FFF79EFF2870B5
:104CA0006D1C601EC4B2002CEFD1FFF7A9FE0020DE
:104CB000CEE770B505460E460024FFF775FE284680
:104CC000FFF72CFF641CFFF7BAFE3046FFF726FF04
:104CD000641CFFF7B4FEFFF767FE691CC8B2FFF75C
:104CE0001DFF641CFFF7ABFE0020FFF776FF0446B4
:104CF000FFF786FE204670BD2DE9F0410746884645
:104D000015461E460024FFF74FFE3846FFF706FF04
:104D1000FFF795FE4046FFF701FFFFF790FEFFF714
:104D200043FE791CC8B2FFF7F9FEFFF788FE00BF0B
:104D30000DE0681EA04204D00120FFF74EFF305561
:104D400003E00020FFF749FF3055601CC4B2AC42BD
:104D5000EFDBFFF755FE2046BDE8F0812DE9F0417D
:104D600080460D4616461F460024FFF71DFE4046AE
:104D7000FFF7D4FEFFF763FE2846FFF7CFFE0BE0F8
:104D800000100240040C0140AC812142008021420D
:104D9000A88121422C812142FFF751FE00BF06E08D
:104DA000385DFFF7BBFEFFF74AFE601CC4B2B44299
:104DB000F6DBFFF725FE0120BDE8F08170B5054662
:104DC0000E46144631462846FFF773FF2070012037
:104DD00070BD37B504460D4602AB01222946204678
:104DE000FFF7BCFF3EBD2DE9F84307468846144651
:104DF0001D46089E6A4641463846FFF7DFFF28B346
:104E0000601CFF2101FA00F0C4F108012944491E89
:104E1000FF220A41104300F0FF09C5F1080006FA1D
:104E200000F0C6B2C4F1070006419DF8000000EA98
:104E3000090000909DF80000304300909DF800208C
:104E400041463846FFF7C5FFBDE8F8830020FBE781
:104E5000F8B506460F4614461D466A4639463046A2
:104E6000FFF7ACFF2DB10120A0409DF800100843D2
:104E700005E00120A0409DF8001021EA0000C0B22A
:104E800000909DF8002039463046FFF7A2FFF8BD9C
:104E90002DE9F05F05460E46300108F05BFC8146C7
:104EA000C94905FB01F008F055FC8246494608F067
:104EB00007FB0746384608F015FC84B2204608F088
:104EC00049FC8346394608F08AFD82464FF083410B
:104ED00008F088FC814608F005FC80464FF6FF701C
:104EE00000EA041404EB080084B2B848806940F07A
:104EF0000400B64988610846C06940F40030C861C2
:104F0000B348006820F47F40B14908600846006853
:104F100040F40B400860AE480C30006840F00400DC
:104F2000AB490C310860A948006940F40030A7493A
:104F300008610846006920F400300861A548048033
:104F4000001D008842F20C010843A249091D088097
:104F50000846008840F4807008800846008840F0C9
:104F6000200008800223262203210846FEF704FAC7
:104F7000BDE8F09F97480838008810F0200F7AD0DD
:104F80009448001F008894490860084600789349B7
:104F900008700846007892490978884212D18F48F3
:104FA00040788F49497888420CD18C4880788C4968
:104FB0008978884206D100208A490870874908709C
:104FC000487088708548007887490978884213D1ED
:104FD000824840788449497888420DD17F4880785A
:104FE00081498978884207D101207E4908700020D4
:104FF0007A4908704870887077480068592802D14B
:1050000002207A49087074480068582802D10120AB
:1050100076490870704800680A2865DD6E480068A7
:105020005A2809D1002072490870724908707249E3
:1050300008707249087057E06748006841280AD133
:1050400001206B49087000206A4908706A4908709D
:105050006A49087048E06048006845280CD1002083
:105060006349087001206349087000206249087094
:105070006249087038E0A5E057480068422807D028
:1050800055480068432803D05348006844280AD193
:105090000020574908705749087057490870012087
:1050A0005649087020E04C480068462807D04A4816
:1050B0000068472803D04848006848280BD10020E2
:1050C0004B4908704B49087001204B49087000207B
:1050D0004A49087008E000204549087045490870B1
:1050E00045490870454908703B4800680A2862DA5B
:1050F0003948006848B900203D4908703D490870AA
:105100003D4908703D49087055E033480068012862
:1051100009D13749087000203649087036490870AF
:105120003649087047E02C48006805280BD100205C
:105130002F49087001202F49087000202E4908705F
:105140002E49087037E024480068022807D022481A
:105150000068032803D02048006804280AD10020F2
:105160002349087023490870234908700120234906
:10517000087020E018480068062807D01648006824
:10518000072803D01448006808280BD100201849CC
:105190000870184908700120174908700020174945
:1051A000087008E00020124908701249087012497E
:1051B0000870124908700948407808498870084604
:1051C000007848707047000040420F000010024015
:1051D00000080140084400404C000020500000201E
:1051E00047000020020000204400002001000020B1
:1051F0000400002005000020060000200700002019
:105200000146002901DA484200E00846704730B5FF
:1052100005460C462846FFF7F3FFFA49088020466A
:10522000FFF7EEFFF749091D08801046FFF7E8FF7A
:10523000F449083908801846FFF7E2FFF149091FD1
:10524000088030BD2DE9F04F8DB006460F469046E0
:1052500099461A9807F023FD82460022EA4B07F090
:105260005BFB42464B46CDE90201E848E84907F0BE
:105270007DFDCDE90001DDE9022307F077FDCDE9F1
:105280000401DDE9162307F08BFACDE9060107F0EA
:10529000ABF932463B46CDE9080107F067FDCDE9A1
:1052A0000A01DDE9182307F07BFA04460D460022C7
:1052B000D84B2046294607F057FE02D20024D54D90
:1052C00008E00022D44B2046294607F013FD01D206
:1052D0000024D14D204629460DB0BDE8F08F2DE9C0
:1052E000F04F8BB004468946CC48006807F0D7FCE5
:1052F00007460022CA4B07F00FFB054607F01EFACF
:105300000A90207820B1012813D0022848D147E024
:10531000C449A06808F066FA0746C34908F062F875
:1053200006460A9908F05EFA054608F0BFF9606083
:1053300036E0206908F02AF805460E46A06908F014
:1053400025F8CDE90601606908F020F8074688468F
:10535000E06808F01BF882468B46CDE903690295A8
:10536000DDE906013A464346CDE90001504659467B
:10537000FFF768FFCDE9080107F0E0F9A060A9494F
:10538000A06808F02FFA0746A74908F02BF8064650
:105390000A9908F027FA054608F088F9606000BF0E
:1053A00000BF60680BB0BDE8F08F10B53220FFF78A
:1053B00031F90446012C04D19C480078C0439B4934
:1053C0000870022C04D19A480078C04398490870AC
:1053D00010BD2DE9F04F89B00646012E7ED0462142
:1053E000D020FFF766FC80464521D020FFF761FC06
:1053F00008EB0027384608F095F904464821D020EC
:10540000FFF757FC80464721D020FFF752FC08EBFE
:105410000027384608F086F905463C21D020FFF7E2
:1054200048FC80463B21D020FFF743FC08EB0027D7
:10543000384608F077F982464021D020FFF739FC42
:1054400080463F21D020FFF734FC08EB0027384688
:1054500008F068F983464FF08E41204608F08EFA36
:1054600005D24FF08F41204608F0C4FA04464FF0B1
:105470008E41284608F082FA05D24FF08F41284627
:1054800008F0B8FA05464FF08E41504608F076FA1B
:1054900005D24FF08F41504608F0ACFA82464FF0EB
:1054A0008E41584608F06AFA05D24FF08F415846AF
:1054B00008F0A0FA834684F000405E490860584630
:1054C00007F064FFCDE90001504607F05FFF074693
:1054D000DDE9002306F05CFF002200E038E0564BD7
:1054E000CDE9020107F042FC484A544BCDE90401E2
:1054F00007F012FACDE9060107F020F981462046AF
:1055000007F044FF4FF066324D4BCDE9060107F03E
:1055100003FA074607F012F904464A4800780228C1
:1055200006D184F000473946484603F07DF909E08A
:1055300044480078032805D184F00047394648469E
:1055400003F089FA40480068404908604048056017
:1055500009B0BDE8F08F10B53E48008810F0010F8B
:105560004ED03C48008820F001003A4908803A4873
:10557000007808B9012000E000203749087008468B
:105580000078012805D12F480078FFF722FF00207E
:1055900010BD2C480078FFF71CFF6420FFF703F8CC
:1055A000FFF703FF2D4800680A302C4908600846C1
:1055B00001682B48FFF793FE2A49086027480168D5
:1055C00027481C30FFF78BFE2749086023480168F5
:1055D00023483830FFF783FE244908601F480168DC
:1055E0001F485430FFF77BFE2149086008460368D6
:1055F0001E4802681C4801681A480068FFF707FE49
:105600000020C5E73C08004000408F40F1D4C8535B
:10561000FB2119400000F03F0000F0BFE0DB000874
:105620000070A74000007A440080BB4402000020C4
:10563000030000201C00002000806640FB21094080
:105640006666304000000020F800002018000020AE
:1056500020000020102C0140A00000205800002055
:105660002402002084000020880000208C000020FC
:10567000900000202DE9F05F04460D46164699463D
:10568000DDE90AAB4DB1012D07D0022D05D0F6A002
:1056900003F0C2FE0020BDE8F09F4FF07E5130467F
:1056A00008F06CF904D3F449304608F067F80AD2E0
:1056B000304607F06BFE07463A460B46EFA003F074
:1056C000ABFE0020E7E74FF07E51484608F056F960
:1056D00004D30021484608F051F804D2ECA003F0AE
:1056E0009BFE0020D7E74FF07E51504608F046F968
:1056F00004D3E149504608F041F804D2E8A003F091
:105700008BFE0020C7E7584607F040FE0746002200
:10571000E84B07F029FC08D3584607F037FE074648
:105720000022E54B07F0E6FA04D2E4A003F074FE91
:105730000020B0E72570A660C4F80C90C4F810A053
:10574000C4F814B00C98A0610120A4E72DE9F0473B
:10575000DE48006807F0A3FA07460022DC4B07F09A
:10576000DBF8054606F0EAFF8146002430E002201F
:10577000C4EBC401D74A02F821000020C4EBC401E5
:1057800002EB810188604FF07C50C4EBC40102EB56
:105790008101C860C4EBC40102EB810148610020B3
:1057A000C4EBC40102EB81010861C4EBC40102EB4C
:1057B000810188614946C84808F014F8054607F099
:1057C00075FFC4EBC401C34A02EB81014860641C4D
:1057D000042CCCDB0120BDE8F0872DE9F84F05460D
:1057E0000C46BE4E4FF07C577103284608F002F974
:1057F00000903946204607F0F5FF82463046009972
:1058000007F0F0FF8346514607F0ECFD814607F0B4
:105810004DFF80464046BDE8F88F70B505460E4600
:10582000AF49284607F0AAFF08D3AE49284608F03A
:10583000A5F803D3AC480078012801D1012400E089
:105840000024204670BD2DE9FC5FA8480190A848BF
:105850000090A848007801280AD1A74800785A216A
:1058600091FBF0F4204607F05DFFA449086012E0C8
:10587000A348007801280BD19F4800786FF05901A8
:1058800091FBF0F4204607F04DFF9C49086002E0D0
:1058900000209A4908609B4909689B4A1268114494
:1058A000084607F03FFF994908609948006807F0EB
:1058B0006DFD06464FF06632964B07F057FA0446E8
:1058C00006F03CFF924908609048006807F05EFDD2
:1058D00080464FF03332904B07F048FA04460D46AD
:1058E0008B48006807F052FD064622462B4606F01C
:1058F00057FF824606F022FF854908600846016886
:105900008648006807F06EFD844908607B4801689E
:105910008248006808F06EF88049086080497F4836
:10592000006808F02BF802D27D487C4908607D4968
:105930007A48006807F022FF02D27A487749086067
:1059400076480099006807F04DFF044670480199B9
:10595000006807F047FF0546214607F043FD7249FE
:1059600008607248016872480068FFF756FF012816
:1059700002D10020694908606B48006807F096FE74
:10598000BDE8FC9F2DE9F84F05460E4691465A4862
:105990000078582191FBF0F7384607F0C3FE044623
:1059A000DFF890A14FF0000B63480078012803D086
:1059B00062480078012834D14FF07E516048006879
:1059C00007F010FD5E49074608604FF07E5107F072
:1059D00039FE07D1A819FFF713FC074607F0A2FE0E
:1059E0005849086057480168574807F069FD57490A
:1059F00008600846006807F0C9FC07464FF03332DC
:105A0000534B07F077F902D2524850490860524987
:105A10004E48006807F0B2FF0BD24F484B49086070
:105A200007E04E484949086000204549086045495B
:105A3000086041480078012808D144480168484876
:105A4000006807F0D7FF464908608EE03B480078C1
:105A5000012808D13D4801684148006807F0C2FCB0
:105A60003F49086081E07DE00D0A2057726F6E6744
:105A7000206D6F6465200A00000080BF0D0A20576A
:105A8000726F6E6720504F53202566200A00000079
:105A90000D0A2057726F6E672041200A0000000037
:105AA0000D0A2057726F6E67204F6666736574200B
:105AB0000A0000000000F83F0000D03F0D0A205708
:105AC000726F6E67204671200A000000E0DB00085C
:105AD0000070A740240200200080BB440000FA436D
:105AE000000020C200002042020000200000A0426E
:105AF000CDCCCC3E04000020010000206800002036
:105B000005000020080000200C000020600000209C
:105B1000640000206666E63F3333D33F6C0000200C
:105B200000401C4600401CC65C0000201400002001
:105B30001800002000002842060000200700002076
:105B40008000002078000020000048427C000020F7
:105B50003333E33F9A99193F000040406666663F41
:105B60007000002000202D49086021462B48006865
:105B700007F004FF01D22948046084F00047274859
:105B80000168384607F0FAFE03D284F0004023494A
:105B9000086023480078012803D0224800780128B3
:105BA00002D14FF07E5B01E04FF0000B59464846B2
:105BB00007F018FE00901948006880F00048514630
:105BC000404607F00FFE0746009907F013FF1649FD
:105BD00008600846006807F069FDBDE8F88F41F6E7
:105BE000BC30124909684242914202DA41420F4AEE
:105BF00011600E490968814201DD0C4908600C49B9
:105C000009684242914202DA4142094A1160084958
:105C10000968814201DD0649086070477000002074
:105C200004000020050000207400002084000020F3
:105C30008800002038B50446FB4890F82400C0B125
:105C400014B10220009001E000200090F64A126892
:105C5000D17BF54A526810786B460122FEF78DFF22
:105C600010B14FF0FF3038BD9DF80010EE48417480
:105C700023E0ED48807A10B94FF0FF30F3E724B10C
:105C8000E948407C08B10020EDE714B10120009004
:105C900001E000200090E44A1268D17BE24A526899
:105CA00010786B460122FEF768FF10B14FF0FF300D
:105CB000D9E79DF80010DC4841740020D3E738B5DF
:105CC000002419E0D8480068C07AA04204D0D64821
:105CD0000068407DA04200D10CE0D34949680878B3
:105CE0006B4601222146FEF7A9FF10B14FF0FF30AD
:105CF00038BD00BF601CC4B2CB4840680079A042E8
:105D0000E0DC0020F4E770B504460D46C6480068A4
:105D1000C07AA04204D0C4480068407DA04202D1AD
:105D20004FF0FF3070BDC04840680079A04202DCEF
:105D30004FF0FF30F6E7BC49496808782B4601224E
:105D40002146FEF77BFFEDE738B50446B64890F8EC
:105D50002300A04201D1002038BD14B130200090B2
:105D600001E000200090B048807C20B19DF8000048
:105D700040F002000090AC4890F8220020B19DF85D
:105D8000000040F080000090A74A1268117DA64AEA
:105D9000526810786B460122FEF7EFFE10B14FF00B
:105DA000FF30D9E7A04880F823400020D4E738B579
:105DB000044614F0700F02D00120009005E014B1E9
:105DC0000020009001E040200090974A1268917CEA
:105DD000954A526810786B460122FEF7CEFE20B13C
:105DE000002191488172481E38BD9DF8000020F0C6
:105DF00040018D4801730020009014F0400F04D141
:105E00009DF8000040F00400009014F0200F04D131
:105E10009DF8000040F00200009014F0100F04D133
:105E20009DF8000040F00100009014F0080F04D12C
:105E30009DF8000040F0380000907B4A1268D17C49
:105E4000794A526810786B460122FEF796FE20B11F
:105E5000002175488172481EC6E724B1082C02D083
:105E60000020FFF771FF7048847200210175322015
:105E7000FDF74BFA0020B7E738B504466A48807C46
:105E8000A04201D1002038BD002C46D0664A1268DD
:105E90001179654A526810786B460122FEF7CEFEF2
:105EA00010B14FF0FF30EEE79DF8000020F0200029
:105EB00000905D4A126811795B4A526810786B460F
:105EC0000122FEF75AFE10B14FF0FF30DBE703204E
:105ED000FDF71BFA02200090534890F8220020B1F1
:105EE0009DF8000040F0800000904F4890F823009B
:105EF00020B19DF8000040F0300000904A4A12683E
:105F0000117D494A526810786B460122FEF735FE32
:105F1000002851D04FF0FF30B5E7434A126811799D
:105F2000414A526810786B460122FEF787FE10B195
:105F30004FF0FF30A7E73C48807A10F0010F05D002
:105F40009DF8000040F02000009004E09DF8000063
:105F500020F020000090344A12681179324A5268C9
:105F600010786B460122FEF708FE10B14FF0FF30AB
:105F700089E70320FDF7C9F92B4890F8220010B1FA
:105F80008020009001E000200090274890F8230036
:105F900020B19DF8000040F030000090224A1268C5
:105FA000117D214A526810786B460122FEF7E5FD0B
:105FB00010B14FF0FF3066E71B488474002062E7A1
:105FC00008B51948807A10B94FF0FF3008BD00209D
:105FD0000090154A1268D17B134A526810786B46BC
:105FE0000122FEF7CAFD10B14FF0FF30EEE70E4A76
:105FF000126851790C4A526810786B460122FEF7FC
:10600000BCFD10B14FF0FF30E0E7074A126811798C
:10601000054A526810786B460122FEF7AEFD28B1A2
:106020004FF0FF30D2E70000A4000020F74890F8BE
:106030002400002850D00C200090F44A12681179F6
:10604000F24A526810786B460122FEF796FD10B1B5
:106050004FF0FF30BAE7C0200090EC48807A10F093
:10606000010F04D09DF8000040F020000090E74AA6
:1060700012681179E54A526810786B460122FEF7E2
:106080007CFD10B14FF0FF30A0E7E048407C10B13C
:106090000220009001E000200090DC4A1268D17BD1
:1060A000DA4A526810786B460122FEF766FD10B19D
:1060B0004FF0FF308AE700200090D44A12685179EF
:1060C000D24A526810786B460122FEF756FD00282E
:1060D00052D04FF0FF3079E704200090CB4A12688D
:1060E0001179CA4A526810786B460122FEF745FDC5
:1060F00010B14FF0FF3069E7C448807C20B9C34835
:10610000807A10F0010F02D14020009001E0602061
:106110000090BE4A12681179BC4A526810786B46EA
:106120000122FEF72AFD10B14FF0FF304EE7B748CD
:10613000407C10B10120009001E000200090B34AA3
:106140001268D17BB14A526810786B460122FEF783
:1061500014FD10B14FF0FF3038E7AC4A12685179A6
:10616000AA4A52681078A94B10330122FEF705FDA8
:1061700010B14FF0FF3029E7002027E770B5044643
:10618000002624F00104A14890F8240008B1002062
:1061900070BD9E48807A10B94FF0FF30F8E79B48F9
:1061A000057C807A2040994908740846007CA0420A
:1061B00002D04FF0FF3600E0002614B99348007D6E
:1061C00018B10120FFF736FD02E00020FFF732FD95
:1061D0003CB1FFF7F5FE20B18C4805744FF0FF305D
:1061E000D6E73046D4E738B504468848807A10B9F7
:1061F0004FF0FF3038BDBC2C02DB0120009015E0D1
:10620000622C02DB0220009010E02A2C02DB03202B
:1062100000900BE0142C02DB0420009006E00A2C16
:1062200002DB0520009001E0062000907748C07A4C
:106230009DF80010884201D10020DBE7734A126804
:106240009178724A526810786B460122FEF795FCED
:1062500010B14FF0FF30CDE79DF800106B48C172D0
:106260000020C7E738B50446282C02DD4FF0FF3088
:1062700038BDDCB90020FFF767FD00208DF8000075
:1062800007208DF80100614A1268917C5F4A5268CC
:1062900010786B460222FEF770FC10B14FF0FF3011
:1062A000E6E70021594801750020E1E70120FFF7EA
:1062B0004BFD20208DF80000012C06D100208DF828
:1062C00001000520FFF78FFF17E0052C06DC0120F9
:1062D0008DF801000520FFF786FF0EE0142C06DC88
:1062E00002208DF801000A20FFF77DFF05E0032062
:1062F0008DF801001420FFF776FF9DF801000721BB
:1063000001EB8010C0B28DF80100404A1268917C08
:106310003E4A526810786B460222FEF72EFC10B1FE
:106320004FF0FF30A4E70821384881720021017343
:10633000012101750020FFF721FF002098E738B503
:1063400004463248807A10B94FF0FF3038BD2F48EC
:1063500090F8240010B14FF0FF30F7E72B48007D94
:1063600050B134B1282C04DCE0B2FFF77BFF0020F1
:10637000ECE70020FFF776FF042C01DA042404E0A8
:10638000B4F57A7F01DD4FF47A744FF47A7090FBA4
:10639000F4F0401EC0B200901C4A126851781B4AAB
:1063A000526810786B460122FEF7E7FB10B14FF000
:1063B000FF30CBE79DF80000401C4FF47A7191FB51
:1063C000F0F081B21148C1810146C9894810FFF738
:1063D0000AFF0020BAE738B504460C48807A10B9A5
:1063E0004FF0FF3038BD022C06D0042C07D0082C0B
:1063F00008D0102C0FD10BE0002000900EE00820F8
:1064000000900BE01020009008E00000A4000020A5
:106410001820009002E04FF0FF30E3E700BFF9489A
:10642000407A9DF80010B0EBE10F01D10020D9E7D0
:10643000F44A1268D179F34A526810786B46012207
:10644000FEF79BFB10B14FF0FF30CBE79DF800004B
:10645000C110EC4841720020C4E738B50446E94851
:10646000807A10B94FF0FF3038BDFA2C09D0B4F55E
:10647000FA7F09D0B4F57A7F09D0B4F5FA6F0CD160
:1064800008E0002000900BE00820009008E01020B9
:10649000009005E01820009002E04FF0FF30E3E7A5
:1064A00000BFD848007A9DF80010B0EBE10F01D191
:1064B0000020D9E7D34A12689179D24A52681078FD
:1064C0006B460122FEF759FB10B14FF0FF30CBE7CE
:1064D0009DF80000C010CB4908720020C4E71CB52D
:1064E00080208DF80000C74A1268917CC54A526826
:1064F00010786B460122FEF740FB10B14FF0FF30E1
:106500001CBD6420FCF701FF00208DF80000BD4A8F
:106510001268917CBB4A526810786B460122FEF7E4
:106520002CFB10B14FF0FF30EAE7B64A1268917DBC
:10653000B44A526810786B460622FEF77FFB10B112
:106540004FF0FF30DCE79DF80500C007400F9DF8D5
:10655000031001F0010140EA41009DF8011001F033
:10656000010140EA010494B1012C03D10121A548A5
:10657000C17431E0022C03D10021A248C1742BE088
:106580002146A1A002F048FF4FF0FF30B8E79D4A36
:106590001268D1789B4A526810786B460122FEF748
:1065A0004DFB10B14FF0FF30AAE79DF8000000F05E
:1065B0000F042CB99E4802F02FFF4FF0FF309FE7E9
:1065C000042C06D19BA002F027FF01218D48C17445
:1065D00002E000218B48C174FF218A488172FF20AC
:1065E00088490872FF2187484172C1724FF6FF71D6
:1065F000C181FF21017481740121017380F822108F
:10660000002180F82310417501751630016041604A
:106610008160163880F8241080F82510C1844FF46A
:10662000FA60FFF71AFF10B14FF0FF3068E7022061
:10663000FFF7D1FE10B14FF0FF3061E72A20FFF7DE
:10664000D2FD10B14FF0FF305AE73220FFF777FE4E
:1066500010B14FF0FF3053E70020FFF78FFD10B16E
:106660004FF0FF304CE70020FFF706FC10B14FF071
:10667000FF3045E70020FFF79AFB002040E7704716
:106680007CB504460D465F48807A10F0700F02D149
:106690004FF0FF307CBD5B4A1268117B594A52684B
:1066A00010786B460622FEF7C9FA10B14FF0FF30A2
:1066B000F0E79DF801009DF8001040EA012000B2CB
:1066C00020809DF803009DF8021040EA012000B2EE
:1066D00060809DF805009DF8041040EA012000B29A
:1066E000A08015B12846FFF7CAFF0020D2E77CB58D
:1066F00004460D464348807A10F0080F02D14FF04F
:10670000FF307CBD3F4A1268517B3E4A5268107888
:106710006B460622FEF792FA10B14FF0FF30F0E719
:106720009DF801009DF8001040EA012000B2208091
:106730009DF803009DF8021040EA012000B260803D
:106740009DF805009DF8041040EA012000B2A080E9
:1067500015B12846FFF793FF0020D2E72DE9FE4F41
:1067600005460C462748807A18B94FF0FF30BDE83F
:10677000FE8F244A1268917B224A5268107802AB3D
:106780000222FEF75BFA10B14FF0FF30EFE79DF801
:1067900009009DF8081040EA012006B214B1204615
:1067A000FFF76DFF17494968C88806F0D3FF154900
:1067B00001904968B1F9080006F0B4FF83463046FD
:1067C00006F0B0FF5946009007F014F9824601998F
:1067D00006F076FE81461F4906F004FE80464FF023
:1067E0008F4106F0FFFF074606F060FF286000209B
:1067F000BDE710B588B004461CB94FF0FF3008B0B3
:1068000010BD29E0A4000020556E737570706F7282
:1068100074656420736F6674776172652070726F3F
:1068200064756374207265762025642E0A0000006A
:10683000F4DE000848616C662073656E73697469E4
:1068400076697479207061727420666F756E642E3B
:106850000D0A000000000C42206830B9606820B9C1
:10686000A06810B9002008B010BDFA49496808783E
:1068700006AB03221146FEF7E1F910B14FF0FF30ED
:10688000F1E79DF81800082101EB201000F00F003F
:10689000ADF800009DF8190001EB201000F00F008A
:1068A000ADF802009DF81A0001EB201000F00F0077
:1068B000ADF8040020684100BDF90000403091FBB4
:1068C000F0F000B2ADF8100060684100BDF90200C0
:1068D000403091FBF0F000B2ADF81200A06841002A
:1068E000BDF90400403091FBF0F000B2ADF81400A7
:1068F000D8494968087806AB06221146FEF79EF98A
:1069000010B14FF0FF30AEE79DF819009DF8181058
:1069100040EA012000B2ADF808009DF81B009DF888
:106920001A1040EA012000B2ADF80A009DF81D00DF
:106930009DF81C1040EA012000B2ADF80C00BDF833
:106940001000BDF80810084400B2ADF81000BDF802
:106950001200BDF80A10084400B2ADF81200BDF8EC
:106960001400BDF80C10084400B2ADF81400BDF8D6
:106970001000000A8DF81800BDF81000C0B28DF8A4
:106980001900BDF81200000A8DF81A00BDF81200B7
:10699000C0B28DF81B00BDF81400000A8DF81C0071
:1069A000BDF81400C0B28DF81D00AA4949680878E6
:1069B00006AB06221146FEF7E0F810B14FF0FF30AB
:1069C00051E700204FE70146A248007A30B1012884
:1069D00007D0022809D003280FD10AE0FA20088046
:1069E0000EE04FF4FA7008800AE04FF47A700880E5
:1069F00006E04FF4FA60088002E00020088000BF43
:106A000000BF0020704701469248407A30B101280B
:106A100007D0022808D003280CD108E00220087013
:106A20000BE00420087008E00820087005E0102042
:106A3000087002E04FF0FF30704700BF8548C07C0F
:106A400018B108784006000E08700020F4E70146EF
:106A50008048C07A082817D2DFE800F01704070A38
:106A60000D101318BC20088013E06220088010E08D
:106A70002A2008800DE0142008800AE00A200880FF
:106A800007E00520088004E000BF00BF0020088068
:106A900000BF00BF0020704701466E4890F82400F8
:106AA00010B14FF0FF3070476A48C089088000205D
:106AB000F9E7014600200880401E704701464FF06C
:106AC000FF30704701466348007A30B1012807D093
:106AD000022808D003280CD108E05F4808600BE0CA
:106AE0005E48086008E05E48086005E05D480860B0
:106AF00002E04FF0FF30704700BF0020FBE7014687
:106B00005448407A30B1012808D002280AD003281E
:106B100010D10BE04FF4804008800EE041F69C70ED
:106B200008800AE04FF48050088006E04FF40060CF
:106B3000088002E04FF0FF30704700BF4548C07C3E
:106B400010B10888401008800020F5E70146414850
:106B5000007C08700020704701463E48807A10B1E2
:106B60000120087001E0002008700020704738B54F
:106B700004463848807A10B94FF0FF3038BD354AA6
:106B80001268117C334A526810786B460222FEF775
:106B900055F810B14FF0FF30F0E79DF801009DF877
:106BA000001040EA012000B220800020E6E72DE935
:106BB000FE4F0746884692461D46DDF830B0002657
:106BC0000024244890F8240010B1601EBDE8FE8F18
:106BD000002028701F48807A10B94FF0FF30F5E789
:106BE0001C48007C10B94FF0FF30EFE71948007CDB
:106BF00010F0400F01D0B01CC6B21648007C10F057
:106C0000200F01D0B01CC6B21248007C10F0100F4B
:106C100001D0B01CC6B20F48007C10F0080F01D0A4
:106C2000B01DC6B20B4A1268917A0A4A52681078AF
:106C30006B460222FEF702F810B14FF0FF30C5E7B5
:106C40009DF801009DF8001040EA0129B1450BDADA
:106C50000020BBE7A40000200000034300008342A3
:106C60003333034233338341FA4840684088B9EBF9
:106C7000600F17DDF74A1268517CF64A52681078A7
:106C80006B460122FDF7DAFF10B14FF0FF309DE7B0
:106C90009DF8000010F0100F04D0FFF791F96FF08D
:106CA000010093E75046FFF7EAFCEA4A1268D17AFE
:106CB000E84A526810786B463246FDF7BFFF10B1C4
:106CC0004FF0FF3082E799FBF6F0401E8BF8000092
:106CD00000202870B4422AD0DE48007C10F0080F53
:106CE00025D0601C1DF800001DF8041040EA0120AA
:106CF00000B2A8F80000E01C1DF80010A01C1DF850
:106D0000000041EA002000B2A8F80200601D1DF852
:106D10000010201D1DF8000041EA002000B2A8F874
:106D20000400287840F008002870A01D84B2B44206
:106D300013D0C848007C10F0400F0ED0601C1DF826
:106D400000001DF8041040EA012000B238802878C5
:106D500040F040002870A01C84B2B44213D0BD485B
:106D6000007C10F0200F0ED0601C1DF800001DF8F4
:106D7000041040EA012000B27880287840F020001A
:106D80002870A01C84B2B44213D0B248007C10F02A
:106D9000100F0ED0601C1DF800001DF8041040EA12
:106DA000012000B2B880287840F010002870A01CA4
:106DB00084B200200AE7F8B504460F461646A548F7
:106DC00090F8240010B94FF0FF30F8BDA148807A48
:106DD00010B94FF0FF30F8E79E4A1268917A9D4A49
:106DE000526810786B460222FDF728FF10B14FF071
:106DF000FF30EAE79DF801009DF8001040EA012508
:106E0000A54203DA00203070401EDEE7914840685A
:106E10004088B5EB600F17DD8E4A1268517C8D4AB1
:106E2000526810786B460122FDF708FF10B14FF051
:106E3000FF30CAE79DF8000010F0100F04D0FFF7F4
:106E4000BFF86FF00100C0E7E2B2824B1B68D97A4D
:106E5000804B5B6818783B46FDF7F0FE10B14FF0B1
:106E6000FF30B2E795FBF4F0401E30700020ACE735
:106E70000146784880F82210002070477CB505460E
:106E800074494968087801AB04220D21FDF7D6FE4C
:106E900008B107207CBD9DF80700C0F301109DF8E4
:106EA000041001F0E00140EAE1008DF800009DF8D7
:106EB0000700C0F381009DF8051001F0E00140EAF1
:106EC000E1008DF801009DF8070000F003009DF837
:106ED000061001F0E00140EAE1008DF80200002414
:106EE0001CE01DF8040018B9002045F8240013E048
:106EF000594845F8240006E055F82400574906F0A3
:106F000071FC45F824001DF80400401E10F0FF003D
:106F10000DF80400F0D100BF601CC4B2032CE0DB0C
:106F20000020B7E72DE9FE4F06460F4600256846CC
:106F3000FFF7A4FF002440E056F8240057F824107F
:106F4000B0EB010A01D4514601E0CAF10001084644
:106F500006F0E8FB83464FF08F4106F0B1FA804619
:106F60005DF82400002106F06DFB16D05DF82410BA
:106F7000404606F0A5FA82464FF07E5106F03AFDF3
:106F8000814629F0004A3648416A504606F0F6FC30
:106F900012D20120A04005430EE03148C1694046AD
:106FA00006F0ECFB05D32E48016A404606F0E6FCED
:106FB00002D20120A0400543641C032CBCDB284600
:106FC000BDE8FE8F2DE9FC5F06460F4600252149EE
:106FD0004968087801AB03220D21FDF72FFE10B19F
:106FE0000720BDE8FC9F9DF8040000F01F008DF80D
:106FF00004009DF8050000F01F008DF805009DF8C5
:10700000060000F01F008DF80600002460E056F82E
:10701000240057F82410B0EB010B01D4594601E0CD
:10702000CBF10001084606F07DFB4FF08F41009048
:1070300006F046FA814601A8005DC0B30849086819
:1070400006F088FB83465946064806F039FA804622
:107050000FE00000A40000207B14AE3E1D5A843FC8
:10706000CCDE000800B04C45FE49404606F0BAFBB5
:10707000804601A8005D401E10F0FF0001A90855E0
:10708000F2D14146484606F01BFA83464FF07E5146
:1070900006F0B0FC82462AF0004BF348816958465E
:1070A00006F06CFC13D20120A04005430FE0FFE77F
:1070B000ED480169484606F061FB05D3EA4841699D
:1070C000484606F05BFC02D20120A0400543641C48
:1070D000032C9CDB284684E72DE9F04F87B005465A
:1070E0000C46914601208DF8100000208DF811000B
:1070F000DE4A1268917CDD4A5268107804AB0222A5
:10710000FDF73BFD20B14FF0FF3007B0BDE8F08F39
:10711000C820FCF7FAF800208DF81000D34A126856
:10712000D17BD24A5268107804AB0122FDF725FDCD
:1071300010B14FF0FF30E8E7CC4A12685179CB4AE2
:107140005268107804AB0122FDF717FD10B14FF023
:10715000FF30DAE7C54A1268917CC44A5268107859
:1071600004AB0122FDF709FD10B14FF0FF30CCE771
:10717000BE4A1268D17DBD4A5268107804AB012224
:10718000FDF7FBFC10B14FF0FF30BEE7B74A1268C5
:107190001179B64A5268107804AB0122FDF7EDFC74
:1071A00010B14FF0FF30B0E70C208DF81000AF4A5F
:1071B00012681179AD4A5268107804AB0122FDF7CC
:1071C000DCFC10B14FF0FF309FE70F20FCF79DF87B
:1071D000A648806A407A8DF81000A44A1268917817
:1071E000A24A5268107804AB0122FDF7C6FC10B128
:1071F0004FF0FF3089E79D48806A007A8DF81000D3
:107200009A4A12685178994A5268107804AB012260
:10721000FDF7B3FC10B14FF0FF3076E7B9F1000F86
:1072200007D09248806A807A40F0E0008DF8100024
:1072300004E08E48806A807A8DF810008B4A1268CC
:1072400091798A4A5268107804AB0122FDF795FCC7
:1072500010B14FF0FF3058E7B9F1000F07D0834865
:10726000806AC07A40F0E0008DF8100003E07E48AC
:10727000C07A8DF810007D4A1268D1797B4A526835
:10728000107804AB0122FDF778FC10B14FF0FF300D
:107290003BE7B9F1000F02D0C820FCF736F84020D8
:1072A0008DF81000714A12681179704A526810788E
:1072B00004AB0122FDF761FC10B14FF0FF3024E771
:1072C00078208DF81000694A12685179674A52682F
:1072D000107804AB0122FDF750FC10B14FF0FF30E5
:1072E00013E761498889FCF710F800208DF8100039
:1072F0005E4A126851795D4A5268107804AB0122E7
:10730000FDF73BFC10B14FF0FF30FEE6574A126824
:10731000917A564A5268107804AB0222FDF78EFC2F
:1073200010B14FF0FF30F0E69DF811009DF81010FD
:1073300040EA012B0C209BFBF0F0C6B20020A860B5
:1073400068602860A06060602060824665E0474A0F
:107350001268D17A454A5268107804AB0C22FDF7C6
:107360006DFC10B14FF0FF30CFE69DF811009DF895
:10737000101040EA012000B2ADF808009DF813009B
:107380009DF8121040EA012000B2ADF80A009DF805
:1073900015009DF8141040EA012000B2ADF80C0071
:1073A000BDF90810206808442060BDF90A10606823
:1073B00008446060BDF90C10A0680844A0609DF806
:1073C00017009DF8161040EA012000B2ADF8000049
:1073D0009DF819009DF8181040EA012000B2ADF8A0
:1073E00002009DF81B009DF81A1040EA012000B22F
:1073F000ADF80400BDF90010286808442860BDF904
:107400000210686808446860BDF90410A868084460
:10741000A8600AF1010000F0FF0AB24597DB1248AC
:10742000D0F800C02868C117090441EA10410704D8
:1074300062460023384601F0CAFF32460023CDE9F8
:10744000020101F0C4FF28600748D0F800C0686856
:10745000C117090441EA1041070462460023384677
:1074600006E0000054E3853FCCDE0008A4000020C5
:1074700001F0ADFF32460023CDE9020101F0A7FF84
:107480006860FE48D0F800C0A868C117090441EA46
:107490001041070462460023384601F098FF324647
:1074A0000023CDE9020101F092FFA860F348D0F873
:1074B00004C02168C817000440EA11480F0462465E
:1074C00000233846414601F082FF32460023CDE9D1
:1074D000020101F07CFF2060E848D0F804C0606839
:1074E000C117090441EA10410704624600233846E7
:1074F00001F06DFF32460023CDE9020101F067FF84
:107500006060DE48D0F804C0A068C117090441EAF1
:107510001041070462460023384601F058FF324606
:107520000023CDE9020101F052FFA060A06800280D
:1075300004DDA068A0F58030A06003E0A06800F53D
:107540008030A0600020E0E538B50446CC4890F8D3
:107550002400A04201D1002038BD24B3C84890F8CF
:10756000250010B94FF0FF30F6E70020FEF762FB70
:107570000020FEF781FCC249C88CFEF7E0FE002027
:107580000090BF49496808786B4601222321FDF726
:10759000F4FA0121BA4880F824100120FEF74AFBD2
:1075A000FEF70EFD13E00020FEF744FBB448007C1C
:1075B0000090B349496808786B4601222321FDF702
:1075C000DCFA0021AE4880F82410FEF7F9FC002018
:1075D000C2E72DE9F04F8DB083460F4602200C9094
:1075E000A74890F8240020B10020FFF7ADFF012646
:1075F00000E0002603A8FFF7E6F905A8FFF703FA65
:1076000001A8FFF724FA02A8FFF746FA9C4890F871
:107610000AA004A8FFF79AFA002407E000223946DE
:107620005846FFF759FD00B902E0641C022CF5DB57
:1076300000BF022C01D1002528E0002407E0012230
:1076400006A909A8FFF748FD00B902E0641C022C56
:10765000F5DB00BF022C01D1002517E006A9384652
:10766000FFF760FC00F0FF0809A95846FFF7AAFCE5
:1076700000F0FF090025B9F1000F01D145F0010527
:10768000B8F1000F01D145F0020500BFFF207C4991
:107690000872FF217A484172C1724FF6FF71C181B1
:1076A000FF218172017401210173BDF80C00FEF706
:1076B000D4FE9DF81400FEF78EFEBDF80400FEF720
:1076C00092FDBDF80800FEF73AFE5046FEF76FFB4C
:1076D0009DF81000FEF752FD16B10120FFF734FFB0
:1076E00028460DB0BDE8F08FF8B504460D461646A5
:1076F00016B94FF0FF30F8BD6148807A10B94FF0ED
:10770000FF30F8E720128DF80000E0B28DF801009C
:107710009DF8010028445A4949684989884202DD98
:107720004FF0FF30E7E7564A1268117E544A52681C
:1077300010786B460222FDF720FA10B14FF0FF30AF
:10774000D9E7EAB24E4B1B68597D4D4B5B68187800
:107750003346FDF712FA10B14FF0FF30CBE70020AF
:10776000C9E7F8B504460D46164616B94FF0FF3086
:10777000F8BD4348807A10B94FF0FF30F8E7201287
:107780008DF80000E0B28DF801009DF8010028445A
:107790003B4949684989884202DD4FF0FF30E7E7FD
:1077A000374A1268117E364A526810786B460222B8
:1077B000FDF7E3F910B14FF0FF30D9E7EAB2304BF3
:1077C0001B68597D2E4B5B6818783346FDF736FAF7
:1077D00010B14FF0FF30CBE70020C9E72DE9F043AF
:1077E00085B005460E4690469946254890F82500F6
:1077F00020B14FF0FF3005B0BDE8F08316B94FF06F
:10780000FF30F8E7002423E0281B102801DD1020BA
:1078100000E0281B87B2321939462046FFF764FF83
:1078200010B14FF0FF30E6E701AA39462046FFF7D6
:1078300098FF10B14FF0FF30DDE730193A4601A94B
:1078400002F017F810B16FF00100D4E7E01984B22C
:10785000AC42D9DB4FEA28208DF8000008F0FF0089
:107860008DF80100064A1268917E054A5268107828
:107870006B460222FDF781F938B103E0CCDE000847
:10788000A40000204FF0FF30B5E701218A4880F8BE
:107890002510A0F826900020ADE70146864890F814
:1078A000240008700020704702464FF0FF307047F8
:1078B00001464FF0FF307047F8B505460F461446B5
:1078C000002C70D0B5F5FF5F01DDFF2605E0202D0F
:1078D00001DA012601E0C5F3471607B90127282C74
:1078E00002DD4FF0FF30F8BD7348407D28BB724881
:1078F00090F8240038B10020FFF726FE01216E48E1
:1079000080F8201003E000216B4880F820106A48BE
:107910001630FFF758F868481830FFF774F86648D3
:107920001A30FFF794F864481C30FFF7B5F8624846
:10793000817A81771F30FFF709F90020FEF77AF985
:107940000020FEF78FFC00208DF800005A4A1268D4
:107950009178594A526810786B460122FDF70DF96B
:1079600010B14FF0FF30BEE740208DF80000524AC2
:107970001268D17B504A526810786B460122FDF79D
:10798000FCF800B165E08DF800608DF801704A4A9E
:107990001268117A484A526810786B460222FDF745
:1079A000ECF808B155E047E00520FBF7AEFC424893
:1079B000407A072101EBC000C0B28DF800003E4ABA
:1079C0001268D1793C4A526810786B460122FDF763
:1079D000D4F800B13DE020208DF80000012C03D147
:1079E00000208DF801000EE0052C03DC01208DF84D
:1079F000010008E0142C03DC02208DF8010002E0F5
:107A000003208DF801009DF80100072101EB801093
:107A1000C0B28DF80100284A1268917C264A52684B
:107A200010786B460222FDF7A8F800B111E00121A1
:107A300021484175002056E71F4A1632002103E015
:107A4000505C00B105E0491C0C29F9D34FF0FF3020
:107A500049E7FF2018490872FF2117484172C17297
:107A60004FF6FF71C181FF21817201740121017301
:107A70000146887FFEF79BF90F49C88AFEF7EDFCA7
:107A80000D49087EFEF7A7FC0B49488BFEF7ABFBC0
:107A90000949888BFEF753FC0749C87FFEF76EFB48
:107AA000054890F8200010B10120FFF74DFD00219E
:107AB00001484175002016E7A400002010B5C82336
:107AC0004FF48062F74940F6F630FFF787FE10BDAD
:107AD00010B586B00446F4A000680390F3A00068D7
:107AE0000290F3A000680190F2A00068009004F0FA
:107AF000030003A9085C8DF8140003A8C4F3C101B6
:107B0000405C8DF8150003A8C4F38111405C8DF82A
:107B1000160004F0030002A9085C8DF8100002A80A
:107B2000C4F3C101405C8DF8110002A8C4F38111B7
:107B3000405C8DF8120005AA032140F22640FFF7B1
:107B4000D3FD18B14FF0FF3006B010BD04AA0321D9
:107B500040F22A40FFF7C8FD10B14FF0FF30F3E7C5
:107B6000019805900098049014F0040F0BD09DF834
:107B7000140040F001008DF814009DF8100040F052
:107B800001008DF8100014F0200F0BD09DF81500A7
:107B900040F001008DF815009DF8110040F0010043
:107BA0008DF8110014F4807F0BD09DF8160040F082
:107BB00001008DF816009DF8120040F001008DF8CC
:107BC000120005AA03214FF48860FFF78DFD10B164
:107BD0004FF0FF30B8E704AA032140F23140FFF72D
:107BE00083FD10B14FF0FF30AEE7B34804810020B1
:107BF000AAE71FB50446B048007A00F0030054F825
:107C000020000190AC48007A10F0040F02D00198D7
:107C100040420190A848007AC0F3C10054F8200007
:107C20000290A548007A10F0200F02D0029840423E
:107C30000290A148007AC0F3811054F8200003900C
:107C40009D48008910F4807F02D003984042039041
:107C50009A49019880FB0101800F40EA8100019060
:107C60009649029880FB0110820042EA91700290CE
:107C70009249039880FB0110820042EA91700390C0
:107C80000198000E8DF800000198000C8DF801009D
:107C90000198000A8DF802000198C0B28DF8030027
:107CA0006A4604214FF47470FFF71EFD18B14FF0BF
:107CB000FF3004B010BD0298000E8DF8000002984D
:107CC000000C8DF801000298000A8DF8020002985D
:107CD000C0B28DF803006A4604214FF47570FFF7B7
:107CE00003FD10B14FF0FF30E3E70398000E8DF86D
:107CF00000000398000C8DF801000398000A8DF82D
:107D000002000398C0B28DF803006A4604214FF4C4
:107D10007670FFF7E9FCCCE770B588B0064601A89D
:107D2000FEF7EDFEBDF804000021C90341EA50450D
:107D3000C4036148007A00F0030056F82000059063
:107D40005D48007A10F0040F02D00598404205907B
:107D50005948007AC0F3C10056F8200006905648F2
:107D6000007A10F0200F02D0069840420690524848
:107D7000007AC0F3811056F8200007904E48008921
:107D800010F4807F02D00798404207900598C117F1
:107D9000A0FB042301FB043100FB0510810041EA34
:107DA000927005900698C117A0FB042301FB0431D3
:107DB00000FB0510810041EA927006900798C117F8
:107DC000A0FB042301FB043100FB0510810041EA04
:107DD000927007900598000E8DF808000598000C29
:107DE0008DF809000598000A8DF80A000598C0B2C0
:107DF0008DF80B000698000E8DF80C000698000C0C
:107E00008DF80D000698000A8DF80E000698C0B295
:107E10008DF80F000798000E8DF810000798000CE1
:107E20008DF811000798000A8DF812000798C0B26B
:107E30008DF8130002AA0C214FF42570FFF754FCB3
:107E400008B070BD30B585B004461DA207CA02ABAC
:107E500007C3C82C03DD4FF0FF3005B030BDC8208C
:107E600090FBF4F0401E85B2280A8DF80000E8B2BD
:107E70008DF801006A46022140F21620FFF734FC1B
:107E800010B14FF0FF30E8E702AA0C2140F6C12004
:107E9000FFF72AFC10B14FF0FF30DEE7064884817F
:107EA0000020DAE742DF00084CCD6C000CC92C0042
:107EB00036567600264666009402002009E3CA0280
:107EC000FEF2ABC4AAF1DFDFBBAFDFDF0146FC4847
:107ED00080890880002070472DE9FC4706460F4640
:107EE00016F0070F02D0B7F5C86F03DD4FF0FF3073
:107EF000BDE8FC87384605F02DFC8146F14905F0C8
:107F0000DFFA80466846FEF77EFD9DF800000228F5
:107F100006D0042816D0082826D0102848D135E0ED
:107F20004FF08D41404605F05DFC814605F0DAFBDF
:107F300084B2E549404605F055FC814605F0D2FB88
:107F400085B238E04FF08C41404605F04BFC81464D
:107F500005F0C8FB84B2DD49404605F043FC81468C
:107F600005F0C0FB85B226E04FF08B41404605F09E
:107F700039FC814605F0B6FB84B2D549404605F090
:107F800031FC814605F0AEFB85B214E04FF08A412A
:107F9000404605F027FC814605F0A4FB84B2CD499C
:107FA000404605F01FFC814605F09CFB85B202E0CF
:107FB0004FF0FF309CE700BF20128DF80400E0B2C4
:107FC0008DF8050028128DF80600E8B28DF807003C
:107FD00016F0010F14D001AA02214FF4EA70FFF746
:107FE00083FB10B14FF0FF3082E70DF10602022152
:107FF0004FF49270FFF778FB10B14FF0FF3077E746
:1080000016F0020F14D001AA02214FF4EC70FFF712
:108010006BFB10B14FF0FF306AE70DF10602022151
:108020004FF49470FFF760FB10B14FF0FF305FE743
:1080300016F0040F14D001AA02214FF4EE70FFF7DE
:1080400053FB10B14FF0FF3052E70DF10602022151
:108050004FF49670FFF748FB10B14FF0FF3047E741
:10806000002045E738B504460020009014F0010FC9
:1080700004D09DF8000040F03000009014F0020F92
:1080800004D09DF8000040F00C00009014F0040FA4
:1080900004D09DF8000040F0030000906A460121E2
:1080A0004FF4A470FFF720FB38BD38B50446012C0F
:1080B00001DA012402E0042C00DD0424601EC0B2B9
:1080C00000906A46012140F24F10FFF70DFB38BDCA
:1080D00038B50446052094FBF0F085B228128DF8DF
:1080E0000000E8B28DF801006A4602214FF4EF70FB
:1080F000FFF7FAFA38BD38B50446052094FBF0F0D6
:1081000085B228128DF80000E8B28DF801006A46A9
:1081100002214FF4ED70FFF7E7FA38BDF8B50546D8
:108120000E464FF47A7095FBF0F000FB06F4200E3B
:108130008DF80000200C8DF80100200A8DF8020057
:10814000E0B28DF803006A4604214FF4AE70FFF7E9
:10815000CBFAF8BD38B50446052094FBF0F084B2A4
:1081600020128DF80000E0B28DF801006A4602216D
:108170004FF4AD70FFF7B8FA38BD38B504460520A6
:1081800094FBF0F084B220128DF80000E0B28DF87C
:1081900001006A4602214FF4AC70FFF7A5FA38BD22
:1081A00038B5044614B94FF0FF3038BD6A46042193
:1081B0004FF45870FFF7D5FA10B14FF0FF30F4E7E5
:1081C0009DF8000000069DF8011040EA01409DF86E
:1081D000021040EA01209DF80310084320600020AF
:1081E000E3E738B50446200E8DF80000200C8DF82A
:1081F0000100200A8DF80200E0B28DF803006A4603
:1082000004214FF45870FFF76FFA38BD38B50446B3
:1082100014B94FF0FF3038BD6A4604214FF4717035
:10822000FFF79FFA10B14FF0FF30F4E79DF8000020
:1082300000069DF8011040EA01409DF8021040EA56
:1082400001209DF80310084300EB800080002060AF
:108250000020E0E738B504461420B4FBF0F4200E0B
:108260008DF80000200C8DF80100200A8DF8020026
:10827000E0B28DF803006A4604214FF47170FFF7F5
:1082800033FA38BD38B5044664B120208DF80000BB
:1082900028208DF8010030208DF8020038208DF85C
:1082A000030004E0A3220421684601F00EFB6A46A5
:1082B000042140F69E20FFF717FAFDF781FE38BD36
:1082C0009402002000004843000040460000C045E2
:1082D000000040450000C04438B5044664B1C020E9
:1082E0008DF80000C2208DF80100C4208DF8020036
:1082F000C6208DF8030004E08B220421684601F0BB
:10830000E4FA6A46042140F69820FFF7EDF9FDF7FC
:1083100057FE38BD3EB504466CB1FCA1D1E9002042
:108320008968CDE9002002916A4609214FF49760DF
:10833000FFF7DAF93EBDF8A2D2E900109268CDE964
:10834000010200916A4609214FF49760FFF7CCF9CA
:10835000F0E73EB5044602208DF80000CA208DF8F3
:108360000100E3208DF8020009208DF803006A4621
:1083700004216820FFF7B8F9A3208DF8000014F05D
:10838000400F09D0C0208DF80100C8208DF80200F0
:10839000C2208DF8030006E0A3208DF801008DF8BF
:1083A00002008DF8030014F4C07F09D0C4208DF8BA
:1083B0000400CC208DF80500C6208DF8060006E0EC
:1083C000A3208DF804008DF805008DF80600A32089
:1083D0008DF807008DF808008DF809006A460A211B
:1083E00040F6A720FFF780F914F0030F03D02020F8
:1083F0008DF8000002E0D8208DF800006A460121C7
:1084000040F6B620FFF770F914F0200F03D00120DA
:10841000FFF780FF02E00020FFF77CFF14F4C07F2D
:1084200021D014F4807F0CD0B2208DF800008B2076
:108430008DF80100B6208DF802009B208DF8030016
:108440000BE0B0208DF8000080208DF80100B420F2
:108450008DF8020090208DF803006A46042140F652
:10846000A220FFF741F914F0010F24D0F8208DF875
:1084700000006A4601214FF40B60FFF735F9FA213D
:108480000720FFF729FD0720FFF7ECFD0120FFF78C
:108490000CFE6420FFF71CFE4FF4FA70FFF72BFE72
:1084A000C821A048FFF73AFE2820FFF753FE0A2014
:1084B000FFF763FE08E0D8208DF800006A4601212E
:1084C0004FF40B60FFF710F914F0020F03D0D9201E
:1084D0008DF8000002E0D8208DF800006A460121E6
:1084E00040F23D70FFF700F914F0040F03D00120B3
:1084F000FFF7F2FE02E00020FFF7EEFE14F0100F8F
:1085000003D00120FFF7BEFE02E00020FFF7BAFE15
:1085100044F0080084494881FDF752FD002082495B
:10852000887314F0400F03D00846807B801D887349
:1085300014F4C07F04D07C48807B801D7A49887306
:1085400014F0140F04D07848807B1030764988737B
:1085500014F0030F04D07448807B001D72498873A7
:1085600000203EBD014670484089088000207047C9
:108570002DE9F0410446E07800F0C006E07800F014
:108580003F05607810F0010F13D0EF102846E9176F
:1085900005EB5171C910A5EBC101491C01F0FF08A1
:1085A0006148006820B160484146026838469047FB
:1085B00000BF607810F0080F06D05B48406818B123
:1085C000B011594A516888470020BDE8F08110B5C4
:1085D00086B0044655A207CA03AB07C356A207CA12
:1085E0008DE80700012C09D0022C0ED103AA0B2123
:1085F00040F68220FFF778F806B010BD6A460B21DE
:1086000040F68220FFF770F8F6E74FF0FF30F3E70F
:108610002DE9F04F8DB00746884615469946DDE9AD
:10862000166B0024002030803F49887B5A4605A9FC
:10863000FEF7C1FB18B1601E0DB0BDE8F08F3A48DF
:10864000807A10F0140F7DD09DF8140000069DF87C
:10865000151040EA01409DF8161040EA01209DF8EF
:108660001710084328609DF8180000069DF819109F
:1086700040EA01409DF81A1040EA01209DF81B10C5
:10868000084368609DF81C0000069DF81D1040EA34
:1086900001409DF81E1040EA01209DF81F1008437C
:1086A000A8609DF8200000069DF8211040EA0140D6
:1086B0009DF8221040EA01209DF823100843E8604D
:1086C00004F11000C4B22868001401906868001416
:1086D0000290A86800140390E868001404900198C0
:1086E0004043029901FB0100039901FB0100049939
:1086F00001FB010ABAF1706F02DBBAF1885F22DD7B
:10870000FDF75EFC00203080401E95E7B8AAB38DCF
:10871000B4980D355D000000B8AAAAAAB088C3C5F8
:10872000C700000009E3CA0294020020D8B1B9F3DF
:108730008BA391B609B4D900DAB1B9F38BA391B682
:10874000DAB4DA0005E0B6F9000040F48070308059
:1087500000BF3448807A10F0400F24D005A9601C77
:10876000085C095D40EA012000B2A8F8000005A9F4
:10877000E01C095C05AAA01C105C41EA002000B2C4
:10878000A8F8020005A9601D095C201D105C41EAE3
:10879000002000B2A8F80400A01DC4B2B6F9000081
:1087A00040F0080030801F48408910F4C07F21D07D
:1087B00005A9601C085C095D40EA012000B2388010
:1087C00005A9E01C095C05AAA01C105C41EA002078
:1087D00000B2788005A9601D095C201D105C41EA8B
:1087E000002000B2B880A01DC4B2B6F9000040F06D
:1087F000700030800B48807A10F0030F03D005A979
:108800000819FFF7B5FE4846FDF739FF002013E7CA
:10881000014604480160002070470146014841605C
:1088200000207047940200202DE9F04105460C46D7
:10883000C2480168204605F0DDF80746C0480168D7
:10884000384604F0CFFF0646BE480168304604F0C3
:10885000C9FDBC490860BC484168BC48006805F0D7
:10886000C9F80646B8488168304605F0C3F8B849EB
:108870000860B548C06880F000404860B248C068F1
:1088800080F000408860B3480068C8600868AC4960
:10889000096804F0A7FF0646AB480168304604F0BB
:1088A000A1FDA9490860AA494868A549096804F0DA
:1088B00099FF0646A4484168304604F093FDA2495A
:1088C0004860A34988689E49096804F08BFF064602
:1088D0009D488168304604F085FD9B4988609C492D
:1088E000C8689749096804F07DFF06469648C16844
:1088F000304604F077FD9449C860924801682846E4
:1089000005F078F8944908609448007804F022FF54
:1089100006468D480168304604F064FF90490860BF
:108920008E48007804F016FF064687488168304676
:1089300004F058FF8B4908608848007804F00AFF6B
:10894000074687480168384604F04CFF06468648CB
:108950000168304604F046FD844908600846016815
:108960007F48006804F0ACFD814908607F480168D9
:108970007C48006804F0A4FD7E49086078480068DF
:108980007D4908607548007804F0E4FE06466E48AC
:108990004168304604F026FF78490860764801684F
:1089A0007348006804F01EFF0646674801683046B9
:1089B00005F015F864490860704801686C48006863
:1089C00004F010FF064660484168304605F007F89D
:1089D0005D494860684801686648006804F002FF25
:1089E000064659488168304604F0F9FF56498860C8
:1089F000624801685F48006804F0F4FE0646524889
:108A0000C168304604F0EBFF4F49C8605248016826
:108A10005748006804F0E6FE06464A4801683046BA
:108A200004F0E0FC474908604B4801685148006881
:108A300004F0D8FE064641480168304604F0D2FCF6
:108A40003E49086008460168204604F0D3FF4C49BF
:108A50000860BDE8F0812DE9F04F8BB083468A466F
:108A6000504604F093FC8046464A474B04F07EF99A
:108A7000CDE902013348006804F088FCCDE900012B
:108A8000DDE9022303F08CFE04460D463F480168F1
:108A90004FF07E5004F0AEFF804604F077FC0646AF
:108AA00022462B4604F062F9CDE9060137480168F9
:108AB000584604F097FE044604F068FCCDE9040132
:108AC000DDE9062303F06CFECDE9080103F036FE74
:108AD0001C4908600BB0BDE8F08F2DE9F041044659
