:020000040800F2
:100000001004002045010008210200082302000816
:10001000270200082B0200082F0200080000000041
:100020000000000000000000000000003502000891
:1000300033020008000000003702000839020008FF
:100040003B0200083D0200083F0200084102000890
:100050004302000845020008470200084902000860
:100060004B0200084D0200084F0200085102000830
:100070005302000855020008570200085902000800
:100080005B0200085D0200085F02000861020008D0
:1000900063020008650200086702000869020008A0
:1000A0006B0200086D0200086F0200087102000870
:1000B0007302000875020008770200087902000840
:1000C0007B0200087D0200087F0200088102000810
:1000D00083020008850200088702000889020008E0
:1000E0008B0200088D0200088F02000891020008B0
:1000F0009302000895020008970200089902000880
:100100009B0200089D0200089F020008A10200084F
:10011000A3020008A5020008A7020008A90200081F
:10012000AB020008AD020008AF020008B1020008EF
:10013000DFF80CD000F096FE00480047BF01000831
:1001400010040020004800473101000808B50121D3
:1001500044F2040000F0E0FD4FF40070ADF8000040
:1001600018208DF8030003208DF802006946254809
:1001700000F082F94FF48060ADF8000004208DF8A3
:10018000030069461F4800F077F908BD1FB54FF41A
:10019000E13000900020ADF80400ADF80600ADF8A5
:1001A0000800ADF80C000C20ADF80A0069461648AE
:1001B00000F0D7FA0121144800F041FB1FBD00F008
:1001C00017FEFFF7C3FFFFF7E1FF482000F072F8CA
:1001D00006E00EA000F058FE4FF47A7000F086F8AA
:1001E000F7E770B504460D46E1B2074800F08FFB13
:1001F00000BF4021044800F0E1FB0028F9D0204670
:1002000070BD000000080140003801400D0A203197
:100210003339EAC9EEA3B5E7D7D30D0A00000000D1
:10022000704700BFFEE700BFFEE700BFFEE700BF6C
:10023000FEE77047704770477047704770477047D8
:1002400070477047704770477047704770477047F6
:1002500070477047704770477047704770477047E6
:1002600070477047704770477047704770477047D6
:1002700070477047704770477047704770477047C6
:1002800070477047704770477047704770477047B6
:1002900070477047704770477047704770477047A6
:1002A0007047704770477047704770477047704796
:1002B000704700004FF0E021096921F004014FF080
:1002C000E0221161C21700EB5272C2F3C702224B47
:1002D0001A701946097801EB4102C2EBC1114FF6C1
:1002E000FF7202EAC1011D4A1180704701461B4A94
:1002F00012884A434FF0E0235A6100229A6101229A
:100300001A6100BF4FF0E022106910F0010F02D017
:1003100010F4803FF6D000224FF0E0231A619A617A
:10032000704701460C4A12784A434FF0E0235A6165
:1003300000229A6101221A6100BF4FF0E022106989
:1003400010F0010F02D010F4803FF6D000224FF0E1
:10035000E0231A619A61704700000020020000202B
:100360001049096801F038010E4A11601146096808
:100370000143116070470B49096821F00801094ADF
:100380001160114609680143116070470549096809
:1003900021F01001034A1160114609680143116000
:1003A000704700000020024010B50446C449601A9E
:1003B0008C422FD009DCC348201810D0B0F5806FD4
:1003C00016D0B0F5006F4AD11BE0B0F5806F2AD08F
:1003D000B0F5006F30D0B0F5406F40D135E001216D
:1003E000042000F0B3FC0021042000F0AFFC37E053
:1003F0000121082000F0AAFC0021082000F0A6FC42
:100400002EE00121102000F0A1FC0021102000F0BE
:100410009DFC25E00121202000F098FC00212020F7
:1004200000F094FC1CE00121402000F08FFC002132
:10043000402000F08BFC13E00121802000F086FCBE
:100440000021802000F082FC0AE00121080200F077
:100450007DFC00214FF4807000F078FC00E000BFCC
:1004600000BF10BD10B50121084600F06FFC00214F
:10047000012000F06BFC10BD2DE9F0410246002583
:100480000026002000230024002791F803C00CF070
:100490000F0591F803C01CF0100F03D091F802C0B3
:1004A0004CEA050591F800C0BCF1000F30D014688B
:1004B00000202AE04FF0010C0CFA00F3B1F800C064
:1004C0000CEA03069E421FD183004FF00F0C0CFA7A
:1004D00003F7BC4305FA03FC4CEA040491F803C09B
:1004E000BCF1280F05D14FF0010C0CFA00FCC2F84A
:1004F00014C091F803C0BCF1480F05D14FF0010CB6
:100500000CFA00FCC2F810C0401C0828D2D31460BA
:10051000B1F800C0BCF1FF0F34DD546800202EE0BC
:1005200000F1080C4FF0010808FA0CF3B1F800C014
:100530000CEA03069E4221D183004FF00F0C0CFA07
:1005400003F7BC4305FA03FC4CEA040491F803C02A
:10055000BCF1280F05D100F1080C08FA0CF8C2F81C
:10056000148091F803C0BCF1480F07D100F1080CCA
:100570004FF0010808FA0CF8C2F81080401C082857
:10058000CED35460BDE8F0814FF6FF7101800221A7
:1005900081700421C17070470246002093680B42AD
:1005A00001D0012000E0002070470146886880B239
:1005B000704702460020D3680B4201D0012000E0C2
:1005C000002070470146C86880B2704701617047DB
:1005D000416170470AB1016100E041617047C1604B
:1005E00070474FF480320A4382618161826182697F
:1005F0008269704702460020334B18684FF68073BB
:10060000184040EA021008432F4B186070472F49EA
:10061000C8617047F0B50A46002300240021002578
:10062000294E7168C0F3034583B200F44016B6F555
:10063000401F08D121F07061234E766826F0706665
:10064000214F7E6012E000F48016B6F5801F06D1BF
:10065000032606FA05F4A14341F0706106E0460D59
:10066000360103FA06F6B14341F0706122B1460D3E
:10067000360103FA06F63143134E7160F0BD30B512
:1006800000228B071C0F0F2303FA04F20E4B0833D2
:100690008C1053F8243093430B4C08348D1044F8DD
:1006A000253023468C1053F824308C07240F00FA91
:1006B00004F42343044C08348D1044F8253030BD35
:1006C0000014014000F8FEBF00000140000020427D
:1006D00010B50446D749601A8C422BD006DCD648A8
:1006E000201813D0B0F5806F38D119E0B0F5806FC5
:1006F0002AD0B0F56C4F31D10121880300F026FBE0
:1007000000214FF4804000F021FB28E00121480443
:1007100000F029FB00214FF4003000F024FB1EE024
:100720000121880400F01FFB00214FF4802000F01D
:100730001AFB14E00121C80400F015FB00214FF45E
:10074000002000F010FB0AE00121080500F00BFB7F
:1007500000214FF4801000F006FB00E000BF00BF56
:1007600010BD2DE9F04786B005460E460024A2468E
:1007700000BF00BF00272F462C8A4CF6FF700440B4
:10078000F08804432C82AC894EF6F3100440B08804
:1007900031890843718908430443AC81AC8A4FF620
:1007A000FF400440B0890443AC8201A800F047FA3E
:1007B000A248874202D1DDF810A001E0DDF80CA0CC
:1007C0000AEBCA0000EB0A1031688900B0FBF1F8AF
:1007D0006420B8FBF0F004012009642101FB1089BA
:1007E000322000EB0910B0FBF1F000F00F000443E1
:1007F0002C8106B0BDE8F0874FF41651016000214E
:100800008180C18001810C2141810021818170475B
:1008100010B502460020108A4FF2FF0318400B88E3
:100820004C8823438C882343CC882343184310826D
:1008300010BD0021018041808180C180704721B1BD
:10084000828942F40052828104E082894DF6FF736E
:100850001A4082817047F0B5034600240026002527
:1008600000201846C1F3421401F01F06012707FAC1
:1008700006F5012C01D10C3004E0022C01D110301E
:1008800000E014301AB107682F43076002E00768E0
:10089000AF430760F0BD1AB1838A0B43838202E045
:1008A000838A8B4383827047028A4FF6F0731A4023
:1008B0000282028A0A430282704782894FF2FF73E2
:1008C0001A40828182890A438281704721B18289DC
:1008D00042F00202828104E082894FF6FD731A40E1
:1008E00082817047028A4FF6DF731A400282028AC1
:1008F0000A430282704721B1028A42F48042028296
:1009000004E0028A4BF6FF731A4002827047C1F37B
:1009100008028280704701468888C0F3080070474B
:10092000818941F0010181817047028BD2B202833B
:10093000028B42EA012202837047028B02F47F425B
:100940000283028B0A430283704721B1828A42F0FC
:100950002002828204E0828A4FF6DF731A4082828C
:10096000704721B1828A42F01002828204E0828ABA
:100970004FF6EF731A408282704721B1828A42F0AB
:100980000802828204E0828A4FF6F7731A4082825C
:100990007047828A4FF6FB731A408282828A0A432A
:1009A0008282704721B1828A42F00202828204E090
:1009B000828A4FF6FD731A408282704702460020F9
:1009C00013880B4201D0012000E000207047CA4389
:1009D0000280704770B502460B46002400210025B6
:1009E0000020C3F3421503F01F01012606FA01F1AE
:1009F000012D02D19689314006E0022D02D1168ADE
:100A0000314001E0968A31401C12012606FA04F4B6
:100A10001688344011B10CB1012000E0002070BDF7
:100A200010B5002200230A1201249440A3B2DC4333
:100A3000048010BD004C004000BCFFBF00380140E6
:100A4000DE48006840F00100DC4908600846406864
:100A5000DB490840D949486008460068D949084040
:100A6000D64908600846006820F4802008600846DF
:100A7000406820F4FE004860002088607047CF493D
:100A8000096821F48031CD4A11601146096821F4CA
:100A900080211160B0F5803F03D0B0F5802F0ED1DA
:100AA00006E0C649096841F48031C44A116007E094
:100AB000C249096841F4A021C04A116000E000BFAA
:100AC00000BF704710B501460022002300204A11E4
:100AD000012A02D1B94C236806E0022A02D1B74CA0
:100AE000236A01E0B54C636A01F01F0201249440BF
:100AF0001C4201D0012000E0002010BD10B50024F0
:100B000000BF3120FFF7DEFFAF490870AF48006833
:100B1000401CAE490860AC48007828B90846006817
:100B2000A0F58071FF39ECD13120FFF7CBFF08B180
:100B3000012400E00024204610BD014600209F4A09
:100B4000106820F0F80040EAC10010607047A0492A
:100B50000860704702460020984B586820F47C10CB
:100B600042EA01031843954B58607047984908665C
:100B7000704701460020914A506820F00300084366
:100B8000506070478D48406800F00C007047014687
:100B900000208A4A506820F0F000084350607047F7
:100BA00001460020854A506820F4E0600843506008
:100BB000704701460020814A506820F4605040EAA6
:100BC000C1005060704729B17C4A527A02437B4B86
:100BD0005A7204E0794A527A8243784B5A727047CB
:100BE0007C490860704701460020744A506820F430
:100BF00040400843506070470021774A11706F4AA7
:100C000082F82010012802D0042808D103E0012135
:100C1000714A117004E005216F4A117000E000BFB5
:100C200000BF70476D49086070476449096A014315
:100C3000624A11627047694944390860704730B5AB
:100C400000210022002400235C4D6D6805F00C019A
:100C500021B1042905D0082923D105E0604D0560A4
:100C600022E05F4D05601FE0544D6D6805F4701281
:100C7000022505EB9242514D6D6805F480341CB994
:100C8000584D554305600BE04C4D6D6815F4003F21
:100C900003D0544D5543056002E0514D5543056066
:100CA00002E04F4D056000BF00BF444D6D6805F088
:100CB000F00109094C4D6B5C0568DD4045603F4D16
:100CC0006D6805F4E061090A474D6B5C4568DD40DD
:100CD00085603A4D6D6805F46051C90A424D6B5C00
:100CE0004568DD40C560354D6D6805F44041890BB0
:100CF0003E4D6B5CC568B5FBF3F5056130BD29B1B0
:100D00002E4A526902432D4B5A6104E02B4A526924
:100D100082432A4B5A61704729B1284A926902439B
:100D2000264B9A6104E0254A92698243234B9A61DB
:100D3000704729B1214AD2690243204BDA6104E0AD
:100D40001E4AD26982431D4BDA61704729B11B4AA2
:100D5000D2680243194BDA6004E0184AD268824331
:100D6000164BDA60704729B1144A12690243134BDB
:100D70001A6104E0114A12698243104B1A617047EC
:100D800016494039086070471149C86470470B49DB
:100D9000C87170470948406A40F08070074948624E
:100DA000704701460020054A92680A4201D001209E
:100DB00000E000207047014988727047001002402F
:100DC0000000FFF8FFFFF6FE0800002004000020EE
:100DD00000004242D80042422010024080044242B9
:100DE00000127A0000093D00D80E0008E80E000845
:100DF00010B5FFF725FE4FF48030FFF740FEFFF7F8
:100E00007DFE1749087008460078012826D1102079
:100E1000FFF7BCFA0220FFF7A3FA0020FFF7B7FEA6
:100E20000020FFF7C6FE4FF48060FFF7B9FE4FF4D5
:100E3000E0114FF48030FFF78DFE0120FFF796FEA2
:100E400000BF3920FFF73EFE0028FAD00220FFF74E
:100E500090FE00BFFFF796FE0828FBD110BD0000F2
:100E600009000020064C074D06E0E06840F0010351
:100E700094E8070098471034AC42F6D3FFF75CF9CA
:100E8000EC0E00080C0F0008014A024900F013B8EC
:100E9000E30100080C00002002E008C8121F08C18E
:100EA000002AFAD170477047002001E001C1121FEB
:100EB000002AFBD170472DE9F04116460F46044643
:100EC000002503E03946B0476D1C641C20780028DB
:100ED000F8D12846BDE8F0810000000001020304BB
:100EE0000102030406070809020406080C0F0008A3
:100EF0000000002010000000980E00081C0F0008E1
:100F00001000002000040000A80E000800000000EF
:0C0F1000000000000000000000000000D5
:0400000508000131BD
:00000001FF
