:020000040800F2
:103000003809002081320008853200088732000824
:10301000893200088B3200088D3200080000000061
:103020000000000000000000000000008F320008D7
:103030009132000800000000933200089532000829
:10304000973200089732000897320008973200083C
:10305000973200089732000897320008973200082C
:10306000973200089732000897320008973200081C
:10307000973200089732000897320008973200080C
:1030800097320008973200089732000897320008FC
:1030900097320008973200089732000897320008EC
:1030A00097320008D7470008973200089732000887
:1030B00097320008973200089732000897320008CC
:1030C00097320008973200089732000897320008BC
:1030D000973200082F380008254200089732000870
:1030E00097320008973200089732000800F002F883
:1030F00000F0B0F80AA090E8000C82448344AAF1E2
:103100000107DA4501D100F0A5F8AFF2090EBAE8DF
:103110000F0013F0010F18BFFB1A43F0010318470B
:103120008CAC0000ACAC00000A444FF0000C10F86E
:10313000013B13F0070408BF10F8014B1D1108BF35
:1031400010F8015B641E05D010F8016B641E01F8D5
:10315000016BF9D113F0080F1EBF10F8014BAD1C25
:103160000C1B09D16D1E58BF01F801CBFAD505E043
:1031700014F8016B01F8016B6D1EF9D59142D6D39D
:10318000704700000023002400250026103A28BFC5
:1031900078C1FBD8520728BF30C148BF0B607047C9
:1031A0006E2905F01F84702905F06C87662909F0E7
:1031B000BE85652909F0BB85672909F0B8856129B5
:1031C000AFF3008003681B0A28BF41F08001692922
:1031D00005F06E81642905F06B81752905F0688121
:1031E0006F2905F0F786782905F03887E92905F079
:1031F0008F86E42905F08C86F52905F08986EF296C
:1032000005F0F486F82905F037870368DB0928BF45
:1032100041F08001632906F0A382732906F0A88299
:10322000E32906F0B382F32906F0B8820020704744
:103230001FB506F0DDF904000020002108F090FB26
:10324000401C60600020002108F074FBE0601FBD9E
:1032500010B510BD06F020FD1146FFF7E9FF00F0A4
:103260002BF806F06FFF03B4FFF7F2FF03BC00F08A
:103270000FFA000030BF72B662B680F3088870475C
:1032800008480047FEE7FEE7FEE7FEE7FEE7FEE749
:10329000FEE7FEE7FEE7FEE703480449044A054B64
:1032A00070470000ED300008380300203809002086
:1032B0003805002038050020092000F091F9482049
:1032C00000F030F8022000F076F9012000F073F9E8
:1032D00000F01CFB00F052FB4FF4E131482000F0FD
:1032E000EFF94FF41651242000F02AFF002141F697
:1032F0001F4000F049FC00F09DFC04F046FE04F085
:1033000058FE41F61F41312000F0B8FB06E005F001
:1033100043F803490860642000F03BF8F7E7000039
:10332000180000204FF0E021096921F004014FF05E
:10333000E0221161C21700EB5272C2F3C702224BA6
:103340001A701946097801EB4102C2EBC1114FF620
:10335000FF7202EAC1011D4A1180704701461A4AF4
:1033600012784A434FF0E0235A6100229A61012209
:103370001A6100BF4FF0E022106910F0010F02D077
:1033800010F4803FF6D000224FF0E0231A619A61DA
:10339000704701460D4A12884A434FF0E0235A61B4
:1033A00000229A6101221A6100BF4FF0E0221069E9
:1033B00010F0010F02D010F4803FF6D000224FF041
:1033C000E0231A619A61704730000020320000202B
:1033D000A44A0A400243A44B1A60704701460723DF
:1033E00023EA01021202A04B1B1D18684FF6FF03CF
:1033F00018409E4B184310439B4B1B1D1860704791
:103400002DE9F0410746884614461D462846FFF739
:10341000E5FFC5F1040007FA00F60F20284100EA95
:103420000800064306F00F06E21704EBD2625211C1
:103430004FF0E02303EB8202D2F800212146E3178C
:1034400004EBD3635B11A4EB431C012303FA0CF3DD
:103450001A432046E31704EBD3635B114FF0E02CD3
:103460000CEB8303C3F800218148005D40EA06109D
:103470007F490855BDE8F08170B504460B46CE176C
:1034800001EB9676C6F38700CE1701EB9676B61061
:10349000A1EB8606B606350E764B9B6943F0010319
:1034A000744EB3614FEAB63353F820300F26AE4066
:1034B000B343714E46F82030334653F8203004FAB7
:1034C00005F61E436C4B43F820606C4B1B680126CD
:1034D0008E403343694E336012F0010F08D0674BC2
:1034E0000C331B6801268E403343644E0C36336028
:1034F00012F0020F08D0614B08331E6801238B4085
:103500001E435E4B08331E6070BD00B50020594954
:103510000861C8601420486100208861C8610846BD
:10352000006840F0010008600846406854490840BF
:103530005049486008460068524908404D490860B3
:103540000846006820F4802008600846406820F49F
:10355000FE004860002088604FF440514FF000604A
:10356000FFF736FF00BD10B53F480830006840F057
:1035700004003D49083108603E48C06940F0805071
:103580003C49C8614048406840F480703E4948600A
:103590000846006840F0040008600846006840F0F3
:1035A00002000860FFF766FE10BD3048001D2E497E
:1035B000091D08607047014649062E4A926942F08B
:1035C00001022C4B9A612C4A083A526822F0E062C0
:1035D000294B083B5A601A4652680A435A607047A2
:1035E00030B504460025FFF790FF2248006840F4FC
:1035F00080302049086000BF1E480068400CFBD0A6
:103600004FF480601B494860A01EC4B20846406861
:1036100040EA844048600846406840F48030486092
:103620001A48006840F032001849086011480068E4
:1036300040F080700F49086000BF0E480068400EDF
:10364000FBD00C48406840F002000A49486005E0A1
:1036500008484068C0F3870505F00305022DF7D13F
:1036600030BD000080FFFF1F08ED00E00000FA05FC
:1036700000E400E0001002400800014000040140A6
:103680000000FFF8FFFFF6FE00700040002002403F
:10369000014600BF704700BF844A128812F0400FF5
:1036A000FAD0C2B2814B1B1D1A8070477F49091D99
:1036B000088000BF7D49098811F0400FFAD070479B
:1036C0002DE9F05F05460E46300109F06BF98146A1
:1036D000774905FB01F009F065F98246494609F092
:1036E00017F80746384609F025F984B2204609F054
:1036F00059F98346394609F09AFA82464FF08341D8
:1037000009F098F9814609F015F980464FF6FF70E7
:1037100000EA041404EB080084B26648806940F0B3
:103720000400644988610846806940F480408861EB
:103730006148006820F47F605F49086008460068BF
:1037400040F40B6008605C480830006840F00400FA
:103750005949083108605748C06840F480405549CD
:10376000C8600846C06820F48040C8604F480830F0
:103770000480001D008842F20C0108434B490C31C3
:1037800008800846008840F4807008800846008859
:1037900040F0200008800223252203210846FFF77D
:1037A0002FFEBDE8F09F2DE9F04F8BB043A004F051
:1037B00073FE454804F064FE07A808A909AB0AAAED
:1037C000CDE9001041A1404804F074FF079808F0CB
:1037D00005FF04460D46089808F000FF06460F4610
:1037E000099808F0FBFE804689460A9808F0F6FE24
:1037F000824652460B463AA0CDE90089CDE90267E0
:10380000CDE9044504F048FE0BB0BDE8F08F2E4929
:10381000394A1268885438490968491C364A116087
:1038200011460968C82901DB00211160704710B5F5
:103830001E48008810F0200F37D01C48001D00885B
:103840002E490870084604780A2C02D00D2C00D0AE
:103850001CB92BA004F020FE02E01448001D0480D7
:103860002848006810B12046FFF7D1FF26480078AD
:103870002D2804D1532C02D101202249086022486E
:1038800000782D280FD1452C0DD11E480068012845
:1038900009D100201B490860FFF7B9FFFFF783FF3C
:1038A0000020154908601848047010BD0038014018
:1038B00040420F0000100240040801400D0A207031
:1038C00061636B6574203A005C0100204125665FEE
:1038D0004625665F5025665F4F25662D4500000032
:1038E0000D0A204125665F4625665F5025665F4FBD
:1038F00025662D4500000000340000204000002017
:10390000200D0A003C000020380000201648806985
:1039100040F00400144988611448006820F00F004A
:10392000124908600846006840F0030008600F482C
:103930000830006840F480700C4908310860704716
:103940000B490968491C0A4A116081420AD1094998
:1039500009686FEA0101084AC2F8A0114FF000019E
:10396000034A116070470000001002400408014043
:1039700048000020A0012142000021423748806910
:1039800040F00400354988613548006820F07040F7
:10399000334908600846006840F00040086030483D
:1039A0000830006840F400402D4908310860704735
:1039B00001462C48006828B92B48007810B901202E
:1039C000294A107029480078B0B9274800780128A2
:1039D00007D127480078401C254A10700120234A4F
:1039E000107023480078022806D10020204A107069
:1039F000204A1080022070471A480068012804D12C
:103A00000020194A1070194A1070194800780128CE
:103A10000ED118480088401C80B2164A1080884297
:103A200006DD0020124A1070124A10800120E2E7E1
:103A30000020E0E71048007838B10A48006820B953
:103A400000200D49087001207047064800680128D1
:103A500001D1094908700020F6E70000001002407B
:103A6000040801403C0121424C0000204D00002090
:103A70004E000020500000205200002070B5054686
:103A80000C463548806940F400603349886133480A
:103A90000580001F048031482038008840F0010074
:103AA0002E49203908800846008840F040000880F0
:103AB0002A482C38008840F0010028492C39088019
:103AC0000223192203210120FFF79AFC70BD70B573
:103AD00004460D462048C06940F001001E49C861F7
:103AE0000846806940F0040088611D48006820F4A1
:103AF0007F401B4908600846006840F402400860A7
:103B0000C80484850585808B40F48070C90488834F
:103B10000846808B88830846808B88830846008C03
:103B200008840846008C40F4805008840846808948
:103B300040F0100088810846808940F001008881AB
:103B40000846008840F00100088001231C22032160
:103B50001846FFF755FC70BD001002402C2C0140A8
:103B6000000801402F48806940F008002D49886115
:103B70002D48006880B22C490860084600682B492F
:103B8000084329490860704700B503460A46FFF715
:103B9000E9FF2448C06940F004002249C861084692
:103BA000806940F0080088611F48001D006820F00F
:103BB000FF001D49091D08600846006840F0BB0071
:103BC00008601B480380001F0280194810380088D5
:103BD00040F4C0401649103908800846008840F07B
:103BE000600008800846008840F4006008800846AD
:103BF000008840F008000880081D008840F48050CC
:103C0000091D08800846008840F480700880C813A9
:103C100007492C3908800846008840F001000880D8
:103C200000BD000000100240000C014000002222F4
:103C30002C080040FE48806940F00800FC4988617B
:103C4000FC48006820F47F40FA4908600846006894
:103C500040F44C500860704710B5F648006820F4F6
:103C60007040F44908600846006840F4405008601D
:103C70000120F1490860F148D0F82C0108B9002072
:103C800010BD0120EE490860FFF768FB0020EB49FA
:103C9000C1F8AC01EB48006808B10020F0E7012052
:103CA000FFF75CFB0020E64908604FF00100E7E702
:103CB00010B5E048006820F47040DE49086008460E
:103CC000006840F4405008600020DD490860DB498E
:103CD000C1F8AC014FF00100FFF740FB0120D849CB
:103CE0000860D649C1F8AC01FFF738FB10BD10B52C
:103CF0000024D048006820F47040CE49086008468F
:103D0000006840F4004008600120CB490860FFF7DC
:103D100025FB0120C949C1F8A801FFF71FFB0AE0F4
:103D2000601CC4B2322C03DDFFF7C2FF002010BDBF
:103D30000120FFF713FBC34800680028F0D1C049F9
:103D400008604FF00100F2E710B50020BC490860A0
:103D5000B848006820F47040B6490860084600681A
:103D600040F4405008604FF00000B449C1F8AC0185
:103D70004FF00100FFF7F2FA0120B1490860FFF7A8
:103D8000EDFA0020AD49C1F8A80110BD10B5002022
:103D9000AB490860A748006820F47040A549086056
:103DA0000846006840F4405008604FF00100A34905
:103DB000C1F8AC01FFF7D2FA0120A1490860FFF772
:103DC000CDFA00209D49C1F8A80110BD70B5044688
:103DD0009848006820F470409649086008460068DA
:103DE00040F440500860002095490860054619E0FD
:103DF000E009914908604FEA44604FEA10644FF0CF
:103E00000100FFF7ABFA01208C49C1F8A801FFF7C8
:103E1000A5FA00208A4908604FF00100FFF79EFADA
:103E2000681CC5B2082DE3DB70BD2DE9F0410546E5
:103E30000E4617469846FFF70FFF10B90120BDE860
:103E4000F0816906080EFFF7C1FFFFF750FF18B9B0
:103E5000FFF72EFF0120F2E73046FFF7B7FFFFF72D
:103E600046FF00240BE018F80400FFF7AFFFFFF750
:103E70003EFF18B9FFF71CFF0020E0E7641CBC42BE
:103E8000F1DBFFF715FF0020D9E770B505460024E8
:103E90006848006820F47040664908600846006879
:103EA00040F400400860002616E0002064490860E5
:103EB0004FF00200FFF752FA01206049C1F8A80153
:103EC0006006040E5F48006808B1601CC4B202209E
:103ED000FFF744FA701CC6B2082EE6DB15B1FFF7F7
:103EE00033FF01E0FFF752FF204670BD2DE9F0419E
:103EF00006460F4614461D46FFF7AEFE10B90120D8
:103F0000BDE8F0817106080EFFF760FFFFF7EFFED6
:103F100018B9FFF7CDFE0120F2E73846FFF756FF4C
:103F2000FFF7E5FEFFF798FE012101EB4601C8B25D
:103F3000FFF74CFFFFF7DBFE0DE0012C04D1002062
:103F4000FFF7A3FF287003E00120FFF79EFF287012
:103F50006D1C601EC4B2002CEFD1FFF7A9FE00203B
:103F6000CEE770B505460E460024FFF775FE2846DD
:103F7000FFF72CFF641CFFF7BAFE3046FFF726FF61
:103F8000641CFFF7B4FEFFF767FE691CC8B2FFF7B9
:103F90001DFF641CFFF7ABFE0020FFF776FF044611
:103FA000FFF786FE204670BD2DE9F04107468846A2
:103FB00015461E460024FFF74FFE3846FFF706FF62
:103FC000FFF795FE4046FFF701FFFFF790FEFFF772
:103FD00043FE791CC8B2FFF7F9FEFFF788FE00BF69
:103FE0000DE0681EA04204D00120FFF74EFF3055BF
:103FF00003E00020FFF749FF3055601CC4B2AC421B
:10400000EFDBFFF755FE2046BDE8F0812DE9F041DA
:1040100080460D4616461F460024FFF71DFE40460B
:10402000FFF7D4FEFFF763FE2846FFF7CFFE0BE055
:1040300000100240040C0140AC812142008021426A
:10404000A88121422C812142FFF751FE00BF06E0EA
:10405000385DFFF7BBFEFFF74AFE601CC4B2B442F6
:10406000F6DBFFF725FE0120BDE8F08170B50546BF
:104070000E46144631462846FFF773FF2070012094
:1040800070BD37B504460D4602AB012229462046D5
:10409000FFF7BCFF3EBD2DE9F843074688461446AE
:1040A0001D46089E6A4641463846FFF7DFFF28B3A3
:1040B000601CFF2101FA00F0C4F108012944491EE7
:1040C000FF220A41104300F0FF09C5F1080006FA7B
:1040D00000F0C6B2C4F1070006419DF8000000EAF6
:1040E000090000909DF80000304300909DF80020EA
:1040F00041463846FFF7C5FFBDE8F8830020FBE7DF
:10410000F8B506460F4614461D466A4639463046FF
:10411000FFF7ACFF2DB10120A0409DF8001008432F
:1041200005E00120A0409DF8001021EA0000C0B287
:1041300000909DF8002039463046FFF7A2FFF8BDF9
:104140002DE9F05F05460E46300108F02BFC814654
:10415000C94905FB01F008F025FC8246494608F0F4
:10416000D7FA0746384608F0E5FB84B2204608F047
:1041700019FC8346394608F05AFD82464FF08341C8
:1041800008F058FC814608F0D5FB80464FF6FF70DA
:1041900000EA041404EB080084B2B848806940F0D7
:1041A0000400B64988610846C06940F40030C8611F
:1041B000B348006820F47F40B149086008460068B1
:1041C00040F40B400860AE480C30006840F004003A
:1041D000AB490C310860A948006940F40030A74998
:1041E00008610846006920F400300861A548048091
:1041F000001D008842F20C010843A249091D0880F5
:104200000846008840F4807008800846008840F026
:10421000200008800223262203210846FFF7F0F839
:10422000BDE8F09F97480838008810F0200F7AD03A
:104230009448001F00889449086008460078934914
:1042400008700846007892490978884212D18F4850
:1042500040788F49497888420CD18C4880788C49C5
:104260008978884206D100208A49087087490870F9
:10427000487088708548007887490978884213D14A
:10428000824840788449497888420DD17F488078B7
:1042900081498978884207D101207E490870002031
:1042A0007A4908704870887077480068592802D1A8
:1042B00002207A49087074480068582802D1012009
:1042C00076490870704800680A2865DD6E48006805
:1042D0005A2809D100207249087072490870724941
:1042E00008707249087057E06748006841280AD191
:1042F00001206B49087000206A4908706A490870FB
:104300006A49087048E06048006845280CD10020E0
:1043100063490870012063490870002062490870F1
:104320006249087038E0A5E057480068422807D085
:1043300055480068432803D05348006844280AD1F0
:1043400000205749087057490870574908700120E4
:104350005649087020E04C480068462807D04A4873
:104360000068472803D04848006848280BD100203F
:104370004B4908704B49087001204B4908700020D8
:104380004A49087008E0002045490870454908700E
:1043900045490870454908703B4800680A2862DAB8
:1043A0003948006848B900203D4908703D49087007
:1043B0003D4908703D49087055E0334800680128C0
:1043C00009D137490870002036490870364908700D
:1043D0003649087047E02C48006805280BD10020BA
:1043E0002F49087001202F49087000202E490870BD
:1043F0002E49087037E024480068022807D0224878
:104400000068032803D02048006804280AD100204F
:104410002349087023490870234908700120234963
:10442000087020E018480068062807D01648006881
:10443000072803D01448006808280BD10020184929
:1044400008701849087001201749087000201749A2
:10445000087008E0002012490870124908701249DB
:104460000870124908700948407808498870084661
:10447000007848707047000040420F000010024072
:1044800000080140084400405C000020600000205B
:1044900057000020020000205400002001000020EE
:1044A0000400002005000020060000200700002076
:1044B0000146002901DA484200E00846704700B58D
:1044C00003460A46002B08DA0120FE4908604FF037
:1044D0000000FD49C1F8940107E00020F949086097
:1044E0004FF00100F849C1F894011846FFF7E0FFCA
:1044F000F6490880002A08DD0120F54908604FF0E0
:104500000000F149C1F89C0107E00020F049086073
:104510004FF00100EC49C1F89C011046FFF7C8FFBD
:10452000EA49091D088000BD41F6BC30E949096827
:104530004242914202DA4142E64A1160E549096885
:10454000814201DDE3490860E34909684242914242
:1045500002DA4142E04A1160DF490968814201DD27
:10456000DD49086070472DE9F04F8FB006460F46D1
:10457000904699461C9807F0BAFC82460022D74B19
:1045800007F0F2FA42464B46CDE90201D448D5493C
:1045900007F0EAFACDE90001DDE9022307F00EFD9C
:1045A000CDE90401DDE9182307F022FACDE906017F
:1045B00007F042F932463B46CDE9080107F0FEFC20
:1045C000CDE90A01DDE91A2307F012FACDE90C0161
:1045D0000022C54BDDE90C0107F00AFA82460022F1
:1045E0004FF0804307F0C0FA04460D460022BE4B50
:1045F0002046294607F0E0FD02D20024BA4D08E02B
:10460000002213462046294607F09CFC01D20024D4
:1046100025460022B54B2046294607F0CFFC8246AE
:1046200007F036FC0FB0BDE8F08F10B53220FFF771
:10463000BFF90446012C04D1AD480078C043AC4911
:104640000870022C04D1AB480078C043A949087017
:1046500010BD2DE9F04F89B00646012E7ED04621CF
:10466000D020FFF77EFC80464521D020FFF779FC63
:1046700008EB0027384608F07DF904464821D02091
:10468000FFF76FFC80464721D020FFF76AFC08EB5C
:104690000027384608F06EF905463C21D020FFF788
:1046A00060FC80463B21D020FFF75BFC08EB002735
:1046B000384608F05FF982464021D020FFF751FCD0
:1046C00080463F21D020FFF74CFC08EB00273846FE
:1046D00008F050F983464FF08E41204608F076FAF4
:1046E00005D24FF08F41204608F0ACFA04464FF057
:1046F0008E41284608F06AFA05D24FF08F412846CD
:1047000008F0A0FA05464FF08E41504608F05EFAD8
:1047100005D24FF08F41504608F094FA82464FF090
:104720008E41584608F052FA05D24FF08F41584654
:1047300008F088FA834684F000406F4908605846C4
:1047400007F04CFFCDE90001504607F047FF074650
:10475000DDE9002306F044FF002200E038E0674B6B
:10476000CDE9020107F02AFC5D4A654BCDE9040161
:1047700007F0FAF9CDE9060107F008F9814620466D
:1047800007F02CFF4FF066325E4BCDE9060107F0D3
:10479000EBF9074607F0FAF804465B480078022870
:1047A00006D184F000473946484603F071F809E025
:1047B00055480078032805D184F00047394648461B
:1047C00003F07DF95148006851490860514805607F
:1047D00009B0BDE8F08F00B585B04F48008810F0F3
:1047E000010F4DD04C48008820F001004A49088054
:1047F0004A48007808B9012000E0002047490870C5
:1048000008460078012806D13F480078FFF721FFCD
:10481000002005B000BD3C480078FFF71AFF642077
:10482000FFF78EF8FFF701FF3D4800680A303C496A
:1048300008600846006800210291CDE9031000914C
:104840000A46294B084601913649FFF78CFE21495B
:1048500008603348006804900020029003900090A4
:104860000246214B2F490190FFF77DFE1A4908604F
:10487000FFF75AFE1848016816480068FFF71FFE48
:104880000020C6E72DE9F84F05460C46264E4FF0AE
:104890007C577103284608F0D5F900903946204628
:1048A00008F0C8F882463046009908F0C3F88346FD
:1048B000514607F0BFFE814608F020F8804640468A
:1048C000BDE8F88F90812142008021423C080040E1
:1048D00098812142100000201400002000408F40E9
:1048E000F1D4C853FB2119400000F03F0020BC4028
:1048F0000200002003000020240000200080664009
:10490000FB2109406666304000000020F8000020CE
:104910002000002028000020102C0140A0000020D2
:10492000680000200000E03F0000FA4370B5054633
:104930000E46B549284608F049F808D3B349284639
:1049400008F044F903D3B248007801280CD10124BF
:104950000020B0490860B049C1F89001AF49086033
:10496000AD49C1F89C0100E00024204670BD2DE94E
:10497000FC5FAB480190AB480090AB480078012841
:104980000AD1AA4800785A2191FBF0F4204607F09A
:10499000F1FFA749086012E0A648007801280BD172
:1049A000A24800786FF0590191FBF0F4204607F01F
:1049B000E1FF9F49086002E000209D4908609E4990
:1049C00009689E4A12681144084607F0D3FF9C49C3
:1049D00008609C48006807F001FE06464FF066320A
:1049E000994B07F0EBFA044606F0D0FF95490860B2
:1049F0009348006807F0F2FD80464FF03332934B46
:104A000007F0DCFA04460D468E48006807F0E6FD24
:104A1000064622462B4606F0EBFF824606F0B6FF1E
:104A200088490860084601688948006807F002FE66
:104A3000874908607E4801688548006808F002F9E7
:104A40008349086083498248006808F0BFF802D2B1
:104A500080487F49086080497D48006807F0B6FFBC
:104A600002D27D487A49086079480099006807F0C9
:104A7000E1FF044673480199006807F0DBFF054633
:104A8000214607F0D7FD75490860754801687548EB
:104A90000068FFF74BFF012802D100206C49086035
:104AA0006E48006807F02AFFBDE8FC9F2DE9F84F2B
:104AB00005460E4691465D480078582191FBF0F777
:104AC000384607F057FF0446DFF89CA14FF0000B73
:104AD00066480078012803D065480078012834D161
:104AE0004FF07E516348006807F0A4FD6149074616
:104AF00008604FF07E5107F0CDFE07D1A819FFF7EF
:104B0000D7FC074607F036FF5B4908605A48016842
:104B10005A4807F0FDFD5A4908600846006807F04A
:104B20005DFD07464FF03332564B07F00BFA02D2C9
:104B300055485349086055495148006808F046F8FF
:104B40000BD252484E49086007E051484C49086072
:104B50000020484908604849086044480078012816
:104B600008D1474801684B48006808F06BF849498C
:104B700008600FE03E480078012808D140480168ED
:104B80004448006807F056FD4249086002E00020F2
:104B90004049086021463F48006808F017F801D2F4
:104BA0003C48046084F000473A480168384608F001
:104BB0000DF803D284F00040364908601A480078A6
:104BC000012803D01B480078012802D14FF07E5BFA
:104BD00001E04FF0000B5946484607F02BFF0090CC
:104BE0002C48006880F000485146404607F022FFFC
:104BF0000746009908F026F827490860084600682B
:104C000007F07CFEBDE8F88F000020C200002042C3
:104C1000020000209481214200802142988121429B
:104C20000000A042CDCCCC3E0400002001000020BA
:104C30007800002005000020080000200C00002063
:104C400070000020740000206666E63F3333D33FD7
:104C50007C00002000401C4600401CC66C00002068
:104C60001C00002020000020000028420600002038
:104C7000070000209000002088000020000048422B
:104C80008C0000203333E33F9A99193F00004040E5
:104C90006666663F800000208400002038B5044628
:104CA000FB4890F82400C0B114B10220009001E04C
:104CB00000200090F64A1268D17BF54A52681078BD
:104CC0006B460122FFF7B1F810B14FF0FF3038BD4D
:104CD0009DF80010EE48417423E0ED48807A10B949
:104CE0004FF0FF30F3E724B1E948407C08B10020E1
:104CF000EDE714B10120009001E000200090E44AAB
:104D00001268D17BE24A526810786B460122FFF7A5
:104D10008CF810B14FF0FF30D9E79DF80010DC4857
:104D200041740020D3E738B5002419E0D848006862
:104D3000C07AA04204D0D6480068407DA04200D18D
:104D40000CE0D349496808786B4601222146FFF7F9
:104D5000CDF810B14FF0FF3038BD00BF601CC4B2B9
:104D6000CB4840680079A042E0DC0020F4E770B551
:104D700004460D46C6480068C07AA04204D0C44824
:104D80000068407DA04202D14FF0FF3070BDC048A6
:104D900040680079A04202DC4FF0FF30F6E7BC49E2
:104DA000496808782B4601222146FFF79FF8EDE776
:104DB00038B50446B64890F82300A04201D100203F
:104DC00038BD14B13020009001E000200090B048C0
:104DD000807C20B19DF8000040F002000090AC48BB
:104DE00090F8220020B19DF8000040F08000009073
:104DF000A74A1268117DA64A526810786B460122B4
:104E0000FFF713F810B14FF0FF30D9E7A04880F852
:104E100023400020D4E738B5044614F0700F02D0C8
:104E20000120009005E014B10020009001E0402036
:104E30000090974A1268917C954A526810786B46A8
:104E40000122FEF7F2FF20B1002191488172481E35
:104E500038BD9DF8000020F040018D48017300200E
:104E6000009014F0400F04D19DF8000040F00400C1
:104E7000009014F0200F04D19DF8000040F00200D3
:104E8000009014F0100F04D19DF8000040F00100D4
:104E9000009014F0080F04D19DF8000040F0380095
:104EA00000907B4A1268D17C794A526810786B4630
:104EB0000122FEF7BAFF20B1002175488172481E19
:104EC000C6E724B1082C02D00020FFF771FF70481C
:104ED0008472002101753220FEF75BFA0020B7E7EB
:104EE00038B504466A48807CA04201D1002038BD14
:104EF000002C46D0664A12681179654A52681078CB
:104F00006B460122FEF7F2FF10B14FF0FF30EEE7E3
:104F10009DF8000020F0200000905D4A1268117991
:104F20005B4A526810786B460122FEF77EFF10B193
:104F30004FF0FF30DBE70320FEF72BFA0220009052
:104F4000534890F8220020B19DF8000040F0800006
:104F500000904F4890F8230020B19DF8000040F0E9
:104F6000300000904A4A1268117D494A5268107810
:104F70006B460122FEF759FF002851D04FF0FF3059
:104F8000B5E7434A12681179414A526810786B4676
:104F90000122FEF7ABFF10B14FF0FF30A7E73C480E
:104FA000807A10F0010F05D09DF8000040F020003D
:104FB000009004E09DF8000020F020000090344AAA
:104FC00012681179324A526810786B460122FEF756
:104FD0002CFF10B14FF0FF3089E70320FEF7D9F91D
:104FE0002B4890F8220010B18020009001E00020B2
:104FF0000090274890F8230020B19DF8000040F071
:1050000030000090224A1268117D214A52681078BF
:105010006B460122FEF709FF10B14FF0FF3066E743
:105020001B488474002062E708B51948807A10B9DB
:105030004FF0FF3008BD00200090154A1268D17B68
:10504000134A526810786B460122FEF7EEFE10B14B
:105050004FF0FF30EEE70E4A126851790C4A526861
:1050600010786B460122FEF7E0FE10B14FF0FF30E2
:10507000E0E7074A12681179054A526810786B46D2
:105080000122FEF7D2FE28B14FF0FF30D2E7000038
:10509000A4000020F74890F82400002850D00C20ED
:1050A0000090F44A12681179F24A526810786B46FF
:1050B0000122FEF7BAFE10B14FF0FF30BAE7C02070
:1050C0000090EC48807A10F0010F04D09DF80000A9
:1050D00040F020000090E74A12681179E54A5268D2
:1050E00010786B460122FEF7A0FE10B14FF0FF30A2
:1050F000A0E7E048407C10B10220009001E00020D1
:105100000090DC4A1268D17BDA4A526810786B460C
:105110000122FEF78AFE10B14FF0FF308AE700202F
:105120000090D44A12685179D24A526810786B467E
:105130000122FEF77AFE002852D04FF0FF3079E7C7
:1051400004200090CB4A12681179CA4A526810783C
:105150006B460122FEF769FE10B14FF0FF3069E7A0
:10516000C448807C20B9C348807A10F0010F02D176
:105170004020009001E060200090BE4A1268117942
:10518000BC4A526810786B460122FEF74EFE10B101
:105190004FF0FF304EE7B748407C10B1012000903F
:1051A00001E000200090B34A1268D17BB14A5268F6
:1051B00010786B460122FEF738FE10B14FF0FF3039
:1051C00038E7AC4A12685179AA4A52681078A94B5C
:1051D00010330122FEF729FE10B14FF0FF3029E70E
:1051E000002027E770B50446002624F00104A148FA
:1051F00090F8240008B1002070BD9E48807A10B954
:105200004FF0FF30F8E79B48057C807A20409949B1
:1052100008740846007CA04202D04FF0FF3600E040
:10522000002614B99348007D18B10120FFF736FD20
:1052300002E00020FFF732FD3CB1FFF7F5FE20B1A0
:105240008C4805744FF0FF30D6E73046D4E738B5C8
:1052500004468848807A10B94FF0FF3038BDBC2C26
:1052600002DB0120009015E0622C02DB022000909E
:1052700010E02A2C02DB032000900BE0142C02DB50
:105280000420009006E00A2C02DB0520009001E0DB
:10529000062000907748C07A9DF80010884201D11E
:1052A0000020DBE7734A12689178724A52681078DE
:1052B0006B460122FEF7B9FD10B14FF0FF30CDE78C
:1052C0009DF800106B48C1720020C7E738B504464E
:1052D000282C02DD4FF0FF3038BDDCB90020FFF78D
:1052E00067FD00208DF8000007208DF80100614A5D
:1052F0001268917C5F4A526810786B460222FEF772
:1053000094FD10B14FF0FF30E6E7002159480175D8
:105310000020E1E70120FFF74BFD20208DF8000081
:10532000012C06D100208DF801000520FFF78FFF2A
:1053300017E0052C06DC01208DF801000520FFF7A1
:1053400086FF0EE0142C06DC02208DF801000A20F6
:10535000FFF77DFF05E003208DF801001420FFF723
:1053600076FF9DF80100072101EB8010C0B28DF897
:105370000100404A1268917C3E4A526810786B46A0
:105380000222FEF752FD10B14FF0FF30A4E70821D2
:105390003848817200210173012101750020FFF757
:1053A00021FF002098E738B504463248807A10B9CA
:1053B0004FF0FF3038BD2F4890F8240010B14FF067
:1053C000FF30F7E72B48007D50B134B1282C04DCC6
:1053D000E0B2FFF77BFF0020ECE70020FFF776FF4D
:1053E000042C01DA042404E0B4F57A7F01DD4FF4E3
:1053F0007A744FF47A7090FBF4F0401EC0B20090C3
:105400001C4A126851781B4A526810786B46012278
:10541000FEF70BFD10B14FF0FF30CBE79DF8000019
:10542000401C4FF47A7191FBF0F081B21148C181B8
:105430000146C9894810FFF70AFF0020BAE738B5CE
:1054400004460C48807A10B94FF0FF3038BD022C6A
:1054500006D0042C07D0082C08D0102C0FD10BE05C
:10546000002000900EE0082000900BE0102000903B
:1054700008E00000A40000201820009002E04FF097
:10548000FF30E3E700BFF948407A9DF80010B0EB29
:10549000E10F01D10020D9E7F44A1268D179F34A2B
:1054A000526810786B460122FEF7BFFC10B14FF036
:1054B000FF30CBE79DF80000C110EC48417200209E
:1054C000C4E738B50446E948807A10B94FF0FF3098
:1054D00038BDFA2C09D0B4F5FA7F09D0B4F57A7F3B
:1054E00009D0B4F5FA6F0CD108E0002000900BE071
:1054F0000820009008E01020009005E0182000909F
:1055000002E04FF0FF30E3E700BFD848007A9DF893
:105510000010B0EBE10F01D10020D9E7D34A1268A7
:105520009179D24A526810786B460122FEF77DFCD1
:1055300010B14FF0FF30CBE79DF80000C010CB4911
:1055400008720020C4E71CB580208DF80000C74A0F
:105550001268917CC54A526810786B460122FEF7AA
:1055600064FC10B14FF0FF301CBD6420FDF711FF4B
:1055700000208DF80000BD4A1268917CBB4A526839
:1055800010786B460122FEF750FC10B14FF0FF304F
:10559000EAE7B64A1268917DB44A526810786B46C1
:1055A0000622FEF7A3FC10B14FF0FF30DCE79DF8B8
:1055B0000500C007400F9DF8031001F0010140EA0B
:1055C00041009DF8011001F0010140EA010494B18D
:1055D000012C03D10121A548C17431E0022C03D173
:1055E0000021A248C1742BE02146A1A002F054FF83
:1055F0004FF0FF30B8E79D4A1268D1789B4A526855
:1056000010786B460122FEF771FC10B14FF0FF30AD
:10561000AAE79DF8000000F00F042CB99E4802F0A4
:105620003BFF4FF0FF309FE7042C06D19BA002F018
:1056300033FF01218D48C17402E000218B48C17401
:10564000FF218A488172FF2088490872FF2187481C
:105650004172C1724FF6FF71C181FF2101748174E3
:105660000121017380F82210002180F82310417578
:1056700001751630016041608160163880F8241091
:1056800080F82510C1844FF4FA60FFF71AFF10B1BB
:105690004FF0FF3068E70220FFF7D1FE10B14FF066
:1056A000FF3061E72A20FFF7D2FD10B14FF0FF3045
:1056B0005AE73220FFF777FE10B14FF0FF3053E783
:1056C0000020FFF78FFD10B14FF0FF304CE70020B6
:1056D000FFF706FC10B14FF0FF3045E70020FFF761
:1056E0009AFB002040E770477CB504460D465F48B2
:1056F000807A10F0700F02D14FF0FF307CBD5B4A12
:105700001268117B594A526810786B460622FEF7E0
:10571000EDFB10B14FF0FF30F0E79DF801009DF870
:10572000001040EA012000B220809DF803009DF89F
:10573000021040EA012000B260809DF805009DF84B
:10574000041040EA012000B2A08015B12846FFF7FE
:10575000CAFF0020D2E77CB504460D464348807A54
:1057600010F0080F02D14FF0FF307CBD3F4A1268A5
:10577000517B3E4A526810786B460622FEF7B6FB14
:1057800010B14FF0FF30F0E79DF801009DF80010D8
:1057900040EA012000B220809DF803009DF802102D
:1057A00040EA012000B260809DF805009DF80410D9
:1057B00040EA012000B2A08015B12846FFF793FF10
:1057C0000020D2E72DE9FE4F05460C462748807A97
:1057D00018B94FF0FF30BDE8FE8F244A1268917B64
:1057E000224A5268107802AB0222FEF77FFB10B10A
:1057F0004FF0FF30EFE79DF809009DF8081040EAF0
:10580000012006B214B12046FFF76DFF1749496821
:10581000C88807F0C7F8154901904968B1F9080030
:1058200007F0A8F88346304607F0A4F859460090E0
:1058300007F008FA8246019906F06AFF81461F497F
:1058400006F0F8FE80464FF08F4107F0F3F8074668
:1058500007F054F828600020BDE710B588B0044672
:105860001CB94FF0FF3008B010BD29E0A4000020A3
:10587000556E737570706F7274656420736F6674A3
:10588000776172652070726F6475637420726576DB
:105890002025642E0A00000080CE000848616C6656
:1058A0002073656E736974697669747920706172AA
:1058B0007420666F756E642E0D0A000000000C42A5
:1058C000206830B9606820B9A06810B9002008B01D
:1058D00010BDFA494968087806AB03221146FEF765
:1058E00005FB10B14FF0FF30F1E79DF818000821DB
:1058F00001EB201000F00F00ADF800009DF819003A
:1059000001EB201000F00F00ADF802009DF81A0026
:1059100001EB201000F00F00ADF8040020684100FA
:10592000BDF90000403091FBF0F000B2ADF810007E
:1059300060684100BDF90200403091FBF0F000B218
:10594000ADF81200A0684100BDF90400403091FBA1
:10595000F0F000B2ADF81400D8494968087806ABF9
:1059600006221146FEF7C2FA10B14FF0FF30AEE743
:105970009DF819009DF8181040EA012000B2ADF81A
:1059800008009DF81B009DF81A1040EA012000B2A3
:10599000ADF80A009DF81D009DF81C1040EA01209A
:1059A00000B2ADF80C00BDF81000BDF808100844B6
:1059B00000B2ADF81000BDF81200BDF80A1008449E
:1059C00000B2ADF81200BDF81400BDF80C10084488
:1059D00000B2ADF81400BDF81000000A8DF81800F0
:1059E000BDF81000C0B28DF81900BDF81200000A11
:1059F0008DF81A00BDF81200C0B28DF81B00BDF87A
:105A00001400000A8DF81C00BDF81400C0B28DF817
:105A10001D00AA494968087806AB06221146FEF720
:105A200004FA10B14FF0FF3051E700204FE7014674
:105A3000A248007A30B1012807D0022809D00328F3
:105A40000FD10AE0FA2008800EE04FF4FA700880C7
:105A50000AE04FF47A70088006E04FF4FA6008809C
:105A600002E00020088000BF00BF00207047014610
:105A70009248407A30B1012807D0022808D0032884
:105A80000CD108E0022008700BE00420087008E048
:105A90000820087005E01020087002E04FF0FF3089
:105AA000704700BF8548C07C18B108784006000EDA
:105AB00008700020F4E701468048C07A082817D211
:105AC000DFE800F01704070A0D101318BC20088047
:105AD00013E06220088010E02A2008800DE01420E6
:105AE00008800AE00A20088007E00520088004E01A
:105AF00000BF00BF0020088000BF00BF002070472B
:105B000001466E4890F8240010B14FF0FF30704706
:105B10006A48C08908800020F9E701460020088013
:105B2000401E704701464FF0FF3070470146634802
:105B3000007A30B1012807D0022808D003280CD100
:105B400008E05F4808600BE05E48086008E05E48D7
:105B5000086005E05D48086002E04FF0FF307047E4
:105B600000BF0020FBE701465448407A30B10128CD
:105B700008D002280AD0032810D10BE04FF480404F
:105B800008800EE041F69C7008800AE04FF48050D7
:105B9000088006E04FF40060088002E04FF0FF301C
:105BA000704700BF4548C07C10B10888401008808D
:105BB0000020F5E701464148007C0870002070474E
:105BC00001463E48807A10B10120087001E00020B3
:105BD00008700020704738B504463848807A10B9FC
:105BE0004FF0FF3038BD354A1268117C334A526895
:105BF00010786B460222FEF779F910B14FF0FF30B2
:105C0000F0E79DF801009DF8001040EA012000B285
:105C100020800020E6E72DE9FE4F074688469246A1
:105C20001D46DDF830B000260024244890F82400FA
:105C300010B1601EBDE8FE8F002028701F48807ADA
:105C400010B94FF0FF30F5E71C48007C10B94FF059
:105C5000FF30EFE71948007C10F0400F01D0B01C76
:105C6000C6B21648007C10F0200F01D0B01CC6B29E
:105C70001248007C10F0100F01D0B01CC6B20F48C3
:105C8000007C10F0080F01D0B01DC6B20B4A12689C
:105C9000917A0A4A526810786B460222FEF726F97A
:105CA00010B14FF0FF30C5E79DF801009DF80010DE
:105CB00040EA0129B1450BDA0020BBE7A40000202F
:105CC00000000343000083423333034233338341F4
:105CD000FA4840684088B9EB600F17DDF74A126850
:105CE000517CF64A526810786B460122FEF7FEF8A6
:105CF00010B14FF0FF309DE79DF8000010F0100F3D
:105D000004D0FFF791F96FF0010093E75046FFF7D9
:105D1000EAFCEA4A1268D17AE84A526810786B467F
:105D20003246FEF7E3F810B14FF0FF3082E799FBFF
:105D3000F6F0401E8BF8000000202870B4422AD0F4
:105D4000DE48007C10F0080F25D0601C1DF8000014
:105D50001DF8041040EA012000B2A8F80000E01C81
:105D60001DF80010A01C1DF8000041EA002000B240
:105D7000A8F80200601D1DF80010201D1DF800008D
:105D800041EA002000B2A8F80400287840F008009A
:105D90002870A01D84B2B44213D0C848007C10F013
:105DA000400F0ED0601C1DF800001DF8041040EAE2
:105DB000012000B23880287840F040002870A01CF4
:105DC00084B2B44213D0BD48007C10F0200F0ED036
:105DD000601C1DF800001DF8041040EA012000B20C
:105DE0007880287840F020002870A01C84B2B4424B
:105DF00013D0B248007C10F0100F0ED0601C1DF8BC
:105E000000001DF8041040EA012000B2B880287894
:105E100040F010002870A01C84B200200AE7F8B5FA
:105E200004460F461646A54890F8240010B94FF0D6
:105E3000FF30F8BDA148807A10B94FF0FF30F8E785
:105E40009E4A1268917A9D4A526810786B460222E7
:105E5000FEF74CF810B14FF0FF30EAE79DF8010073
:105E60009DF8001040EA0125A54203DA00203070B9
:105E7000401EDEE7914840684088B5EB600F17DDB3
:105E80008E4A1268517C8D4A526810786B46012206
:105E9000FEF72CF810B14FF0FF30CAE79DF8000074
:105EA00010F0100F04D0FFF7BFF86FF00100C0E74B
:105EB000E2B2824B1B68D97A804B5B6818783B460C
:105EC000FEF714F810B14FF0FF30B2E795FBF4F095
:105ED000401E30700020ACE70146784880F8221060
:105EE000002070477CB5054674494968087801ABC5
:105EF00004220D21FDF7FAFF08B107207CBD9DF8B3
:105F00000700C0F301109DF8041001F0E00140EA21
:105F1000E1008DF800009DF80700C0F381009DF8B6
:105F2000051001F0E00140EAE1008DF801009DF864
:105F3000070000F003009DF8061001F0E00140EAC0
:105F4000E1008DF8020000241CE01DF8040018B9DF
:105F5000002045F8240013E0594845F8240006E0E5
:105F600055F82400574906F065FD45F824001DF852
:105F70000400401E10F0FF000DF80400F0D100BF37
:105F8000601CC4B2032CE0DB0020B7E72DE9FE4F14
:105F900006460F4600256846FFF7A4FF002440E0B0
:105FA00056F8240057F82410B0EB010A01D45146EA
:105FB00001E0CAF10001084606F0DCFC83464FF020
:105FC0008F4106F0A5FB80465DF82400002106F015
:105FD00061FC16D05DF82410404606F099FB82461D
:105FE0004FF07E5106F02EFE814629F0004A3648D9
:105FF000416A504606F0EAFD12D20120A040054356
:106000000EE03148C169404606F0E0FC05D32E4859
:10601000016A404606F0DAFD02D20120A0400543A5
:10602000641C032CBCDB2846BDE8FE8F2DE9FC5F19
:1060300006460F46002521494968087801AB03222E
:106040000D21FDF753FF10B10720BDE8FC9F9DF81F
:10605000040000F01F008DF804009DF8050000F01A
:106060001F008DF805009DF8060000F01F008DF858
:106070000600002460E056F8240057F82410B0EB26
:10608000010B01D4594601E0CBF10001084606F0AE
:1060900071FC4FF08F41009006F03AFB814601A859
:1060A000005DC0B30849086806F07CFC8346594689
:1060B000064806F02DFB80460FE00000A4000020FB
:1060C0007B14AE3E1D5A843F58CE000800B04C45AC
:1060D000FE49404606F0AEFC804601A8005D401E29
:1060E00010F0FF0001A90855F2D14146484606F0DC
:1060F0000FFB83464FF07E5106F0A4FD82462AF046
:10610000004BF3488169584606F060FD13D2012028
:10611000A04005430FE0FFE7ED480169484606F05F
:1061200055FC05D3EA484169484606F04FFD02D2C6
:106130000120A0400543641C032C9CDB284684E717
:106140002DE9F04F87B005460C46914601208DF8A9
:10615000100000208DF81100DE4A1268917CDD4AA3
:106160005268107804AB0222FDF75FFE20B14FF0B9
:10617000FF3007B0BDE8F08FC820FDF70AF9002016
:106180008DF81000D34A1268D17BD24A5268107839
:1061900004AB0122FDF749FE10B14FF0FF30E8E7F4
:1061A000CC4A12685179CB4A5268107804AB01226C
:1061B000FDF73BFE10B14FF0FF30DAE7C54A126839
:1061C000917CC44A5268107804AB0122FDF72DFE81
:1061D00010B14FF0FF30CCE7BE4A1268D17DBD4A06
:1061E0005268107804AB0122FDF71FFE10B14FF08A
:1061F000FF30BEE7B74A12681179B64A5268107884
:1062000004AB0122FDF711FE10B14FF0FF30B0E7F3
:106210000C208DF81000AF4A12681179AD4A52680F
:10622000107804AB0122FDF700FE10B14FF0FF30F3
:106230009FE70F20FDF7ADF8A648806A407A8DF8F9
:106240001000A44A12689178A24A5268107804ABF0
:106250000122FDF7EAFD10B14FF0FF3089E79D48BC
:10626000806A007A8DF810009A4A12685178994A2B
:106270005268107804AB0122FDF7D7FD10B14FF042
:10628000FF3076E7B9F1000F07D09248806A807A34
:1062900040F0E0008DF8100004E08E48806A807ABB
:1062A0008DF810008B4A126891798A4A52681078EA
:1062B00004AB0122FDF7B9FD10B14FF0FF3058E7F4
:1062C000B9F1000F07D08348806AC07A40F0E0003F
:1062D0008DF8100003E07E48C07A8DF810007D4AEA
:1062E0001268D1797B4A5268107804AB0122FDF71D
:1062F0009CFD10B14FF0FF303BE7B9F1000F02D029
:10630000C820FDF746F840208DF81000714A126849
:106310001179704A5268107804AB0122FDF785FDAF
:1063200010B14FF0FF3024E778208DF81000694A53
:1063300012685179674A5268107804AB0122FDF760
:1063400074FD10B14FF0FF3013E761498889FDF704
:1063500020F800208DF810005E4A126851795D4ADD
:106360005268107804AB0122FDF75FFD10B14FF0C9
:10637000FF30FEE6574A1268917A564A5268107802
:1063800004AB0222FDF7B2FD10B14FF0FF30F0E692
:106390009DF811009DF8101040EA012B0C209BFB8A
:1063A000F0F0C6B20020A86068602860A06060605D
:1063B0002060824665E0474A1268D17A454A5268B1
:1063C000107804AB0C22FDF791FD10B14FF0FF30B7
:1063D000CFE69DF811009DF8101040EA012000B2B0
:1063E000ADF808009DF813009DF8121040EA012056
:1063F00000B2ADF80A009DF815009DF8141040EAAF
:10640000012000B2ADF80C00BDF908102068084466
:106410002060BDF90A10606808446060BDF90C1086
:10642000A0680844A0609DF817009DF8161040EA87
:10643000012000B2ADF800009DF819009DF8181079
:1064400040EA012000B2ADF802009DF81B009DF863
:106450001A1040EA012000B2ADF80400BDF90010A6
:10646000286808442860BDF902106868084468601C
:10647000BDF90410A8680844A8600AF1010000F002
:10648000FF0AB24597DB1248D0F800C02868C11750
:10649000090441EA1041070462460023384601F02E
:1064A000CAFF32460023CDE9020101F0C4FF286093
:1064B0000748D0F800C06868C117090441EA1041D4
:1064C000070462460023384606E0000054E3853F97
:1064D00058CE0008A400002001F0ADFF3246002392
:1064E000CDE9020101F0A7FF6860FE48D0F800C0C6
:1064F000A868C117090441EA104107046246002355
:10650000384601F098FF32460023CDE9020101F040
:1065100092FFA860F348D0F804C02168C8170004AF
:1065200040EA11480F04624600233846414601F014
:1065300082FF32460023CDE9020101F07CFF20609A
:10654000E848D0F804C06068C117090441EA104166
:10655000070462460023384601F06DFF32460023EF
:10656000CDE9020101F067FF6060DE48D0F804C0A9
:10657000A068C117090441EA1041070462460023DC
:10658000384601F058FF32460023CDE9020101F000
:1065900052FFA060A068002804DDA068A0F580304C
:1065A000A06003E0A06800F58030A0600020E0E576
:1065B00038B50446CC4890F82400A04201D1002010
:1065C00038BD24B3C84890F8250010B94FF0FF300B
:1065D000F6E70020FEF762FB0020FEF781FCC249CF
:1065E000C88CFEF7E0FE00200090BF49496808789B
:1065F0006B4601222321FDF718FC0121BA4880F8DF
:1066000024100120FEF74AFBFEF70EFD13E00020E8
:10661000FEF744FBB448007C0090B3494968087811
:106620006B4601222321FDF700FC0021AE4880F8D3
:106630002410FEF7F9FC0020C2E72DE9F04F8DB0E1
:1066400083460F4602200C90A74890F8240020B102
:106650000020FFF7ADFF012600E0002603A8FFF7AA
:10666000E6F905A8FFF703FA01A8FFF724FA02A844
:10667000FFF746FA9C4890F80AA004A8FFF79AFA98
:10668000002407E0002239465846FFF759FD00B9BB
:1066900002E0641C022CF5DB00BF022C01D10025B6
:1066A00028E0002407E0012206A909A8FFF748FD19
:1066B00000B902E0641C022CF5DB00BF022C01D102
:1066C000002517E006A93846FFF760FC00F0FF0838
:1066D00009A95846FFF7AAFC00F0FF090025B9F107
:1066E000000F01D145F00105B8F1000F01D145F0CF
:1066F000020500BFFF207C490872FF217A484172E1
:10670000C1724FF6FF71C181FF21817201740121B5
:106710000173BDF80C00FEF7D4FE9DF81400FEF7DF
:106720008EFEBDF80400FEF792FDBDF80800FEF7EE
:106730003AFE5046FEF76FFB9DF81000FEF752FD43
:1067400016B10120FFF734FF28460DB0BDE8F08FE9
:10675000F8B504460D46164616B94FF0FF30F8BDA1
:106760006148807A10B94FF0FF30F8E720128DF8B9
:106770000000E0B28DF801009DF8010028445A495C
:1067800049684989884202DD4FF0FF30E7E7564A01
:106790001268117E544A526810786B460222FDF747
:1067A00044FB10B14FF0FF30D9E7EAB24E4B1B6803
:1067B000597D4D4B5B6818783346FDF736FB10B1B9
:1067C0004FF0FF30CBE70020C9E7F8B504460D468F
:1067D000164616B94FF0FF30F8BD4348807A10B91D
:1067E0004FF0FF30F8E720128DF80000E0B28DF88E
:1067F00001009DF8010028443B49496849898842C5
:1068000002DD4FF0FF30E7E7374A1268117E364A63
:10681000526810786B460222FDF707FB10B14FF06B
:10682000FF30D9E7EAB2304B1B68597D2E4B5B68CD
:1068300018783346FDF75AFB10B14FF0FF30CBE725
:106840000020C9E72DE9F04385B005460E46904685
:106850009946254890F8250020B14FF0FF3005B04B
:10686000BDE8F08316B94FF0FF30F8E7002423E0CD
:10687000281B102801DD102000E0281B87B23219E8
:1068800039462046FFF764FF10B14FF0FF30E6E7CE
:1068900001AA39462046FFF798FF10B14FF0FF30AC
:1068A000DDE730193A4601A901F022FF10B16FF07F
:1068B0000100D4E7E01984B2AC42D9DB4FEA2820CA
:1068C0008DF8000008F0FF008DF80100064A1268FC
:1068D000917E054A526810786B460222FDF7A5FAB0
:1068E00038B103E058CE0008A40000204FF0FF307C
:1068F000B5E701218A4880F82510A0F826900020ED
:10690000ADE70146864890F82400087000207047E3
:1069100002464FF0FF30704701464FF0FF3070479E
:10692000F8B505460F461446002C70D0B5F5FF5F4C
:1069300001DDFF2605E0202D01DA012601E0C5F387
:10694000471607B90127282C02DD4FF0FF30F8BDAC
:106950007348407D28BB724890F8240038B100206D
:10696000FFF726FE01216E4880F8201003E0002189
:106970006B4880F820106A481630FFF758F86848CE
:106980001830FFF774F866481A30FFF794F8644837
:106990001C30FFF7B5F86248817A81771F30FFF726
:1069A00009F90020FEF77AF90020FEF78FFC00209D
:1069B0008DF800005A4A12689178594A5268107846
:1069C0006B460122FDF731FA10B14FF0FF30BEE700
:1069D00040208DF80000524A1268D17B504A52681C
:1069E00010786B460122FDF720FA00B165E08DF8C2
:1069F00000608DF801704A4A1268117A484A52685C
:106A000010786B460222FDF710FA08B155E047E016
:106A10000520FCF7BEFC4248407A072101EBC0008C
:106A2000C0B28DF800003E4A1268D1793C4A5268E3
:106A300010786B460122FDF7F8F900B13DE0202007
:106A40008DF80000012C03D100208DF801000EE02C
:106A5000052C03DC01208DF8010008E0142C03DC78
:106A600002208DF8010002E003208DF801009DF85E
:106A70000100072101EB8010C0B28DF80100284A07
:106A80001268917C264A526810786B460222FDF704
:106A9000CCF900B111E0012121484175002056E7F1
:106AA0001F4A1632002103E0505C00B105E0491C8A
:106AB0000C29F9D34FF0FF3049E7FF20184908723D
:106AC000FF2117484172C1724FF6FF71C181FF214A
:106AD00081720174012101730146887FFEF79BF9E1
:106AE0000F49C88AFEF7EDFC0D49087EFEF7A7FCAA
:106AF0000B49488BFEF7ABFB0949888BFEF753FC2B
:106B00000749C87FFEF76EFB054890F8200010B1DA
:106B10000120FFF74DFD002101484175002016E7D7
:106B2000A400002010B5C8234FF48062F74940F656
:106B3000F630FFF787FE10BD10B586B00446F4A00E
:106B400000680390F3A000680290F3A00068019031
:106B5000F2A00068009004F0030003A9085C8DF81F
:106B6000140003A8C4F3C101405C8DF8150003A80C
:106B7000C4F38111405C8DF8160004F0030002A9F3
:106B8000085C8DF8100002A8C4F3C101405C8DF8C8
:106B9000110002A8C4F38111405C8DF8120005AA0F
:106BA000032140F22640FFF7D3FD18B14FF0FF302C
:106BB00006B010BD04AA032140F22A40FFF7C8FD29
:106BC00010B14FF0FF30F3E7019805900098049062
:106BD00014F0040F0BD09DF8140040F001008DF864
:106BE00014009DF8100040F001008DF8100014F022
:106BF000200F0BD09DF8150040F001008DF8150016
:106C00009DF8110040F001008DF8110014F4807F10
:106C10000BD09DF8160040F001008DF816009DF88D
:106C2000120040F001008DF8120005AA03214FF474
:106C30008860FFF78DFD10B14FF0FF30B8E704AA70
:106C4000032140F23140FFF783FD10B14FF0FF30D8
:106C5000AEE7B34804810020AAE71FB50446B04858
:106C6000007A00F0030054F820000190AC48007A4C
:106C700010F0040F02D0019840420190A848007A19
:106C8000C0F3C10054F820000290A548007A10F02B
:106C9000200F02D0029840420290A148007AC0F32F
:106CA000811054F8200003909D48008910F4807FE3
:106CB00002D00398404203909A49019880FB010159
:106CC000800F40EA810001909649029880FB0110F4
:106CD000820042EA917002909249039880FB011071
:106CE000820042EA917003900198000E8DF8000036
:106CF0000198000C8DF801000198000A8DF802003F
:106D00000198C0B28DF803006A4604214FF47470F4
:106D1000FFF71EFD18B14FF0FF3004B010BD029810
:106D2000000E8DF800000298000C8DF8010002980A
:106D3000000A8DF802000298C0B28DF803006A467E
:106D400004214FF47570FFF703FD10B14FF0FF30D1
:106D5000E3E70398000E8DF800000398000C8DF80F
:106D600001000398000A8DF802000398C0B28DF864
:106D700003006A4604214FF47670FFF7E9FCCCE784
:106D800070B588B0064601A8FEF7EDFEBDF8040018
:106D90000021C90341EA5045C4036148007A00F06C
:106DA000030056F8200005905D48007A10F0040FAB
:106DB00002D00598404205905948007AC0F3C100BE
:106DC00056F8200006905648007A10F0200F02D0A6
:106DD0000698404206905248007AC0F3811056F857
:106DE000200007904E48008910F4807F02D0079859
:106DF000404207900598C117A0FB042301FB043112
:106E000000FB0510810041EA927005900698C117B9
:106E1000A0FB042301FB043100FB0510810041EAC3
:106E2000927006900798C117A0FB042301FB043160
:106E300000FB0510810041EA927007900598000E52
:106E40008DF808000598000C8DF809000598000AD7
:106E50008DF80A000598C0B28DF80B000698000E58
:106E60008DF80C000698000C8DF80D000698000AAD
:106E70008DF80E000698C0B28DF80F000798000E2E
:106E80008DF810000798000C8DF811000798000A83
:106E90008DF812000798C0B28DF8130002AA0C21D9
:106EA0004FF42570FFF754FC08B070BD30B585B0C5
:106EB00004461DA207CA02AB07C3C82C03DD4FF06E
:106EC000FF3005B030BDC82090FBF4F0401E85B205
:106ED000280A8DF80000E8B28DF801006A46022108
:106EE00040F21620FFF734FC10B14FF0FF30E8E716
:106EF00002AA0C2140F6C120FFF72AFC10B14FF086
:106F0000FF30DEE7064884810020DAE7CECE0008B5
:106F10004CCD6C000CC92C00365676002646660017
:106F20002402002009E3CA02FEF2ABC4AAF1DFDFAB
:106F3000BBAFDFDF0146FC48808908800020704736
:106F40002DE9FC4706460F4616F0070F02D0B7F5AD
:106F5000C86F03DD4FF0FF30BDE8FC87384605F011
:106F600021FD8146F14905F0D3FB80466846FEF7D6
:106F70007EFD9DF80000022806D0042816D00828BF
:106F800026D0102848D135E04FF08D41404605F01D
:106F900051FD814605F0CEFC84B2E549404605F03E
:106FA00049FD814605F0C6FC85B238E04FF08C41C2
:106FB000404605F03FFD814605F0BCFC84B2DD494A
:106FC000404605F037FD814605F0B4FC85B226E069
:106FD0004FF08B41404605F02DFD814605F0AAFC9F
:106FE00084B2D549404605F025FD814605F0A2FC56
:106FF00085B214E04FF08A41404605F01BFD814602
:1070000005F098FC84B2CD49404605F013FD814659
:1070100005F090FC85B202E04FF0FF309CE700BF26
:1070200020128DF80400E0B28DF8050028128DF8CA
:107030000600E8B28DF8070016F0010F14D001AA7F
:1070400002214FF4EA70FFF783FB10B14FF0FF30DD
:1070500082E70DF1060202214FF49270FFF778FBF0
:1070600010B14FF0FF3077E716F0020F14D001AAED
:1070700002214FF4EC70FFF76BFB10B14FF0FF30C3
:107080006AE70DF1060202214FF49470FFF760FBEE
:1070900010B14FF0FF305FE716F0040F14D001AAD3
:1070A00002214FF4EE70FFF753FB10B14FF0FF30A9
:1070B00052E70DF1060202214FF49670FFF748FBEC
:1070C00010B14FF0FF3047E7002045E738B50446E0
:1070D0000020009014F0010F04D09DF8000040F053
:1070E0003000009014F0020F04D09DF8000040F032
:1070F0000C00009014F0040F04D09DF8000040F044
:10710000030000906A4601214FF4A470FFF720FBB2
:1071100038BD38B50446012C01DA012402E0042C04
:1071200000DD0424601EC0B200906A46012140F2D6
:107130004F10FFF70DFB38BD38B50446052094FB12
:10714000F0F085B228128DF80000E8B28DF8010049
:107150006A4602214FF4EF70FFF7FAFA38BD38B5EE
:107160000446052094FBF0F085B228128DF800004B
:10717000E8B28DF801006A4602214FF4ED70FFF786
:10718000E7FA38BDF8B505460E464FF47A7095FB20
:10719000F0F000FB06F4200E8DF80000200C8DF8B6
:1071A0000100200A8DF80200E0B28DF803006A4663
:1071B00004214FF4AE70FFF7CBFAF8BD38B50446A2
:1071C000052094FBF0F084B220128DF80000E0B2AC
:1071D0008DF801006A4602214FF4AD70FFF7B8FA4E
:1071E00038BD38B50446052094FBF0F084B2201277
:1071F0008DF80000E0B28DF801006A4602214FF4DC
:10720000AC70FFF7A5FA38BD38B5044614B94FF095
:10721000FF3038BD6A4604214FF45870FFF7D5FAA5
:1072200010B14FF0FF30F4E79DF8000000069DF824
:10723000011040EA01409DF8021040EA01209DF84B
:107240000310084320600020E3E738B50446200E11
:107250008DF80000200C8DF80100200A8DF8020046
:10726000E0B28DF803006A4604214FF45870FFF72E
:107270006FFA38BD38B5044614B94FF0FF3038BD49
:107280006A4604214FF47170FFF79FFA10B14FF076
:10729000FF30F4E79DF8000000069DF8011040EA79
:1072A00001409DF8021040EA01209DF803100843B8
:1072B00000EB8000800020600020E0E738B5044645
:1072C0001420B4FBF0F4200E8DF80000200C8DF893
:1072D0000100200A8DF80200E0B28DF803006A4632
:1072E00004214FF47170FFF733FA38BD38B5044606
:1072F00064B120208DF8000028208DF80100302096
:107300008DF8020038208DF8030004E0A322042148
:10731000684601F019FA6A46042140F69E20FFF7FC
:1073200017FAFDF781FE38BD240200200000484313
:10733000000040460000C045000040450000C04439
:1073400038B5044664B1C0208DF80000C2208DF825
:107350000100C4208DF80200C6208DF8030004E06F
:107360008B220421684601F0EFF96A46042140F6B9
:107370009820FFF7EDF9FDF757FE38BD3EB50446FE
:107380006CB1FCA1D1E900208968CDE9002002910F
:107390006A4609214FF49760FFF7DAF93EBDF8A27B
:1073A000D2E900109268CDE9010200916A460921F4
:1073B0004FF49760FFF7CCF9F0E73EB504460220A2
:1073C0008DF80000CA208DF80100E3208DF802003E
:1073D00009208DF803006A4604216820FFF7B8F9F8
:1073E000A3208DF8000014F0400F09D0C0208DF8C4
:1073F0000100C8208DF80200C2208DF8030006E0CD
:10740000A3208DF801008DF802008DF8030014F41C
:10741000C07F09D0C4208DF80400CC208DF8050071
:10742000C6208DF8060006E0A3208DF804008DF834
:1074300005008DF80600A3208DF807008DF80800E0
:107440008DF809006A460A2140F6A720FFF780F967
:1074500014F0030F03D020208DF8000002E0D820A4
:107460008DF800006A46012140F6B620FFF770F95A
:1074700014F0200F03D00120FFF780FF02E000206E
:10748000FFF77CFF14F4C07F21D014F4807F0CD070
:10749000B2208DF800008B208DF80100B6208DF809
:1074A00002009B208DF803000BE0B0208DF8000057
:1074B00080208DF80100B4208DF8020090208DF816
:1074C00003006A46042140F6A220FFF741F914F0B8
:1074D000010F24D0F8208DF800006A4601214FF4F6
:1074E0000B60FFF735F9FA210720FFF729FD072088
:1074F000FFF7ECFD0120FFF70CFE6420FFF71CFEF8
:107500004FF4FA70FFF72BFEC821A048FFF73AFEB0
:107510002820FFF753FE0A20FFF763FE08E0D8207B
:107520008DF800006A4601214FF40B60FFF710F957
:1075300014F0020F03D0D9208DF8000002E0D8200B
:107540008DF800006A46012140F23D70FFF700F916
:1075500014F0040F03D00120FFF7F2FE02E0002038
:10756000FFF7EEFE14F0100F03D00120FFF7BEFE70
:1075700002E00020FFF7BAFE44F008008449488189
:10758000FDF752FD00208249887314F0400F03D0AC
:107590000846807B801D887314F4C07F04D07C482B
:1075A000807B801D7A49887314F0140F04D07848CA
:1075B000807B10307649887314F0030F04D0744830
:1075C000807B001D7249887300203EBD01467048D3
:1075D00040890880002070472DE9F0410446E0789A
:1075E00000F0C006E07800F03F05607810F0010F71
:1075F00013D0EF102846E91705EB5171C910A5EB20
:10760000C101491C01F0FF086148006820B16048D1
:10761000414602683846904700BF607810F0080F76
:1076200006D05B48406818B1B011594A5168884784
:107630000020BDE8F08110B586B0044655A207CA07
:1076400003AB07C356A207CA8DE80700012C09D077
:10765000022C0ED103AA0B2140F68220FFF778F806
:1076600006B010BD6A460B2140F68220FFF770F885
:10767000F6E74FF0FF30F3E72DE9F04F8DB0074606
:10768000884615469946DDE9166B002400203080B7
:107690003F49887B5A4605A9FEF7C1FB18B1601E19
:1076A0000DB0BDE8F08F3A48807A10F0140F7DD00D
:1076B0009DF8140000069DF8151040EA01409DF861
:1076C000161040EA01209DF81710084328609DF825
:1076D000180000069DF8191040EA01409DF81A10A4
:1076E00040EA01209DF81B10084368609DF81C00CB
:1076F00000069DF81D1040EA01409DF81E1040EA6A
:1077000001209DF81F100843A8609DF82000000686
:107710009DF8211040EA01409DF8221040EA012026
:107720009DF823100843E86004F11000C4B22868F3
:1077300000140190686800140290A8680014039077
:10774000E8680014049001984043029901FB01008D
:10775000039901FB0100049901FB010ABAF1706F62
:1077600002DBBAF1885F22DDFDF75EFC002030808D
:10777000401E95E7B8AAB38DB4980D355D000000A2
:10778000B8AAAAAAB088C3C5C700000009E3CA0204
:1077900024020020D8B1B9F38BA391B609B4D90063
:1077A000DAB1B9F38BA391B6DAB4DA0005E0B6F931
:1077B000000040F48070308000BF3448807A10F0C0
:1077C000400F24D005A9601C085C095D40EA012037
:1077D00000B2A8F8000005A9E01C095C05AAA01CDD
:1077E000105C41EA002000B2A8F8020005A9601D63
:1077F000095C201D105C41EA002000B2A8F80400DA
:10780000A01DC4B2B6F9000040F0080030801F4847
:10781000408910F4C07F21D005A9601C085C095D77
:1078200040EA012000B2388005A9E01C095C05AAE5
:10783000A01C105C41EA002000B2788005A9601D00
:10784000095C201D105C41EA002000B2B880A01D38
:10785000C4B2B6F9000040F0700030800B48807A66
:1078600010F0030F03D005A90819FFF7B5FE48462D
:10787000FDF739FF002013E70146044801600020AE
:1078800070470146014841600020704724020020F3
:107890002DE9F04105460C46C2480168204605F036
:1078A000D1F90746C0480168384605F0C3F80646D6
:1078B000BE480168304604F0BDFEBC490860BC48C3
:1078C0004168BC48006805F0BDF90646B8488168C3
:1078D000304605F0B7F9B8490860B548C06880F08F
:1078E00000404860B248C06880F000408860B348FB
:1078F0000068C8600868AC49096805F09BF806464E
:10790000AB480168304604F095FEA9490860AA49D1
:107910004868A549096805F08DF80646A4484168FD
:10792000304604F087FEA2494860A34988689E4912
:10793000096805F07FF806469D488168304604F0E6
:1079400079FE9B4988609C49C8689749096805F099
:1079500071F806469648C168304604F06BFE9449BB
:10796000C86092480168284605F06CF9944908609F
:107970009448007805F016F806468D4801683046B0
:1079800005F058F8904908608E48007805F00AF82C
:10799000064687488168304605F04CF88B490860F8
:1079A0008848007804F0FEFF07468748016838469B
:1079B00005F040F8064686480168304604F03AFE75
:1079C00084490860084601687F48006804F0A0FE0A
:1079D000814908607F4801687C48006804F098FE8F
:1079E0007E490860784800687D49086075480078DD
:1079F00004F0D8FF06466E484168304605F01AF894
:107A000078490860764801687348006805F012F804
:107A1000064667480168304605F009F96449086080
:107A2000704801686C48006805F004F80646604834
:107A30004168304605F0FBF85D49486068480168D8
:107A40006648006804F0F6FF0646594881683046EB
:107A500005F0EDF856498860624801685F480068A3
:107A600004F0E8FF06465248C168304605F0DFF8EA
:107A70004F49C860524801685748006804F0DAFF6F
:107A800006464A480168304604F0D4FD474908607C
:107A90004B4801685148006804F0CCFF0646414855
:107AA0000168304604F0C6FD3E490860084601689A
:107AB000204605F0C7F84C490860BDE8F0812DE983
:107AC000F04F8BB083468A46504604F087FD8046CF
:107AD000464A474B04F072FACDE902013348006888
:107AE00004F07CFDCDE90001DDE9022303F080FF15
:107AF00004460D463F4801684FF07E5005F0A2F85D
:107B0000804604F06BFD064622462B4604F056FAEA
:107B1000CDE9060137480168584604F08BFF04465A
:107B200004F05CFDCDE90401DDE9062303F060FF0C
:107B3000CDE9080103F02AFF1C4908600BB0BDE83D
:107B4000F08F2DE9F04104460D46E561E1682068BB
:107B500004F070FD06463146206804F0D9FD20612E
:107B60006168E06905F06EF80746216904F062FF7C
:107B70000646616804F05EFD60614FF07E50216949
:107B800005F060F80646216804F054FFA0616069C2
:107B90006060A168A06904F04DFD20606069BDE8E7
:107BA000F081000000010020E0000020F80000202B
:107BB000E8000020D400002034020020D80000207B
:107BC00004010020E4000020080100200C01002036
:107BD000DC0000201001002014010020180100200A
:107BE0001C01002020010020FC0000207B14AE4777
:107BF000E17A743FD0000020014691F90020002A6C
:107C000001DD00201EE091F90020002A01DA0420A5
:107C100018E091F90120002A01DD012012E091F91C
:107C20000120002A01DA05200CE091F90220002A47
:107C300001DD022006E091F90220002A01DA062087
:107C400000E00720704770B505462846FFF7D4FFCF
:107C50000446E81CFFF7D0FF44EAC00084B2A81D28
:107C6000FFF7CAFF44EA801084B2204670BD70B5A9
:107C700088B002A905A8FEF7E0FC0446072C3FD116
:107C800001A8FDF753FF059804F074FE064601991C
:107C900004F0D0FE054604F031FE0590069804F08D
:107CA00069FE0646019904F0C5FE054604F026FE6D
:107CB0000690079804F05EFE0646019904F0BAFEAD
:107CC000054604F01BFE079005A8FEF7C6FF6846B0
:107CD000FDF749FFBDF80010029848430290BDF837
:107CE0000010039848430390BDF8001004984843DF
:107CF000049002A8FFF744F8FEA000F0CDFB00BFFF
:107D000008B070BD2DE9F04304460D46DDE9076774
:107D10000021012041E0DFF800C43CF81080A0F110
:107D2000010CDFF8F49329F81C8009F1160C3CF8DB
:107D30001090A0F1010CDFF8E08308F1160828F894
:107D40001C9008F1160C3CF81090A0F1010C08F101
:107D5000160828F81C9008F1160C3CF81090A0F1B9
:107D6000010C08F1160828F81C9008F1160C3CF8D4
:107D70001090A0F1010C08F1160828F81C9008F1E9
:107D8000160C3CF81090A0F1010C08F1160828F828
:107D90001C9000F1010C0CF0FF000A28BBDBDFF89F
:107DA00078C3ACF81240ACF82850ACF83E20ACF8E0
:107DB0005430ACF86A60ACF880700021002008E014
:107DC000DFF854C33CF910C0614400F1010C0CF021
:107DD000FF000A28F4DB4FF00A0C91FBFCFC0FFAC1
:107DE0008CFCDFF83483A8F814C0002100200AE0DE
:107DF000DFF824C30CF1160C3CF910C0614400F10B
:107E0000010C0CF0FF000A28F2DB4FF00A0C91FB8A
:107E1000FCFC0FFA8CF8DFF800C3ACF82A800021D4
:107E200000200AE0DFF8F0C20CF12C0C3CF910C085
:107E3000614400F1010C0CF0FF000A28F2DB4FF066
:107E40000A0C91FBFCFC0FFA8CF8DFF8CCC2ACF802
:107E50004080002100200AE0DFF8BCC20CF1420C97
:107E60003CF910C0614400F1010C0CF0FF000A283D
:107E7000F2DB4FF00A0C91FBFCFC0FFA8CF8DFF8F8
:107E800098C2ACF85680002100200AE0DFF888C2D2
:107E90000CF1580C3CF910C0614400F1010C0CF0DD
:107EA000FF000A28F2DB4FF00A0C91FBFCFC0FFAF2
:107EB0008CF8DFF864C2ACF86C80002100200AE086
:107EC000DFF854C20CF16E0C3CF910C0614400F1B3
:107ED000010C0CF0FF000A28F2DB4FF00A0C91FBBA
:107EE000FCFC0FFA8CF8DFF830C2ACF88280BDE8F9
:107EF000F08338B50446032302226B21D02000947E
:107F0000FCF7C9F838BD38B50446022304221B210A
:107F1000D0200094FCF7BFF838BD38B504460223E2
:107F200004221C21D0200094FCF7B5F838BD10B510
:107F30000446234606226B21D020FCF7E1F810BD51
:107F400010B5764B01227521D020FCF72DF873482F
:107F5000007810BD10B5FFF7F3FF682801D10120AC
:107F600010BD0020FCE710B50446234605226A2117
:107F7000D020FCF7C5F810BD10B5044623460122F9
:107F80003721D020FCF7BCF810BD10B50220FFF758
:107F9000B0FF0320FFF7B7FF0020FFF7BEFF002070
:107FA000FFF7C5FF0020FFF7DEFF0020FFF7E4FF2B
:107FB00010BD38B5002000906B4601227521682065
:107FC000FBF794FF56A000F067FA9DF800006828C0
:107FD00010D000BFBFF34F8F5A48006800F4E06034
:107FE00059490843001D57490860BFF34F8F00BF30
:107FF00000BFFEE7FDF7A7FA00283CD17820FCF788
:108000000AFF10B946A000F047FA7820FDF7EAF819
:1080100010B94EA000F040FAC820FDF7C4F910B91D
:1080200054A000F039FAFEF77DFD10B95BA000F016
:1080300033FA6748FFF707FE0446FEF77DFD10B9E7
:1080400064A000F029FA40F27310FFF7B6F910B9F6
:108050006AA000F021FAC820FEF728FF10B971A02D
:1080600000F01AFAFFF703FE0120FEF7A1FA10B99B
:1080700075A000F011FA38BD2DE9F04F8DB00AA8B7
:108080007A490BAB06AACDE9001079497948FFF788
:10809000F3FA7648008810F4807F29D0069804F01F
:1080A00069FC04464FF09D4104F032FB72490860C0
:1080B000079804F05FFC04464FF09D4104F028FB54
:1080C0006E490860089804F055FC04464FF09D4145
:1080D00004F01EFB6A490860099804F04BFC044652
:1080E0004FF09D4104F014FB664908606248CBE004
:1080F0004FE1000073657474696E67206269617393
:108100002073756363657366756C6C79202E2E2EF3
:108110002E2E2E0D0A0000005202002044020020E4
:108120006D70755F7365745F73656E736F722063D6
:108130006F6D706C657465202E2E2E2E2E2E0D0AFE
:10814000000000000CED00E00000FA056D70755FA6
:10815000636F6E6669677572655F6669666F2063D7
:108160006F6D706C657465202E2E2E2E2E2E0D0ACE
:10817000000000006D70755F7365745F73616D70F2
:108180006C655F7261746520636F6D706C6574659A
:10819000202E2E2E2E2E2E0D0A000000646D705FF4
:1081A0006C6F61645F6D6F74696F6E5F6472697626
:1081B00065725F6669726D7761726520636F6D705D
:1081C0006C657465202E2E2E2E2E2E0D0A000000BA
:1081D00034010020646D705F7365745F6F72696550
:1081E0006E746174696F6E20636F6D706C65746519
:1081F000202E2E2E2E2E2E0D0A000000646D705F94
:10820000656E61626C655F66656174757265206339
:108210006F6D706C657465202E2E2E2E2E2E0D0A1D
:1082200000000000646D705F7365745F6669666F5F
:108230005F7261746520636F6D706C657465202E6C
:108240002E2E2E2E2E0D0A006D70755F7365745FD5
:10825000646D705F737461746520636F6D706C65BD
:108260007465202E2E2E2E2E2E0D0A005001002079
:108270004A010020440100202401002028010020A0
:108280002C0100203001002001684FF0804004F0F4
:10829000D1FB04905C480168049804F0CBFB824653
:1082A0005A4801684FF0404004F0C4FB049058481D
:1082B0000168049804F0BEFB8346514604F0BAF905
:1082C000059004F08BF9804602F03AFF06464FF025
:1082D0006632504B03F072FE044603F057FB4E49E2
:1082E0000860494801684FF0804004F0A3FB01900A
:1082F00045480168019804F09DFB824643480168A7
:108300004FF0404004F096FB01904048016801980E
:1083100004F090FB8346514604F094FC81464FF0F4
:108320007E5104F087F9044604F058F9CDE90401C0
:108330003A4801684FF0804004F07CFB83463348A4
:108340000168584604F076FB81462F4801684FF0DB
:10835000804004F06FFB83462D480168584604F0C6
:1083600069FB8246494604F065F9044604F036F993
:10837000CDE90201DDE9042303F032F907464FF0AD
:108380006632244B03F01AFE054603F0FFFA244937
:1083900008600DB0BDE8F08F2DE9F05F4221D020DC
:1083A000FBF7DFFD05464121D020FBF7DAFD05EBA9
:1083B0000024204604F0DEFA82464FF08E415046FB
:1083C00004F004FC05D24FF08F41504604F03AFC13
:1083D00082461449504604F09BF9834604F0FEF8A7
:1083E0008046114A114B03F003FB06460022104B56
:1083F00003F0E4FD044603F0C9FA8246504604F057
:108400007DFABDE8F09F00002C010020280100202B
:108410003001002066A64C405401002024010020B9
:10842000580100200000AA43A4703D0AD7434240EF
:1084300000002440704710B54C1084EA530404D562
:108440004042C1F1000138BF491E1B4204D55242CF
:10845000C3F1000338BF5B1E00F082F914F0804FB7
:1084600004D04042C1F1000138BF491E14F0004F52
:1084700004D05242C3F1000338BF5B1E10BD0000A0
:108480000FB4044910B503AA029800F0D1FC10BC47
:108490005DF814FB440000200FB4044910B503AA92
:1084A000029800F0C5FC10BC5DF814FB44000020ED
:1084B0002DE9F0410646002410687529314616A5BD
:1084C00011D000F0F8F9002803DAC0F1000013A57C
:1084D00007E031688A0701D511A502E0490704D5F4
:1084E00010A5012401E000F0EFF900210A2306F1B4
:1084F000240707E0B0FBF3F203FB1200303078549E
:108500001046491C0028F5D123462A463046BDE8CE
:10851000F04100F00BBA0000000000002D00000048
:108520002B000000200000002DE9F05F8946044682
:108530004FF0000ADFF878B1FB44C0F820A02046D5
:10854000E1688847002875D0252806D0D4E90121A4
:108550009047206A401C2062F1E700265F462046D3
:10856000E16888472028054608DB312D06D207EB55
:10857000050010F8200C08B10643F0E7B00701D55C
:1085800026F00406C4F81CA00027C4F818A02A2D61
:1085900009D0284602F0CDFD38B304EB8708303D02
:1085A000C8F8185019E059F8041B204604EB87025C
:1085B0009161E1688847012F054618D1E0690028DC
:1085C00020DA26F020061DE0D8F8180000EB800025
:1085D00005EB40003038C8F818002046E1688847AD
:1085E000054602F0A6FD0028EED1012F0AD02E2D5F
:1085F00008D12046E16888477F1C0546022F46F0D7
:108600002006C4DBA069002803DA404246F00106D8
:10861000A061F00701D026F010066C2D0BD0682D5C
:1086200009D04C2D39D06A2D35D0742D35D07A2D06
:1086300033D016E038E0E1682F4620468847B8423C
:10864000054609D16C2F26D04FF48060E1680643BF
:1086500020468847054604E06C2F1AD04FF48070FE
:1086600006430DB3A5F14100192802D8203546F480
:1086700000664A462946204626604E46FAF790FD97
:1086800080B101280BD0F61D26F0070000F1080983
:1086900055E74020E4E78020D8E70020D6E706F140
:1086A00004094CE7284651E7206ABDE8F09F000026
:1086B000885500000FB400B58DB010A90990009145
:1086C0000B904FF0FF300A9000200C900648784441
:1086D0000690064878446A4607900F9909A800F06A
:1086E00035FF0DB05DF814FB9B0E0000B30E0000CB
:1086F00040EA010310B59B070FD1042A0DD310C81F
:1087000008C9121F9C42F8D020BA19BA884201D970
:10871000012010BD4FF0FF3010BD1AB1D30703D0B8
:10872000521C07E0002010BD10F8013B11F8014B6E
:108730001B1B07D110F8013B11F8014B1B1B01D18A
:10874000921EF1D1184610BD02F0FF0343EA032246
:1087500042EA024200F02CBF7047704770477047F2
:1087600053EA020C00F069802DE9F04B4FF000064F
:10877000002B1FBFB3FA83F503FA05F424FA05F6BC
:108780005E4012BF1643B2FA82F502FA05F4C5F153
:1087900020051EBF22FA05FC44EA0C04203556EAE7
:1087A000044C4FEA144418BF641C4FF000084FF00B
:1087B0000009904271EB030C39D3002919BFB1FABB
:1087C00081F701FA07F6B0FA80F700FA07F6C7F169
:1087D00020071EBF20FA07FC46EA0C062037B6FB2E
:1087E000F4FCA7EB0507103F07F01F0BCBF12006A9
:1087F0000CFA0BFB2CFA06F644BFB3460026202FDA
:10880000A4BF5E464FF0000B5BEA060C08BF4FF0BA
:10881000010B19EB0B09ABFB027C48EB0608C01BF4
:1088200006FB02CC0BFB03CC71EB0C01C1E70B4642
:10883000024641464846BDE8F08B13B54FF00000B4
:108840004FF00001AFF30080BDE81C40704710B549
:1088500000F0D2FE006810BD10B5044600F0CCFE5A
:10886000046010BD70B5044685690068C10601D575
:10887000302600E02026C00708D070BDD4E90121D1
:1088800030469047206A00F1010020626D1EF5D548
:1088900070BD70B5044685690078C00708D170BD09
:1088A000D4E9012120209047206A00F101002062D4
:1088B0006D1EF5D570BD09684A0501D540B27047F7
:1088C000C905FCD500B2704709684A0501D5C0B298
:1088D0007047C905FCD580B2704770B50C46054697
:1088E000012A05D02878800600D5EA69002302E035
:1088F000012305E05B1C934202D2E05C0028F9D121
:10890000A869E618C01AA861286A1844286228468F
:10891000FFF7A8FF04E0D5E9012114F8010B904707
:10892000B442F8D32846FFF7B4FF70BD2DE9F047F5
:108930000D4699469246044600F1240801688806CF
:1089400004D5E06921F01001216000E00120A84277
:1089500002DDA0EB050700E00027A16907EB050297
:1089600002EB0900A1EB0000A0612078C00602D450
:108970002046FFF777FF002608E0D4E901211AF826
:1089800006009047206A401C761C20624E45F4DBAE
:108990002078C0060AD52046FFF764FF06E0D4E938
:1089A000012130209047206A401C2062381EA7F128
:1089B0000107F4DC07E0D4E9012118F8050090472D
:1089C000206A401C2062281EA5F10105F3DC204628
:1089D000FFF75FFF2078000602D50220BDE8F08790
:1089E0000120FBE711680268006A530501D5087091
:1089F0000BE0D30501D5088007E0130603D5C217A5
:108A0000C1E9000201E0520608600120704770478A
:108A10002DE9FF4F0C461E464FF0FF378BB0D2E9D1
:108A20000001DDF860800A908A46C1F30A5505B955
:108A30003D46002108464FF00000BAF1000F00F457
:108A4000400005DA00EB80004FF4400101EA5000DD
:108A50004FEA9059B9F1010F00DDB9460A9850EA82
:108A60004A000ED044F61050A5F2FF3545432F14AE
:108A7000B8F1000F1ED07542291E1EDDC9F100029B
:108A80001CE0B8F1010F4FF0000001D0302103E0ED
:108A9000F24305E02154401CB042FBDB304600228B
:108AA000002121540B99C1F80880C1E900200FB0C2
:108AB000BDE8F08FBD1B6D1CDEE74A4600DA694257
:108AC00006A801F027F806AB07CB03AB07C3504657
:108AD0000A9901F09EFB8DE80700A0F500501F38B1
