:020000040800F2
:10300000600C0020DD310008E1310008E3310008E8
:10301000E5310008E7310008E93100080000000050
:10302000000000000000000000000000EB3100087C
:10303000ED31000800000000EF310008F131000818
:10304000F3310008F3310008F3310008F3310008D0
:10305000F3310008F3310008F3310008F3310008C0
:10306000F3310008F3310008F3310008F3310008B0
:10307000F3310008F3310008F3310008F3310008A0
:10308000F3310008F3310008F3310008F331000890
:10309000F3310008F3310008F3310008F331000880
:1030A000F3310008D54E0008F3310008F331000871
:1030B000F3310008F3310008F3310008F331000860
:1030C000F3310008F3310008F3310008F331000850
:1030D000F3310008F33100081D460008F331000801
:1030E000F3310008F3310008F331000800F002F872
:1030F00000F05FF80AA090E8000C82448344AAF133
:103100000107DA4501D100F054F8AFF2090EBAE830
:103110000F0013F0010F18BFFB1A43F0010318470B
:1031200030910000509100000A444FF0000C10F85C
:10313000013B13F0070408BF10F8014B1D1108BF35
:1031400010F8015B641E05D010F8016B641E01F8D5
:10315000016BF9D113F0080F1EBF10F8014BAD1C25
:103160000C1B09D16D1E58BF01F801CBFAD505E043
:1031700014F8016B01F8016B6D1EF9D59142D6D39D
:10318000704700000023002400250026103A28BFC5
:1031900078C1FBD8520728BF30C148BF0B607047C9
:1031A000642905F0F984002070471FB51FBD10B5D4
:1031B00010BD05F0C3FE1146FFF7F7FF00F02AF837
:1031C00005F0E1FE03B4FFF7F2FF03BC00F028FABC
:1031D00030BF72B662B680F308887047084800476F
:1031E000FEE7FEE7FEE7FEE7FEE7FEE7FEE7FEE7B7
:1031F000FEE7FEE703480449044A054B7047000018
:10320000ED30000860060020600C002060080020FF
:1032100060080020092000F0ABF9482000F04AF8CF
:10322000022000F090F9012000F08DF900F074FA0E
:1032300000F0AAFA00F0A0FC4FF4E131482000F0C1
:1032400007FA4FF41651242001F076F9002141F6D7
:103250001F4000F0EDFD00F041FE00F076FE00F0B2
:10326000E5FE05F044F805F056F80BA005F054FC17
:1032700041F61F41312000F04DFD0AA005F04CFC45
:1032800008E005F03BFA0A49086005F085FA642079
:1032900000F047F8F5E70000496E6974204F4B31A4
:1032A0000D0A0000496E6974204F4B320D0A000070
:1032B000180000204FF0E021096921F004014FF0CF
:1032C000E0221161C21700EB5272C2F3C702224B17
:1032D0001A701946097801EB4102C2EBC1114FF691
:1032E000FF7202EAC1011D4A1180704701461A4A65
:1032F00012784A434FF0E0235A6100229A6101227A
:103300001A6100BF4FF0E022106910F0010F02D0E7
:1033100010F4803FF6D000224FF0E0231A619A614A
:10332000704701460D4A12884A434FF0E0235A6124
:1033300000229A6101221A6100BF4FF0E022106959
:1033400010F0010F02D010F4803FF6D000224FF0B1
:10335000E0231A619A61704730000020320000209B
:10336000A44A0A400243A44B1A607047014607234F
:1033700023EA01021202A04B1B1D18684FF6FF033F
:1033800018409E4B184310439B4B1B1D1860704701
:103390002DE9F0410746884614461D462846FFF7AA
:1033A000E5FFC5F1040007FA00F60F20284100EA06
:1033B0000800064306F00F06E21704EBD262521132
:1033C0004FF0E02303EB8202D2F800212146E317FD
:1033D00004EBD3635B11A4EB431C012303FA0CF34E
:1033E0001A432046E31704EBD3635B114FF0E02C44
:1033F0000CEB8303C3F800218148005D40EA06100E
:103400007F490855BDE8F08170B504460B46CE17DC
:1034100001EB9676C6F38700CE1701EB9676B610D1
:10342000A1EB8606B606350E764B9B6943F0010389
:10343000744EB3614FEAB63353F820300F26AE40D6
:10344000B343714E46F82030334653F8203004FA27
:1034500005F61E436C4B43F820606C4B1B6801263D
:103460008E403343694E336012F0010F08D0674B32
:103470000C331B6801268E403343644E0C36336098
:1034800012F0020F08D0614B08331E6801238B40F5
:103490001E435E4B08331E6070BD00B500205949C5
:1034A0000861C8601420486100208861C86108462E
:1034B000006840F001000860084640685449084030
:1034C0005049486008460068524908404D49086024
:1034D0000846006820F4802008600846406820F410
:1034E000FE004860002088604FF440514FF00060BB
:1034F000FFF736FF00BD10B53F480830006840F0C8
:1035000004003D49083108603E48C06940F08050E1
:103510003C49C8614048406840F480703E4948607A
:103520000846006840F0040008600846006840F063
:1035300002000860FFF74CFE10BD3048001D2E4908
:10354000091D08607047014649062E4A926942F0FB
:1035500001022C4B9A612C4A083A526822F0E06230
:10356000294B083B5A601A4652680A435A60704712
:1035700030B504460025FFF790FF2248006840F46C
:1035800080302049086000BF1E480068400CFBD016
:103590004FF480601B494860A01EC4B208464068D2
:1035A00040EA844048600846406840F48030486003
:1035B0001A48006840F03200184908601148006855
:1035C00040F080700F49086000BF0E480068400E50
:1035D000FBD00C48406840F002000A49486005E012
:1035E00008484068C0F3870505F00305022DF7D1B0
:1035F00030BD000080FFFF1F08ED00E00000FA056D
:1036000000E400E000100240080001400004014016
:103610000000FFF8FFFFF6FE0070004000200240AF
:10362000014600BF704700BF374A128812F0400FB2
:10363000FAD0C2B2344B1B1D1A8070473249091DA3
:10364000088000BF3049098811F0400FFAD0704758
:103650002DE9F05F05460E46300106F0C7FF8146B2
:103660002A4905FB01F006F0C1FF8246494606F0F3
:1036700073FE0746384606F081FF84B2204606F006
:10368000B5FF8346394607F0F6F882464FF083418E
:1036900006F0F4FF814606F071FF80464FF6FF709A
:1036A00000EA041404EB080084B21948806940F071
:1036B0000400174988610846806940F480408861A9
:1036C0001448006820F47F601249086008460068CA
:1036D00040F40B6008600E48C06840F480400C491C
:1036E000C8600846C06820F48040C86006480830BA
:1036F0000480001D008842F20C01084302490C318D
:103700000880BDE8F09F00000038014040420F00F3
:1037100000100240040801401648806940F004008F
:10372000144988611448006820F00F0012490860AD
:103730000846006840F0030008600F480830006841
:1037400040F480700C490831086070470B490968E3
:10375000491C0A4A116081420AD1094909686FEA85
:103760000101084AC2F8A0114FF00001034A11609C
:10377000704700000010024004080140380000209B
:10378000A0012142000021423748806940F0040036
:10379000354988613548006820F070403349086039
:1037A0000846006840F00040086030480830006873
:1037B00040F400402D4908310860704701462C480C
:1037C000006828B92B48007810B90120294A1070E8
:1037D00029480078B0B927480078012807D1274840
:1037E0000078401C254A10700120234A107023489D
:1037F0000078022806D10020204A1070204A10804C
:10380000022070471A480068012804D10020194A94
:103810001070194A10701948007801280ED1184804
:103820000088401C80B2164A1080884206DD0020C5
:10383000124A1070124A10800120E2E70020E0E7EF
:103840001048007838B10A48006820B900200D49B6
:1038500008700120704706480068012801D1094915
:1038600008700020F6E70000001002400408014044
:103870003C0121423C0000203D0000203E00002091
:10388000400000204200002010B50A461AB1012372
:10389000FE4C236002E00023FC4C23604FF000014B
:1038A00018E00023FA4C236010F0800F04D00123AD
:1038B00004F10404236002E00023F64C23604FF07F
:1038C0000103F34C23604FEA40634FEA136001F1B8
:1038D0000103D9B20829E4DB0123EC4C236010BDBD
:1038E00030B500241CE004F1B001C8B20021FFF79C
:1038F000CBFF00210846FFF7C7FF00211020FFF78C
:10390000C3FF002508E0E44901EBC501085D012182
:10391000FFF7BAFF681CC5B2802DF4DB601CC4B28F
:10392000082CE0DB30BD00B500218D20FFF7ACFF97
:1039300000211420FFF7A8FF0021AF20FFF7A4FF0C
:1039400000BD00B500218D20FFF79EFF0021102053
:10395000FFF79AFF0021AE20FFF796FF00BD30B5BC
:1039600000240CE0002506E00020CB4901EBC50156
:103970000855681CC5B2802DF6DB601CC4B2082C4B
:10398000F0DBFFF7ADFF30BDF0B5144600267F2811
:1039900001DC3F2900DDF0BD0B46CF1701EB577767
:1039A000FF10C7F10707FAB2CF1701EB5777FF10E7
:1039B000A1EBC707FDB2C5F107070123BB40DEB28B
:1039C0004CB1B54B03EBC0039B5C3343B24F07EBE9
:1039D000C007BB5408E0B04B03EBC0039B5CB34390
:1039E000AD4F07EBC007BB5400BFD4E72DE9F04F44
:1039F00080460C4615461E46A346A5F12000C5B2DA
:103A000000273EE00C2E07D105EB4500A34901EB52
:103A1000800010F8079004E0A14800EB051010F8B2
:103A200007904FF0000A26E019F0800F05D02146DC
:103A30004046099AFFF7A8FF09E0099808B9012054
:103A400000E00020024621464046FFF79DFF4FEA76
:103A500049604FEA1069601CC4B2A4EB0B00B0428D
:103A600005D15C4608F1010000F0FF0806E00AF10C
:103A7000010000F0FF0ABAF1080FD5DB00BF781C87
:103A8000C7B2B742BEDBBDE8F08F10B502460120D9
:103A900000E050430B00A1F10104E1B2F9D110BDE7
:103AA0002DE9FF4F81B0074691461E460E9D4FF00F
:103AB000000A002439E0301B401EC1B20A20FFF783
:103AC000E4FFB9FBF0F00A21B0FBF1F201FB1208B0
:103AD000BAF1000F16D1701EA04213DDB8F1000F2D
:103AE0000ED10120AB4605EBDB71491001FB0471DF
:103AF0000090C8B22B4620220299FFF777FF12E010
:103B00004FF0010A0120AB4605EBDB71491001FBC8
:103B100004710090C8B208F13001CAB22B46029974
:103B2000FFF764FF00BF601CC4B2B442C3DB05B042
:103B3000BDE8F08F78B505460E46144618E07A2D9C
:103B400003DD002506F11000C6B23A2E04DD002088
:103B500005460646FFF703FF0120009022780C235C
:103B600031462846FFF742FF05F10800C5B2641C44
:103B700020780028E3D178BD10B54A48806940F02C
:103B80000800484988614848006820F47F00464999
:103B900008600846006840F40810086041488069E1
:103BA00040F010003F4988610846806940F00100FC
:103BB00088613E48406820F07F403C4948600846A4
:103BC000406840F0085048603948006840F4807010
:103BD000374908603348006A20F001003149086223
:103BE0003448008820F001003249088030480068DD
:103BF00020F480702E49086000202F4908604FF0A3
:103C00006400FFF78EFB01202C49C1F8BC010021A4
:103C1000AE20FFF739FE0021D520FFF735FE002149
:103C20005020FFF731FE0021A820FFF72DFE0021D4
:103C30003F20FFF729FE0021D320FFF725FE0021BA
:103C40000846FFF721FE00214020FFF71DFE00215E
:103C50008D20FFF719FE00211420FFF715FE00212B
:103C60002020FFF711FE00210220FFF70DFE0021AA
:103C7000A120FFF709FE0021C020FFF705FE00216B
:103C8000DA20FFF701FE0021122019E0B8012242DC
:103C9000B0812142B48121424801002066AA000877
:103CA000DAAE000800100240040C01400010014090
:103CB00000700040306C0040BC01224200002242F3
:103CC000FFF7E2FD00218120FFF7DEFD0021EF205C
:103CD000FFF7DAFD0021D920FFF7D6FD0021F12002
:103CE000FFF7D2FD0021DB20FFF7CEFD00213020C1
:103CF000FFF7CAFD0021A420FFF7C6FD0021A62082
:103D0000FFF7C2FD0021AF20FFF7BEFDFFF727FE42
:103D100010BD000070B505460C463748806940F478
:103D200000603549886135480580001F04803348AC
:103D30002038008840F001003049203908800846CA
:103D4000008840F0400008802C482C38008840F063
:103D500001002A492C39088029A004F0DDFE022345
:103D6000192203210120FFF713FB70BD70B5044633
:103D70000D462148C06940F001001F49C86108464E
:103D8000806940F0040088611F48006820F47F408B
:103D90001D4908600846006840F402400860C804F5
:103DA00084850585808B40F48070C904888308462B
:103DB000808B88830846808B88830846008C088423
:103DC0000846008C40F4805008840846808940F002
:103DD000100088810846808940F0010088810846EB
:103DE000008840F00100088001231C2203211846AE
:103DF000FFF7CEFA70BD0000001002402C2C0140ED
:103E000068657265330D0A00000801402F4880691B
:103E100040F008002D4988612D48006880B22C4987
:103E20000860084600682B49084329490860704724
:103E300000B503460A46FFF7E9FF2448C06940F091
:103E400004002249C8610846806940F00800886182
:103E50001F48001D006820F0FF001D49091D086073
:103E60000846006840F0BB0008601B480380001F44
:103E7000028019481038008840F4C04016491039B3
:103E800008800846008840F06000088008460088E6
:103E900040F4006008800846008840F00800088070
:103EA000081D008840F48050091D088008460088DD
:103EB00040F480700880C81307492C3908800846F0
:103EC000008840F00100088000BD000000100240A2
:103ED000000C0140000022222C0800404F48C0691D
:103EE00040F001004D49C8610846806940F0040077
:103EF00088614B48006820F0FF0049490860084687
:103F0000006840F0440008600020C90408854FF6AE
:103F1000FE7088850846008B40F001000883084643
:103F2000008B40F4807008830846008C08840846A3
:103F3000008C08840846008940F003000881084688
:103F4000008840F00100088070473448C06940F0A4
:103F500002003249C8610846806940F00400886167
:103F60002F48006820F07F402D490860084600680F
:103F700040F08840086000202A4908804FF6FE7013
:103F8000091D088027481038008840F001002549A5
:103F9000103908800846008840F480700880214865
:103FA000083800881F4908390880084600880880BA
:103FB0001C482038008840F003001A492039088046
:103FC00018482838008840F0010016492839088030
:103FD00070470146022904D003290BD0042919D1C6
:103FE00011E04FF08042928C10B200224FF08043DB
:103FF0009A8411E00B4A121F128810B20022094B5A
:104000001B1F1A8008E0084A128810B20022064BD3
:104010001A8001E0002000BF00BF7047001002407E
:10402000000801402804004024080040FE48806940
:1040300040F00800FC498861FC48006820F47F409B
:10404000FA4908600846006840F44C500860704720
:1040500010B5F648006820F47040F449086008463E
:10406000006840F4405008600120F1490860F148C0
:10407000D0F82C0108B9002010BD0120EE490860DD
:10408000FFF734F90020EB49C1F8AC01EB480068B8
:1040900008B10020F0E70120FFF728F90020E649E9
:1040A00008604FF00100E7E710B5E048006820F431
:1040B0007040DE4908600846006840F440500860DF
:1040C0000020DD490860DB49C1F8AC014FF0010078
:1040D000FFF70CF90120D8490860D649C1F8AC01B6
:1040E000FFF704F910BD10B50024D048006820F493
:1040F0007040CE4908600846006840F400400860FF
:104100000120CB490860FFF7F1F80120C949C1F847
:10411000A801FFF7EBF80AE0601CC4B2322C03DD03
:10412000FFF7C2FF002010BD0120FFF7DFF8C348F2
:1041300000680028F0D1C04908604FF00100F2E7A4
:1041400010B50020BC490860B848006820F47040F1
:10415000B64908600846006840F4405008604FF0D7
:104160000000B449C1F8AC014FF00100FFF7BEF800
:104170000120B1490860FFF7B9F80020AD49C1F846
:10418000A80110BD10B50020AB490860A748006821
:1041900020F47040A54908600846006840F440508B
:1041A00008604FF00100A349C1F8AC01FFF79EF889
:1041B0000120A1490860FFF799F800209D49C1F846
:1041C000A80110BD70B504469848006820F47040FE
:1041D000964908600846006840F440500860002096
:1041E00095490860054619E0E009914908604FEAE1
:1041F00044604FEA10644FF00100FFF777F80120A8
:104200008C49C1F8A801FFF771F800208A490860BD
:104210004FF00100FFF76AF8681CC5B2082DE3DB18
:1042200070BD2DE9F04105460E4617469846FFF74A
:104230000FFF10B90120BDE8F0816906080EFFF7F5
:10424000C1FFFFF750FF18B9FFF72EFF0120F2E77B
:104250003046FFF7B7FFFFF746FF00240BE018F8E2
:104260000400FFF7AFFFFFF73EFF18B9FFF71CFF91
:104270000020E0E7641CBC42F1DBFFF715FF0020E3
:10428000D9E770B5054600246848006820F47040FE
:10429000664908600846006840F40040086000264F
:1042A00016E00020644908604FF00200FFF71EF896
:1042B00001206049C1F8A8016006040E5F4800684B
:1042C00008B1601CC4B20220FFF710F8701CC6B21F
:1042D000082EE6DB15B1FFF733FF01E0FFF752FFD1
:1042E000204670BD2DE9F04106460F4614461D4696
:1042F000FFF7AEFE10B90120BDE8F0817106080E8F
:10430000FFF760FFFFF7EFFE18B9FFF7CDFE0120C2
:10431000F2E73846FFF756FFFFF7E5FEFFF798FE96
:10432000012101EB4601C8B2FFF74CFFFFF7DBFEAE
:104330000DE0012C04D10020FFF7A3FF287003E05B
:104340000120FFF79EFF28706D1C601EC4B2002C78
:10435000EFD1FFF7A9FE0020CEE770B505460E4667
:104360000024FFF775FE2846FFF72CFF641CFFF7BB
:10437000BAFE3046FFF726FF641CFFF7B4FEFFF7D6
:1043800067FE691CC8B2FFF71DFF641CFFF7ABFE98
:104390000020FFF776FF0446FFF786FE204670BD3B
:1043A0002DE9F0410746884615461E460024FFF7D2
:1043B0004FFE3846FFF706FFFFF795FE4046FFF732
:1043C00001FFFFF790FEFFF743FE791CC8B2FFF72D
:1043D000F9FEFFF788FE00BF0DE0681EA04204D082
:1043E0000120FFF74EFF305503E00020FFF749FFA3
:1043F0003055601CC4B2AC42EFDBFFF755FE2046DF
:10440000BDE8F0812DE9F04180460D4616461F4675
:104410000024FFF71DFE4046FFF7D4FEFFF763FEC2
:104420002846FFF7CFFE0BE000100240040C0140CD
:10443000AC81214200802142A88121422C8121426D
:10444000FFF751FE00BF06E0385DFFF7BBFEFFF748
:104450004AFE601CC4B2B442F6DBFFF725FE012021
:10446000BDE8F08170B505460E4614463146284633
:10447000FFF773FF2070012070BD37B504460D466D
:1044800002AB012229462046FFF7BCFF3EBD2DE9C5
:10449000F8430746884614461D46089E6A4641462C
:1044A0003846FFF7DFFF28B3601CFF2101FA00F058
:1044B000C4F108012944491EFF220A41104300F0BB
:1044C000FF09C5F1080006FA00F0C6B2C4F1070002
:1044D00006419DF8000000EA090000909DF80000E8
:1044E000304300909DF8002041463846FFF7C5FF55
:1044F000BDE8F8830020FBE7F8B506460F461446F2
:104500001D466A4639463046FFF7ACFF2DB1012003
:10451000A0409DF80010084305E00120A0409DF850
:10452000001021EA0000C0B200909DF8002039463A
:104530003046FFF7A2FFF8BD2DE9F05F05460E46B5
:10454000300106F053F88146C94905FB01F006F039
:104550004DF88246494605F0FFFE0746384606F00C
:104560000DF884B2204606F041F88346394606F03D
:1045700082F982464FF0834106F080F8814605F0CB
:10458000FDFF80464FF6FF7000EA041404EB0800BC
:1045900084B2B848806940F00400B6498861084692
:1045A000C06940F40030C861B348006820F47F401F
:1045B000B14908600846006840F40B400860AE4806
:1045C0000C30006840F00400AB490C310860A94889
:1045D000006940F40030A74908610846006920F4EA
:1045E00000300861A5480480001D008842F20C01DB
:1045F0000843A249091D08800846008840F48070DD
:1046000008800846008840F0200008800223262207
:1046100003210846FEF7BCFEBDE8F09F9748083826
:10462000008810F0200F7AD09448001F0088944929
:104630000860084600789349087008460078924957
:104640000978884212D18F4840788F49497888424A
:104650000CD18C4880788C498978884206D100201A
:104660008A490870874908704870887085480078C2
:1046700087490978884213D182484078844949782B
:1046800088420DD17F48807881498978884207D156
:1046900001207E49087000207A49087048708870AF
:1046A00077480068592802D102207A490870744876
:1046B0000068582802D101207649087070480068C7
:1046C0000A2865DD6E4800685A2809D10020724921
:1046D000087072490870724908707249087057E092
:1046E0006748006841280AD101206B490870002002
:1046F0006A4908706A4908706A49087048E0604869
:10470000006845280CD100206349087001206349E6
:1047100008700020624908706249087038E0A5E01E
:1047200057480068422807D055480068432803D0FE
:104730005348006844280AD1002057490870574957
:1047400008705749087001205649087020E04C480D
:104750000068462807D04A480068472803D04848E0
:10476000006848280BD100204B4908704B4908705D
:1047700001204B49087000204A49087008E00020D9
:104780004549087045490870454908704549087011
:104790003B4800680A2862DA3948006848B90020B6
:1047A0003D4908703D4908703D4908703D49087011
:1047B00055E033480068012809D1374908700020C6
:1047C00036490870364908703649087047E02C4869
:1047D000006805280BD100202F49087001202F49BF
:1047E000087000202E4908702E49087037E02448D0
:1047F0000068022807D022480068032803D0204818
:10480000006804280AD10020234908702349087051
:104810002349087001202349087020E018480068E7
:10482000062807D016480068072803D014480068F7
:1048300008280BD100201849087018490870012079
:104840001749087000201749087008E00020124935
:104850000870124908701249087012490870094816
:104860004078084988700846007848707047000012
:1048700040420F0000100240000801400844004080
:104880004C000020500000204700002002000020C3
:10489000440000200100002004000020050000204A
:1048A00006000020070000200146002901DA4842E6
:1048B00000E00846704700B503460A46002B08DAB8
:1048C0000120F84908604FF00000F749C1F8940151
:1048D00007E00020F34908604FF00100F249C1F8F9
:1048E00094011846FFF7E0FFF0490880002A08DD30
:1048F0000120EF4908604FF00000EB49C1F89C012E
:1049000007E00020EA4908604FF00100E649C1F8DD
:104910009C011046FFF7C8FFE449091D088000BD4F
:1049200070B505460E46E349284605F073FE08D3E8
:10493000E149284605F06EFF03D3E04800780128DE
:104940000CD101240020DE490860D749C1F890014C
:10495000D7490860D449C1F89C0100E000242046F2
:1049600070BD41F6BC30D74909684242914202DA33
:104970004142D44A1160D3490968814201DDD149DD
:104980000860D14909684242914202DA4142CE4A66
:104990001160CD490968814201DDCB49086070474B
:1049A0002DE9F84F05460E469146C8480078582133
:1049B00091FBF0F7384605F001FE0446DFF810A33E
:1049C0004FF0000BC3480078012803D0C24800789C
:1049D000012834D14FF07E51C048006805F04EFCEC
:1049E000BE49074608604FF07E5105F077FD07D1BC
:1049F000A819FFF759FF074605F0E0FDB849086020
:104A0000B7480168B74805F0A7FCB74908600846F1
:104A1000006805F007FC07464FF03332B34B05F052
:104A2000EBF802D2B248B0490860B249AE4800681B
:104A300005F0F0FE0BD2AF48AB49086007E0AE4886
:104A4000A94908600020A5490860A5490860A14857
:104A50000078012808D1A4480168A848006805F03A
:104A600015FFA64908600FE09B480078012808D18F
:104A70009D480168A148006805F000FC9F49086056
:104A800002E000209D49086021469C48006805F02E
:104A9000C1FE01D29948046084F00047974801683C
:104AA000384605F0B7FE03D284F000409349086011
:104AB00093480078012803D092480078012802D159
:104AC0004FF07E5B01E04FF0000B5946484605F081
:104AD000D5FD00908948006880F000485146404666
:104AE00005F0CCFD0746009905F0D0FE8649086028
:104AF0000846006805F026FDBDE8F88F2DE9FC5F4B
:104B000082480190824800907D48007801280AD1AF
:104B10006E4800785A2191FBF0F4204605F04EFDD6
:104B20007C49086012E07748007801280BD167487B
:104B300000786FF0590191FBF0F4204605F03EFD3E
:104B40007449086002E000207249086072490968EF
:104B5000724A12681144084605F030FD7049086039
:104B60007048006805F05EFB06464FF066326E4BFB
:104B700005F07EF8044604F0B3FD6A490860684811
:104B8000006805F04FFB80464FF03332674B05F06D
:104B90006FF804460D466348006805F043FB06467F
:104BA00022462B4604F0CEFD824604F099FD5D4975
:104BB0000860084601685E48006805F05FFB5C49D4
:104BC0000860544801685A48006805F05FFE58497B
:104BD000086058495648006805F01CFE02D2554846
:104BE0005349086054495248006805F013FD02D249
:104BF00051484F4908604E480099006805F03EFD55
:104C0000044648480199006805F038FD05462146EC
:104C100005F034FB49490860494801684948006883
:104C2000FFF77EFE012802D1002041490860434879
:104C3000006805F087FCBDE8FC9F2DE9F84F0546AC
:104C40000C46414E4FF07C577103284605F01EFE7E
:104C500000903946204605F011FD82463046009905
:104C600005F00CFD8346514605F008FB814605F032
:104C700069FC80464046BDE8F88F10B53220FEF74B
:104C80009DFD0446012C04D10C480078C0430B491B
:104C90000870022C04D12D480078C0432B490870BD
:104CA00010BD000090812142008021423C0800405C
:104CB00098812142000020C2000020420200002012
:104CC00094812142100000201400002001000020E7
:104CD0000000284206000020070000207C00002081
:104CE0007400002000004842780000203333E33F86
:104CF0009A99193F000040406666663F6C000020AC
:104D00000400002005000020700000200000A042E8
:104D1000CDCCCC3E64000020080000200C00002018
:104D20005C000020600000206666E63F3333D33F1E
:104D30006800002000401C4600401CC658000020AF
:104D40001C000020200000200000FA430300002087
:104D50002DE9F04F89B00646012E7DD04621D020A6
:104D6000FFF7FBFA80464521D020FFF7F6FA08EB63
:104D70000027384605F022FC04464821D020FFF7E2
:104D8000ECFA80464721D020FFF7E7FA08EB00272E
:104D9000384605F013FC05463C21D020FFF7DDFA2C
:104DA00080463B21D020FFF7D8FA08EB0027384691
:104DB00005F004FC82464021D020FFF7CEFA804661
:104DC0003F21D020FFF7C9FA08EB0027384605F04D
:104DD000F5FB83464FF08E41204605F01BFD05D2C2
:104DE0004FF08F41204605F051FD04464FF08E41B3
:104DF000284605F00FFD05D24FF08F41284605F0FB
:104E000045FD05464FF08E41504605F003FD05D2A5
:104E10004FF08F41504605F039FD82464FF08E41EC
:104E2000584605F0F7FC05D24FF08F41584605F083
:104E30002DFD834684F000405E490860584605F029
:104E4000F1F9CDE90001504605F0ECF90746DDE93E
:104E5000002304F05FFB00E039E00022564BCDE96F
:104E6000020104F005FF554A554BCDE9040104F059
:104E700025FDCDE9060104F033FC8146204605F00E
:104E8000D1F94FF066324F4BCDE9060104F016FD23
:104E9000074604F025FC04464B480078022806D15A
:104EA00084F000473946484602F0A4FE09E046482F
:104EB0000078032805D184F000473946484602F0BF
:104EC000B0FF42480068424908604248056009B0A6
:104ED000BDE8F08F10B54048008810F0010F67D092
:104EE0003D48008820F001003B4908803B4800789D
:104EF00008B9012000E00020384908700846007811
:104F0000012805D130480078FFF722FF002010BDAE
:104F10000220FFF75EF8324908600320FFF759F8D6
:104F20003049086028480078FFF712FF6420FEF738
:104F30000DFCFFF7A2FE1F48016825480068FFF737
:104F40007CFE294908602748016825480068FFF76A
:104F5000D5FD264908601F4802682248016820489C
:104F60000068FFF71DFD224908601F4800681F49BF
:104F7000096808441E49096808441E4908601A481F
:104F800000681A490968084419490968401A1A4909
:104F90000860FFF7E6FC194801680D480068FFF754
:104FA000BFFC28B91448016812480068FFF783FC69
:104FB0000020ACE72400002000806640F1D4C853F4
:104FC000FB2109406666304000000020E40000201C
:104FD0002000002028000020102C01408C00002020
:104FE000080000200C000020800000208400002029
:104FF0008800002010000020140000201C00002069
:1050000038B50446FB4890F82400C0B114B1022022
:10501000009001E000200090F64A1268D17BF54A2A
:10502000526810786B460122FFF7FBF810B14FF081
:10503000FF3038BD9DF80010EE48417423E0ED4884
:10504000807A10B94FF0FF30F3E724B1E948407C93
:1050500008B10020EDE714B10120009001E000202C
:105060000090E44A1268D17BE24A526810786B469D
:105070000122FFF7D6F810B14FF0FF30D9E79DF8C5
:105080000010DC4841740020D3E738B5002419E053
:10509000D8480068C07AA04204D0D6480068407D55
:1050A000A04200D10CE0D349496808786B46012240
:1050B0002146FFF717F910B14FF0FF3038BD00BFA0
:1050C000601CC4B2CB4840680079A042E0DC0020FC
:1050D000F4E770B504460D46C6480068C07AA042A1
:1050E00004D0C4480068407DA04202D14FF0FF3098
:1050F00070BDC04840680079A04202DC4FF0FF302C
:10510000F6E7BC49496808782B4601222146FFF79B
:10511000E9F8EDE738B50446B64890F82300A04218
:1051200001D1002038BD14B13020009001E00020F2
:105130000090B048807C20B19DF8000040F0020053
:105140000090AC4890F8220020B19DF8000040F09B
:1051500080000090A74A1268117DA64A5268107814
:105160006B460122FFF75DF810B14FF0FF30D9E731
:10517000A04880F823400020D4E738B5044614F056
:10518000700F02D00120009005E014B100200090C3
:1051900001E040200090974A1268917C954A52683D
:1051A00010786B460122FFF73CF820B100219148AE
:1051B0008172481E38BD9DF8000020F040018D48E6
:1051C00001730020009014F0400F04D19DF80000FE
:1051D00040F00400009014F0200F04D19DF800006E
:1051E00040F00200009014F0100F04D19DF8000070
:1051F00040F00100009014F0080F04D19DF8000069
:1052000040F0380000907B4A1268D17C794A52689D
:1052100010786B460122FFF704F820B10021754891
:105220008172481EC6E724B1082C02D00020FFF787
:1052300071FF70488472002101753220FEF771F809
:105240000020B7E738B504466A48807CA04201D107
:10525000002038BD002C46D0664A12681179654A94
:10526000526810786B460122FFF73CF810B14FF0FE
:10527000FF30EEE79DF8000020F0200000905D4A2E
:10528000126811795B4A526810786B460122FEF76A
:10529000C8FF10B14FF0FF30DBE70320FEF741F805
:1052A00002200090534890F8220020B19DF80000A1
:1052B00040F0800000904F4890F8230020B19DF806
:1052C000000040F0300000904A4A1268117D494ABF
:1052D000526810786B460122FEF7A3FF002851D0D8
:1052E0004FF0FF30B5E7434A12681179414A5268DE
:1052F00010786B460122FEF7F5FF10B14FF0FF303A
:10530000A7E73C48807A10F0010F05D09DF8000017
:1053100040F02000009004E09DF8000020F0200004
:105320000090344A12681179324A526810786B46FC
:105330000122FEF776FF10B14FF0FF3089E703201E
:10534000FDF7EFFF2B4890F8220010B1802000906D
:1053500001E000200090274890F8230020B19DF83C
:10536000000040F030000090224A1268117D214A6E
:10537000526810786B460122FEF753FF10B14FF0D0
:10538000FF3066E71B488474002062E708B51948BF
:10539000807A10B94FF0FF3008BD00200090154A08
:1053A0001268D17B134A526810786B460122FEF7CF
:1053B00038FF10B14FF0FF30EEE70E4A1268517916
:1053C0000C4A526810786B460122FEF72AFF10B192
:1053D0004FF0FF30E0E7074A12681179054A52683A
:1053E00010786B460122FEF71CFF28B14FF0FF300A
:1053F000D2E7000090000020F74890F82400002831
:1054000050D00C200090F44A12681179F24A526888
:1054100010786B460122FEF704FF10B14FF0FF3009
:10542000BAE7C0200090EC48807A10F0010F04D059
:105430009DF8000040F020000090E74A12681179C2
:10544000E54A526810786B460122FEF7EAFE10B179
:105450004FF0FF30A0E7E048407C10B10220009000
:1054600001E000200090DC4A1268D17BDA4A5268E1
:1054700010786B460122FEF7D4FE10B14FF0FF30DA
:105480008AE700200090D44A12685179D24A5268C3
:1054900010786B460122FEF7C4FE002852D04FF070
:1054A000FF3079E704200090CB4A12681179CA4A8C
:1054B000526810786B460122FEF7B3FE10B14FF030
:1054C000FF3069E7C448807C20B9C348807A10F077
:1054D000010F02D14020009001E060200090BE4A00
:1054E00012681179BC4A526810786B460122FEF7A7
:1054F00098FE10B14FF0FF304EE7B748407C10B136
:105500000120009001E000200090B34A1268D17B96
:10551000B14A526810786B460122FEF782FE10B144
:105520004FF0FF3038E7AC4A12685179AA4A526806
:105530001078A94B10330122FEF773FE10B14FF023
:10554000FF3029E7002027E770B50446002624F045
:105550000104A14890F8240008B1002070BD9E48C5
:10556000807A10B94FF0FF30F8E79B48057C807ACD
:105570002040994908740846007CA04202D04FF0B0
:10558000FF3600E0002614B99348007D18B10120D1
:10559000FFF736FD02E00020FFF732FD3CB1FFF7D8
:1055A000F5FE20B18C4805744FF0FF30D6E7304649
:1055B000D4E738B504468848807A10B94FF0FF30F8
:1055C00038BDBC2C02DB0120009015E0622C02DB10
:1055D0000220009010E02A2C02DB032000900BE058
:1055E000142C02DB0420009006E00A2C02DB0520CC
:1055F000009001E0062000907748C07A9DF80010E6
:10560000884201D10020DBE7734A12689178724A20
:10561000526810786B460122FEF703FE10B14FF07E
:10562000FF30CDE79DF800106B48C1720020C7E73E
:1056300038B50446282C02DD4FF0FF3038BDDCB908
:105640000020FFF767FD00208DF8000007208DF88F
:105650000100614A1268917C5F4A526810786B467B
:105660000222FEF7DEFD10B14FF0FF30E6E7002129
:10567000594801750020E1E70120FFF74BFD20208C
:105680008DF80000012C06D100208DF801000520C6
:10569000FFF78FFF17E0052C06DC01208DF80100D5
:1056A0000520FFF786FF0EE0142C06DC02208DF8A3
:1056B00001000A20FFF77DFF05E003208DF80100BF
:1056C0001420FFF776FF9DF80100072101EB801001
:1056D000C0B28DF80100404A1268917C3E4A52687F
:1056E00010786B460222FEF79CFD10B14FF0FF30A0
:1056F000A4E7082138488172002101730121017556
:105700000020FFF721FF002098E738B50446324813
:10571000807A10B94FF0FF3038BD2F4890F8240040
:1057200010B14FF0FF30F7E72B48007D50B134B196
:10573000282C04DCE0B2FFF77BFF0020ECE7002020
:10574000FFF776FF042C01DA042404E0B4F57A7F35
:1057500001DD4FF47A744FF47A7090FBF4F0401E40
:10576000C0B200901C4A126851781B4A52681078E7
:105770006B460122FEF755FD10B14FF0FF30CBE72D
:105780009DF80000401C4FF47A7191FBF0F081B25B
:105790001148C1810146C9894810FFF70AFF00205E
:1057A000BAE738B504460C48807A10B94FF0FF309C
:1057B00038BD022C06D0042C07D0082C08D0102CA1
:1057C0000FD10BE0002000900EE0082000900BE0CD
:1057D0001020009008E000009000002018200090A9
:1057E00002E04FF0FF30E3E700BFF948407A9DF850
:1057F0000010B0EBE10F01D10020D9E7F44A1268A4
:10580000D179F34A526810786B460122FEF709FD00
:1058100010B14FF0FF30CBE79DF80000C110EC480D
:1058200041720020C4E738B50446E948807A10B9CF
:105830004FF0FF3038BDFA2C09D0B4F5FA7F09D00B
:10584000B4F57A7F09D0B4F5FA6F0CD108E00020E6
:1058500000900BE00820009008E01020009005E088
:105860001820009002E04FF0FF30E3E700BFD84877
:10587000007A9DF80010B0EBE10F01D10020D9E7CC
:10588000D34A12689179D24A526810786B46012245
:10589000FEF7C7FC10B14FF0FF30CBE79DF80000DA
:1058A000C010CB4908720020C4E71CB580208DF8D9
:1058B0000000C74A1268917CC54A526810786B464E
:1058C0000122FEF7AEFC10B14FF0FF301CBD64208A
:1058D000FDF727FD00208DF80000BD4A1268917C7D
:1058E000BB4A526810786B460122FEF79AFC10B151
:1058F0004FF0FF30EAE7B64A1268917DB44A526829
:1059000010786B460622FEF7EDFC10B14FF0FF3029
:10591000DCE79DF80500C007400F9DF8031001F07B
:10592000010140EA41009DF8011001F0010140EA47
:10593000010494B1012C03D10121A548C17431E0C7
:10594000022C03D10021A248C1742BE02146A1A062
:1059500003F0E2F84FF0FF30B8E79D4A1268D178C3
:105960009B4A526810786B460122FEF7BBFC10B1CF
:105970004FF0FF30AAE79DF8000000F00F042CB9AB
:105980009E4803F0C9F84FF0FF309FE7042C06D182
:105990009BA003F0C1F801218D48C17402E00021F1
:1059A0008B48C174FF218A488172FF2088490872A0
:1059B000FF2187484172C1724FF6FF71C181FF21FB
:1059C000017481740121017380F82210002180F894
:1059D00023104175017516300160416081601638F1
:1059E00080F8241080F82510C1844FF4FA60FFF786
:1059F0001AFF10B14FF0FF3068E70220FFF7D1FE29
:105A000010B14FF0FF3061E72A20FFF7D2FD10B14F
:105A10004FF0FF305AE73220FFF777FE10B14FF01A
:105A2000FF3053E70020FFF78FFD10B14FF0FF303C
:105A30004CE70020FFF706FC10B14FF0FF3045E7C0
:105A40000020FFF79AFB002040E770477CB5044632
:105A50000D465F48807A10F0700F02D14FF0FF3092
:105A60007CBD5B4A1268117B594A526810786B46BC
:105A70000622FEF737FC10B14FF0FF30F0E79DF83B
:105A800001009DF8001040EA012000B220809DF83E
:105A900003009DF8021040EA012000B260809DF8EA
:105AA00005009DF8041040EA012000B2A08015B165
:105AB0002846FFF7CAFF0020D2E77CB504460D4612
:105AC0004348807A10F0080F02D14FF0FF307CBDC0
:105AD0003F4A1268517B3E4A526810786B46062254
:105AE000FEF700FC10B14FF0FF30F0E79DF8010029
:105AF0009DF8001040EA012000B220809DF80300CC
:105B00009DF8021040EA012000B260809DF8050077
:105B10009DF8041040EA012000B2A08015B128468B
:105B2000FFF793FF0020D2E72DE9FE4F05460C4614
:105B30002748807A18B94FF0FF30BDE8FE8F244A1D
:105B40001268917B224A5268107802AB0222FEF75B
:105B5000C9FB10B14FF0FF30EFE79DF809009DF849
:105B6000081040EA012006B214B12046FFF76DFF8D
:105B700017494968C88804F039FD154901904968FA
:105B8000B1F9080004F01AFD8346304604F016FD12
:105B90005946009004F07AFE8246019904F0DCFB3D
:105BA00081461F4904F06AFB80464FF08F4104F0A4
:105BB00065FD074604F0C6FC28600020BDE710B56F
:105BC00088B004461CB94FF0FF3008B010BD29E082
:105BD00090000020556E737570706F72746564204C
:105BE000736F6674776172652070726F6475637429
:105BF000207265762025642E0A0000001CB500087E
:105C000048616C662073656E73697469766974792E
:105C1000207061727420666F756E642E0D0A00002C
:105C200000000C42206830B9606820B9A06810B943
:105C3000002008B010BDFA494968087806AB032275
:105C40001146FEF74FFB10B14FF0FF30F1E79DF822
:105C50001800082101EB201000F00F00ADF8000043
:105C60009DF8190001EB201000F00F00ADF80200C4
:105C70009DF81A0001EB201000F00F00ADF80400B1
:105C800020684100BDF90000403091FBF0F000B207
:105C9000ADF8100060684100BDF90200403091FB92
:105CA000F0F000B2ADF81200A0684100BDF90400A8
:105CB000403091FBF0F000B2ADF81400D8494968CB
:105CC000087806AB06221146FEF70CFB10B14FF028
:105CD000FF30AEE79DF819009DF8181040EA01204A
:105CE00000B2ADF808009DF81B009DF81A1040EABC
:105CF000012000B2ADF80A009DF81D009DF81C10AF
:105D000040EA012000B2ADF80C00BDF81000BDF86B
:105D10000810084400B2ADF81000BDF81200BDF83C
:105D20000A10084400B2ADF81200BDF81400BDF826
:105D30000C10084400B2ADF81400BDF81000000AC1
:105D40008DF81800BDF81000C0B28DF81900BDF82C
:105D50001200000A8DF81A00BDF81200C0B28DF8CA
:105D60001B00BDF81400000A8DF81C00BDF81400DB
:105D7000C0B28DF81D00AA494968087806AB062212
:105D80001146FEF74EFA10B14FF0FF3051E70020F8
:105D90004FE70146A248007A30B1012807D0022817
:105DA00009D003280FD10AE0FA2008800EE04FF452
:105DB000FA7008800AE04FF47A70088006E04FF429
:105DC000FA60088002E00020088000BF00BF0020C9
:105DD000704701469248407A30B1012807D0022826
:105DE00008D003280CD108E0022008700BE0042042
:105DF000087008E00820087005E01020087002E034
:105E00004FF0FF30704700BF8548C07C18B108785C
:105E10004006000E08700020F4E701468048C07A72
:105E2000082817D2DFE800F01704070A0D1013182E
:105E3000BC20088013E06220088010E02A2008803F
:105E40000DE0142008800AE00A20088007E0052001
:105E5000088004E000BF00BF0020088000BF00BF32
:105E60000020704701466E4890F8240010B14FF0B2
:105E7000FF3070476A48C08908800020F9E7014672
:105E800000200880401E704701464FF0FF307047E9
:105E900001466348007A30B1012807D0022808D0B3
:105EA00003280CD108E05F4808600BE05E480860FA
:105EB00008E05E48086005E05D48086002E04FF0D9
:105EC000FF30704700BF0020FBE701465448407A8E
:105ED00030B1012808D002280AD0032810D10BE0E5
:105EE0004FF4804008800EE041F69C7008800AE084
:105EF0004FF48050088006E04FF40060088002E014
:105F00004FF0FF30704700BF4548C07C10B1088893
:105F1000401008800020F5E701464148007C0870E9
:105F20000020704701463E48807A10B10120087079
:105F300001E0002008700020704738B5044638485A
:105F4000807A10B94FF0FF3038BD354A1268117CA5
:105F5000334A526810786B460222FEF7C3F910B13B
:105F60004FF0FF30F0E79DF801009DF8001040EA87
:105F7000012000B220800020E6E72DE9FE4F074611
:105F8000884692461D46DDF830B00026002424489D
:105F900090F8240010B1601EBDE8FE8F002028702C
:105FA0001F48807A10B94FF0FF30F5E71C48007C9D
:105FB00010B94FF0FF30EFE71948007C10F0400FA8
:105FC00001D0B01CC6B21648007C10F0200F01D0E2
:105FD000B01CC6B21248007C10F0100F01D0B01CEB
:105FE000C6B20F48007C10F0080F01D0B01DC6B239
:105FF0000B4A1268917A0A4A526810786B4602225C
:10600000FEF770F910B14FF0FF30C5E79DF80100C1
:106010009DF8001040EA0129B1450BDA0020BBE7EA
:10602000900000200000034300008342333303420A
:1060300033338341FA4840684088B9EB600F17DD7D
:10604000F74A1268517CF64A526810786B46012272
:10605000FEF748F910B14FF0FF309DE79DF80000C2
:1060600010F0100F04D0FFF791F96FF0010093E7E3
:106070005046FFF7EAFCEA4A1268D17AE84A5268C9
:1060800010786B463246FEF72DF910B14FF0FF3015
:1060900082E799FBF6F0401E8BF800000020287084
:1060A000B4422AD0DE48007C10F0080F25D0601CD6
:1060B0001DF800001DF8041040EA012000B2A8F805
:1060C0000000E01C1DF80010A01C1DF8000041EAB3
:1060D000002000B2A8F80200601D1DF80010201D6D
:1060E0001DF8000041EA002000B2A8F8040028785A
:1060F00040F008002870A01D84B2B44213D0C848F4
:10610000007C10F0400F0ED0601C1DF800001DF840
:10611000041040EA012000B23880287840F04000A6
:106120002870A01C84B2B44213D0BD48007C10F08B
:10613000200F0ED0601C1DF800001DF8041040EA6E
:10614000012000B27880287840F020002870A01C40
:1061500084B2B44213D0B248007C10F0100F0ED0BD
:10616000601C1DF800001DF8041040EA012000B278
:10617000B880287840F010002870A01C84B200205D
:106180000AE7F8B504460F461646A54890F82400DD
:1061900010B94FF0FF30F8BDA148807A10B94FF028
:1061A000FF30F8E79E4A1268917A9D4A526810784B
:1061B0006B460222FEF796F810B14FF0FF30EAE787
:1061C0009DF801009DF8001040EA0125A54203DA80
:1061D00000203070401EDEE7914840684088B5EBF3
:1061E000600F17DD8E4A1268517C8D4A5268107814
:1061F0006B460122FEF776F810B14FF0FF30CAE788
:106200009DF8000010F0100F04D0FFF7BFF86FF0FA
:106210000100C0E7E2B2824B1B68D97A804B5B6811
:1062200018783B46FEF75EF810B14FF0FF30B2E74A
:1062300095FBF4F0401E30700020ACE70146784832
:1062400080F82210002070477CB5054674494968E3
:10625000087801AB04220D21FEF744F808B10720AD
:106260007CBD9DF80700C0F301109DF8041001F0FB
:10627000E00140EAE1008DF800009DF80700C0F35E
:1062800081009DF8051001F0E00140EAE1008DF881
:1062900001009DF8070000F003009DF8061001F0D2
:1062A000E00140EAE1008DF8020000241CE01DF846
:1062B000040018B9002045F8240013E0594845F8B7
:1062C000240006E055F82400574904F0D7F945F8B2
:1062D00024001DF80400401E10F0FF000DF804001B
:1062E000F0D100BF601CC4B2032CE0DB0020B7E794
:1062F0002DE9FE4F06460F4600256846FFF7A4FF2E
:10630000002440E056F8240057F82410B0EB010AAE
:1063100001D4514601E0CAF10001084604F04EF9EB
:1063200083464FF08F4104F017F880465DF8240053
:10633000002104F0D3F816D05DF82410404604F094
:106340000BF882464FF07E5104F0A0FA814629F006
:10635000004A3648416A504604F05CFA12D20120E5
:10636000A04005430EE03148C169404604F052F9AF
:1063700005D32E48016A404604F04CFA02D20120AF
:10638000A0400543641C032CBCDB2846BDE8FE8FFF
:106390002DE9FC5F06460F4600252149496808782B
:1063A00001AB03220D21FDF79DFF10B10720BDE8D1
:1063B000FC9F9DF8040000F01F008DF804009DF87C
:1063C000050000F01F008DF805009DF8060000F0A4
:1063D0001F008DF80600002460E056F8240057F8EE
:1063E0002410B0EB010B01D4594601E0CBF10001C0
:1063F000084604F0E3F84FF08F41009003F0ACFF43
:10640000814601A8005DC0B30849086804F0EEF8B1
:1064100083465946064803F09FFF80460FE0000080
:10642000900000207B14AE3E1D5A843FF4B4000857
:1064300000B04C45FE49404604F020F9804601A8D2
:10644000005D401E10F0FF0001A90855F2D1414641
:10645000484603F081FF83464FF07E5104F016FA60
:1064600082462AF0004BF3488169584604F0D2F97D
:1064700013D20120A04005430FE0FFE7ED4801697A
:10648000484604F0C7F805D3EA484169484604F095
:10649000C1F902D20120A0400543641C032C9CDBFF
:1064A000284684E72DE9F04F87B005460C46914613
:1064B00001208DF8100000208DF81100DE4A1268CE
:1064C000917CDD4A5268107804AB0222FDF7A9FEE8
:1064D00020B14FF0FF3007B0BDE8F08FC820FCF7C7
:1064E00020FF00208DF81000D34A1268D17BD24AD9
:1064F0005268107804AB0122FDF793FE10B14FF003
:10650000FF30E8E7CC4A12685179CB4A52681078DC
:1065100004AB0122FDF785FE10B14FF0FF30DAE742
:10652000C54A1268917CC44A5268107804AB0122B3
:10653000FDF777FE10B14FF0FF30CCE7BE4A12688E
:10654000D17DBD4A5268107804AB0122FDF769FE87
:1065500010B14FF0FF30BEE7B74A12681179B64A62
:106560005268107804AB0122FDF75BFE10B14FF0CA
:10657000FF30B0E70C208DF81000AF4A1268117997
:10658000AD4A5268107804AB0122FDF74AFE10B103
:106590004FF0FF309FE70F20FCF7C3FEA648806A4C
:1065A000407A8DF81000A44A12689178A24A526885
:1065B000107804AB0122FDF734FE10B14FF0FF302C
:1065C00089E79D48806A007A8DF810009A4A12681F
:1065D0005178994A5268107804AB0122FDF721FEE8
:1065E00010B14FF0FF3076E7B9F1000F07D09248B5
:1065F000806A807A40F0E0008DF8100004E08E4858
:10660000806A807A8DF810008B4A126891798A4AE4
:106610005268107804AB0122FDF703FE10B14FF071
:10662000FF3058E7B9F1000F07D08348806AC07A7D
:1066300040F0E0008DF8100003E07E48C07A8DF84D
:1066400010007D4A1268D1797B4A5268107804ABF9
:106650000122FDF7E6FD10B14FF0FF303BE7B9F145
:10666000000F02D0C820FCF75CFE40208DF810001F
:10667000714A12681179704A5268107804AB01228D
:10668000FDF7CFFD10B14FF0FF3024E778208DF8F3
:106690001000694A12685179674A5268107804AB51
:1066A0000122FDF7BEFD10B14FF0FF3013E7614945
:1066B0008889FCF736FE00208DF810005E4A1268CB
:1066C00051795D4A5268107804AB0122FDF7A9FDAB
:1066D00010B14FF0FF30FEE6574A1268917A564AE1
:1066E0005268107804AB0222FDF7FCFD10B14FF0A8
:1066F000FF30F0E69DF811009DF8101040EA012BE4
:106700000C209BFBF0F0C6B20020A86068602860F7
:10671000A06060602060824665E0474A1268D17AD6
:10672000454A5268107804AB0C22FDF7DBFD10B12E
:106730004FF0FF30CFE69DF811009DF8101040EAB1
:10674000012000B2ADF808009DF813009DF812106A
:1067500040EA012000B2ADF80A009DF815009DF84E
:10676000141040EA012000B2ADF80C00BDF9081089
:10677000206808442060BDF90A1060680844606021
:10678000BDF90C10A0680844A0609DF817009DF8A2
:10679000161040EA012000B2ADF800009DF8190083
:1067A0009DF8181040EA012000B2ADF802009DF8F3
:1067B0001B009DF81A1040EA012000B2ADF8040059
:1067C000BDF90010286808442860BDF90210686807
:1067D00008446860BDF90410A8680844A8600AF17C
:1067E000010000F0FF0AB24597DB1248D0F800C064
:1067F0002868C117090441EA1041070462460023D2
:10680000384602F064F932460023CDE9020102F075
:106810005EF928600748D0F800C06868C11709040D
:1068200041EA1041070462460023384606E00000B2
:1068300054E3853FF4B400089000002002F047F9CB
:1068400032460023CDE9020102F041F96860FE48BA
:10685000D0F800C0A868C117090441EA1041070434
:1068600062460023384602F032F932460023CDE971
:10687000020102F02CF9A860F348D0F804C02168A6
:10688000C817000440EA11480F0462460023384646
:10689000414602F01CF932460023CDE9020102F024
:1068A00016F92060E848D0F804C06068C1170904F0
:1068B00041EA1041070462460023384602F007F916
:1068C00032460023CDE9020102F001F96060DE48A2
:1068D000D0F804C0A068C117090441EA10410704B8
:1068E00062460023384602F0F2F832460023CDE932
:1068F000020102F0ECF8A060A068002804DDA068A6
:10690000A0F58030A06003E0A06800F58030A060B2
:106910000020E0E538B50446CC4890F82400A042B9
:1069200001D1002038BD24B3C84890F8250010B923
:106930004FF0FF30F6E70020FEF762FB0020FEF785
:1069400081FCC249C88CFEF7E0FE00200090BF49E0
:10695000496808786B4601222321FDF762FC01217A
:10696000BA4880F824100120FEF74AFBFEF70EFD1E
:1069700013E00020FEF744FBB448007C0090B349CC
:10698000496808786B4601222321FDF74AFC002163
:10699000AE4880F82410FEF7F9FC0020C2E72DE98C
:1069A000F04F8DB083460F4602200C90A74890F818
:1069B000240020B10020FFF7ADFF012600E00026F3
:1069C00003A8FFF7E6F905A8FFF703FA01A8FFF708
:1069D00024FA02A8FFF746FA9C4890F80AA004A8F7
:1069E000FFF79AFA002407E0002239465846FFF7DD
:1069F00059FD00B902E0641C022CF5DB00BF022C3B
:106A000001D1002528E0002407E0012206A909A8F9
:106A1000FFF748FD00B902E0641C022CF5DB00BF63
:106A2000022C01D1002517E006A93846FFF760FCCB
:106A300000F0FF0809A95846FFF7AAFC00F0FF097B
:106A40000025B9F1000F01D145F00105B8F1000FA3
:106A500001D145F0020500BFFF207C490872FF21EB
:106A60007A484172C1724FF6FF71C181FF21817274
:106A7000017401210173BDF80C00FEF7D4FE9DF8EE
:106A80001400FEF78EFEBDF80400FEF792FDBDF87F
:106A90000800FEF73AFE5046FEF76FFB9DF8100027
:106AA000FEF752FD16B10120FFF734FF28460DB066
:106AB000BDE8F08FF8B504460D46164616B94FF0FE
:106AC000FF30F8BD6148807A10B94FF0FF30F8E729
:106AD00020128DF80000E0B28DF801009DF8010051
:106AE00028445A4949684989884202DD4FF0FF30FD
:106AF000E7E7564A1268117E544A526810786B468E
:106B00000222FDF78EFB10B14FF0FF30D9E7EAB259
:106B10004E4B1B68597D4D4B5B6818783346FDF72B
:106B200080FB10B14FF0FF30CBE70020C9E7F8B58C
:106B300004460D46164616B94FF0FF30F8BD4348DF
:106B4000807A10B94FF0FF30F8E720128DF800007E
:106B5000E0B28DF801009DF8010028443B494968E6
:106B60004989884202DD4FF0FF30E7E7374A126873
:106B7000117E364A526810786B460222FDF751FBAF
:106B800010B14FF0FF30D9E7EAB2304B1B68597DA6
:106B90002E4B5B6818783346FDF7A4FB10B14FF01D
:106BA000FF30CBE70020C9E72DE9F04385B005466B
:106BB0000E4690469946254890F8250020B14FF0A2
:106BC000FF3005B0BDE8F08316B94FF0FF30F8E7AD
:106BD000002423E0281B102801DD102000E0281BE2
:106BE00087B2321939462046FFF764FF10B14FF0E3
:106BF000FF30E6E701AA39462046FFF798FF10B1BB
:106C00004FF0FF30DDE730193A4601A902F000F8F5
:106C100010B16FF00100D4E7E01984B2AC42D9DBC7
:106C20004FEA28208DF8000008F0FF008DF80100E1
:106C3000064A1268917E054A526810786B46022215
:106C4000FDF7EFFA38B103E0F4B40008900000203B
:106C50004FF0FF30B5E701218A4880F82510A0F8F1
:106C600026900020ADE70146864890F82400087081
:106C70000020704702464FF0FF30704701464FF04A
:106C8000FF307047F8B505460F461446002C70D00B
:106C9000B5F5FF5F01DDFF2605E0202D01DA0126B5
:106CA00001E0C5F3471607B90127282C02DD4FF094
:106CB000FF30F8BD7348407D28BB724890F824002F
:106CC00038B10020FFF726FE01216E4880F8201021
:106CD00003E000216B4880F820106A481630FFF767
:106CE00058F868481830FFF774F866481A30FFF70C
:106CF00094F864481C30FFF7B5F86248817A8177D0
:106D00001F30FFF709F90020FEF77AF90020FEF79F
:106D10008FFC00208DF800005A4A12689178594A79
:106D2000526810786B460122FDF77BFA10B14FF0E4
:106D3000FF30BEE740208DF80000524A1268D17B38
:106D4000504A526810786B460122FDF76AFA00B18A
:106D500065E08DF800608DF801704A4A1268117A7A
:106D6000484A526810786B460222FDF75AFA08B179
:106D700055E047E00520FCF7D4FA4248407A072165
:106D800001EBC000C0B28DF800003E4A1268D17914
:106D90003C4A526810786B460122FDF742FA00B176
:106DA0003DE020208DF80000012C03D100208DF85B
:106DB00001000EE0052C03DC01208DF8010008E045
:106DC000142C03DC02208DF8010002E003208DF872
:106DD00001009DF80100072101EB8010C0B28DF881
:106DE0000100284A1268917C264A526810786B4646
:106DF0000222FDF716FA00B111E001212148417588
:106E0000002056E71F4A1632002103E0505C00B113
:106E100005E0491C0C29F9D34FF0FF3049E7FF206A
:106E200018490872FF2117484172C1724FF6FF716D
:106E3000C181FF2181720174012101730146887FA4
:106E4000FEF79BF90F49C88AFEF7EDFC0D49087E55
:106E5000FEF7A7FC0B49488BFEF7ABFB0949888B73
:106E6000FEF753FC0749C87FFEF76EFB054890F814
:106E7000200010B10120FFF74DFD002101484175B0
:106E8000002016E79000002010B5C8234FF4806260
:106E9000F74940F6F630FFF787FE10BD10B586B013
:106EA0000446F4A000680390F3A000680290F3A0E9
:106EB00000680190F2A00068009004F0030003A9AC
:106EC000085C8DF8140003A8C4F3C101405C8DF880
:106ED000150003A8C4F38111405C8DF8160004F07E
:106EE000030002A9085C8DF8100002A8C4F3C101D8
:106EF000405C8DF8110002A8C4F38111405C8DF84C
:106F0000120005AA032140F22640FFF7D3FD18B175
:106F10004FF0FF3006B010BD04AA032140F22A4012
:106F2000FFF7C8FD10B14FF0FF30F3E7019805906F
:106F30000098049014F0040F0BD09DF8140040F05A
:106F400001008DF814009DF8100040F001008DF84C
:106F5000100014F0200F0BD09DF8150040F0010038
:106F60008DF815009DF8110040F001008DF811001A
:106F700014F4807F0BD09DF8160040F001008DF8CE
:106F800016009DF8120040F001008DF8120005AACD
:106F900003214FF48860FFF78DFD10B14FF0FF30F3
:106FA000B8E704AA032140F23140FFF783FD10B196
:106FB0004FF0FF30AEE7B34804810020AAE71FB5C9
:106FC0000446B048007A00F0030054F82000019015
:106FD000AC48007A10F0040F02D0019840420190B2
:106FE000A848007AC0F3C10054F820000290A548D8
:106FF000007A10F0200F02D0029840420290A1487F
:10700000007AC0F3811054F8200003909D48008955
:1070100010F4807F02D00398404203909A4901986F
:1070200080FB0101800F40EA81000190964902989F
:1070300080FB0110820042EA91700290924903980D
:1070400080FB0110820042EA917003900198000ECB
:107050008DF800000198000C8DF801000198000ADD
:107060008DF802000198C0B28DF803006A46042131
:107070004FF47470FFF71EFD18B14FF0FF3004B0ED
:1070800010BD0298000E8DF800000298000C8DF8DB
:1070900001000298000A8DF802000298C0B28DF833
:1070A00003006A4604214FF47570FFF703FD10B129
:1070B0004FF0FF30E3E70398000E8DF800000398CF
:1070C000000C8DF801000398000A8DF80200039867
:1070D000C0B28DF803006A4604214FF47670FFF7C2
:1070E000E9FCCCE770B588B0064601A8FEF7EDFED6
:1070F000BDF804000021C90341EA5045C4036148BA
:10710000007A00F0030056F8200005905D48007AF0
:1071100010F0040F02D00598404205905948007ABB
:10712000C0F3C10056F8200006905648007A10F0CF
:10713000200F02D00698404206905248007AC0F3D1
:10714000811056F8200007904E48008910F4807F87
:1071500002D00798404207900598C117A0FB04236E
:1071600001FB043100FB0510810041EA927005909B
:107170000698C117A0FB042301FB043100FB051096
:10718000810041EA927006900798C117A0FB042382
:1071900001FB043100FB0510810041EA9270079069
:1071A0000598000E8DF808000598000C8DF8090070
:1071B0000598000A8DF80A000598C0B28DF80B00FA
:1071C0000698000E8DF80C000698000C8DF80D0046
:1071D0000698000A8DF80E000698C0B28DF80F00D0
:1071E0000798000E8DF810000798000C8DF811001C
:1071F0000798000A8DF812000798C0B28DF81300A6
:1072000002AA0C214FF42570FFF754FC08B070BDA2
:1072100030B585B004461DA207CA02AB07C3C82C0F
:1072200003DD4FF0FF3005B030BDC82090FBF4F017
:10723000401E85B2280A8DF80000E8B28DF80100E2
:107240006A46022140F21620FFF734FC10B14FF0DD
:10725000FF30E8E702AA0C2140F6C120FFF72AFC24
:1072600010B14FF0FF30DEE7064884810020DAE7F6
:107270006AB500084CCD6C000CC92C00365676005F
:10728000264666004805002009E3CA02FEF2ABC4A8
:10729000AAF1DFDFBBAFDFDF0146FC488089088051
:1072A000002070472DE9FC4706460F4616F0070FF1
:1072B00002D0B7F5C86F03DD4FF0FF30BDE8FC87A3
:1072C000384603F093F98146F14903F045F88046CA
:1072D0006846FEF77EFD9DF80000022806D00428CF
:1072E00016D0082826D0102848D135E04FF08D411F
:1072F000404603F0C3F9814603F040F984B2E54902
:10730000404603F0BBF9814603F038F985B238E016
:107310004FF08C41404603F0B1F9814603F02EF95D
:1073200084B2DD49404603F0A9F9814603F026F90D
:1073300085B226E04FF08B41404603F09FF981462D
:1073400003F01CF984B2D549404603F097F9814611
:1073500003F014F985B214E04FF08A41404603F07F
:107360008DF9814603F00AF984B2CD49404603F015
:1073700085F9814603F002F985B202E04FF0FF3053
:107380009CE700BF20128DF80400E0B28DF80500E4
:1073900028128DF80600E8B28DF8070016F0010FEC
:1073A00014D001AA02214FF4EA70FFF783FB10B159
:1073B0004FF0FF3082E70DF1060202214FF4927088
:1073C000FFF778FB10B14FF0FF3077E716F0020FB0
:1073D00014D001AA02214FF4EC70FFF76BFB10B13F
:1073E0004FF0FF306AE70DF1060202214FF494706E
:1073F000FFF760FB10B14FF0FF305FE716F0040FAE
:1074000014D001AA02214FF4EE70FFF753FB10B124
:107410004FF0FF3052E70DF1060202214FF4967053
:10742000FFF748FB10B14FF0FF3047E7002045E77A
:1074300038B504460020009014F0010F04D09DF8E8
:10744000000040F03000009014F0020F04D09DF8CE
:10745000000040F00C00009014F0040F04D09DF8E0
:10746000000040F0030000906A4601214FF4A47030
:10747000FFF720FB38BD38B50446012C01DA0124A2
:1074800002E0042C00DD0424601EC0B200906A46B5
:10749000012140F24F10FFF70DFB38BD38B504460F
:1074A000052094FBF0F085B228128DF80000E8B2B8
:1074B0008DF801006A4602214FF4EF70FFF7FAFAE7
:1074C00038BD38B50446052094FBF0F085B228128B
:1074D0008DF80000E8B28DF801006A4602214FF4F1
:1074E000ED70FFF7E7FA38BDF8B505460E464FF4E4
:1074F0007A7095FBF0F000FB06F4200E8DF800008A
:10750000200C8DF80100200A8DF80200E0B28DF801
:1075100003006A4604214FF4AE70FFF7CBFAF8BDC2
:1075200038B50446052094FBF0F084B220128DF8A3
:107530000000E0B28DF801006A4602214FF4AD7000
:10754000FFF7B8FA38BD38B50446052094FBF0F0D3
:1075500084B220128DF80000E0B28DF801006A4676
:1075600002214FF4AC70FFF7A5FA38BD38B50446D8
:1075700014B94FF0FF3038BD6A4604214FF45870FB
:10758000FFF7D5FA10B14FF0FF30F4E79DF8000097
:1075900000069DF8011040EA01409DF8021040EA03
:1075A00001209DF80310084320600020E3E738B570
:1075B0000446200E8DF80000200C8DF80100200AF2
:1075C0008DF80200E0B28DF803006A4604214FF402
:1075D0005870FFF76FFA38BD38B5044614B94FF04C
:1075E000FF3038BD6A4604214FF47170FFF79FFAEF
:1075F00010B14FF0FF30F4E79DF8000000069DF851
:10760000011040EA01409DF8021040EA01209DF877
:107610000310084300EB8000800020600020E0E7BA
:1076200038B504461420B4FBF0F4200E8DF80000A9
:10763000200C8DF80100200A8DF80200E0B28DF8D0
:1076400003006A4604214FF47170FFF733FA38BD26
:1076500038B5044664B120208DF8000028208DF84C
:10766000010030208DF8020038208DF8030004E07E
:10767000A3220421684601F0F7FA6A46042140F685
:107680009E20FFF717FAFDF781FE38BD4805002060
:1076900000004843000040460000C045000040454F
:1076A0000000C04438B5044664B1C0208DF8000025
:1076B000C2208DF80100C4208DF80200C6208DF88C
:1076C000030004E08B220421684601F0CDFA6A46EB
:1076D000042140F69820FFF7EDF9FDF757FE38BD7D
:1076E0003EB504466CB1FCA1D1E900208968CDE922
:1076F000002002916A4609214FF49760FFF7DAF9FA
:107700003EBDF8A2D2E900109268CDE901020091D5
:107710006A4609214FF49760FFF7CCF9F0E73EB5D0
:10772000044602208DF80000CA208DF80100E320F5
:107730008DF8020009208DF803006A4604216820B4
:10774000FFF7B8F9A3208DF8000014F0400F09D01E
:10775000C0208DF80100C8208DF80200C2208DF8ED
:10776000030006E0A3208DF801008DF802008DF8DB
:10777000030014F4C07F09D0C4208DF80400CC208D
:107780008DF80500C6208DF8060006E0A3208DF8D0
:1077900004008DF805008DF80600A3208DF8070081
:1077A0008DF808008DF809006A460A2140F6A720E6
:1077B000FFF780F914F0030F03D020208DF80000AC
:1077C00002E0D8208DF800006A46012140F6B6207C
:1077D000FFF770F914F0200F03D00120FFF780FFAE
:1077E00002E00020FFF77CFF14F4C07F21D014F4E6
:1077F000807F0CD0B2208DF800008B208DF8010026
:10780000B6208DF802009B208DF803000BE0B0201D
:107810008DF8000080208DF80100B4208DF8020062
:1078200090208DF803006A46042140F6A220FFF75D
:1078300041F914F0010F24D0F8208DF800006A46B9
:1078400001214FF40B60FFF735F9FA210720FFF70C
:1078500029FD0720FFF7ECFD0120FFF70CFE642057
:10786000FFF71CFE4FF4FA70FFF72BFEC821A0486B
:10787000FFF73AFE2820FFF753FE0A20FFF763FECA
:1078800008E0D8208DF800006A4601214FF40B6013
:10789000FFF710F914F0020F03D0D9208DF8000083
:1078A00002E0D8208DF800006A46012140F23D70C8
:1078B000FFF700F914F0040F03D00120FFF7F2FEE8
:1078C00002E00020FFF7EEFE14F0100F03D00120BD
:1078D000FFF7BEFE02E00020FFF7BAFE44F008000A
:1078E00084494881FDF752FD00208249887314F0D5
:1078F000400F03D00846807B801D887314F4C07F3E
:1079000004D07C48807B801D7A49887314F0140F62
:1079100004D07848807B10307649887314F0030FC8
:1079200004D07448807B001D7249887300203EBDDE
:107930000146704840890880002070472DE9F041D9
:107940000446E07800F0C006E07800F03F0560787B
:1079500010F0010F13D0EF102846E91705EB517115
:10796000C910A5EBC101491C01F0FF08614800687E
:1079700020B16048414602683846904700BF6078B1
:1079800010F0080F06D05B48406818B1B011594A92
:10799000516888470020BDE8F08110B586B00446E4
:1079A00055A207CA03AB07C356A207CA8DE8070052
:1079B000012C09D0022C0ED103AA0B2140F6822003
:1079C000FFF778F806B010BD6A460B2140F682201A
:1079D000FFF770F8F6E74FF0FF30F3E72DE9F04FCF
:1079E0008DB00746884615469946DDE9166B00249A
:1079F000002030803F49887B5A4605A9FEF7C1FB2D
:107A000018B1601E0DB0BDE8F08F3A48807A10F0D2
:107A1000140F7DD09DF8140000069DF8151040EA63
:107A200001409DF8161040EA01209DF81710084308
:107A300028609DF8180000069DF8191040EA0140E2
:107A40009DF81A1040EA01209DF81B100843686059
:107A50009DF81C0000069DF81D1040EA01409DF8AD
:107A60001E1040EA01209DF81F100843A8609DF8F1
:107A7000200000069DF8211040EA01409DF82210E8
:107A800040EA01209DF823100843E86004F110004B
:107A9000C4B2286800140190686800140290A868B5
:107AA00000140390E8680014049001984043029980
:107AB00001FB0100039901FB0100049901FB010A8C
:107AC000BAF1706F02DBBAF1885F22DDFDF75EFC70
:107AD00000203080401E95E7B8AAB38DB4980D35CC
:107AE0005D000000B8AAAAAAB088C3C5C7000000FC
:107AF00009E3CA0248050020D8B1B9F38BA391B6B7
:107B000009B4D900DAB1B9F38BA391B6DAB4DA00CB
:107B100005E0B6F9000040F48070308000BF3448C2
:107B2000807A10F0400F24D005A9601C085C095D24
:107B300040EA012000B2A8F8000005A9E01C095C99
:107B400005AAA01C105C41EA002000B2A8F80200BF
:107B500005A9601D095C201D105C41EA002000B2EF
:107B6000A8F80400A01DC4B2B6F9000040F0080057
:107B700030801F48408910F4C07F21D005A9601CC7
:107B8000085C095D40EA012000B2388005A9E01CCC
:107B9000095C05AAA01C105C41EA002000B27880B4
:107BA00005A9601D095C201D105C41EA002000B29F
:107BB000B880A01DC4B2B6F9000040F0700030805B
:107BC0000B48807A10F0030F03D005A90819FFF7BE
:107BD000B5FE4846FDF739FF002013E7014604488B
:107BE0000160002070470146014841600020704755
:107BF000480500202DE9F04105460C46C2480168C1
:107C0000204602F043FE0746C0480168384602F0AD
:107C100035FD0646BE480168304602F02FFBBC49E0
:107C20000860BC484168BC48006802F02FFE064668
:107C3000B8488168304602F029FEB8490860B54866
:107C4000C06880F000404860B248C06880F00040E2
:107C50008860B3480068C8600868AC49096802F0E9
:107C60000DFD0646AB480168304602F007FBA94906
:107C70000860AA494868A549096802F0FFFC064661
:107C8000A4484168304602F0F9FAA2494860A34985
:107C900088689E49096802F0F1FC06469D488168A3
:107CA000304602F0EBFA9B4988609C49C8689749C6
:107CB000096802F0E3FC06469648C168304602F0C7
:107CC000DDFA9449C86092480168284602F0DEFD5A
:107CD000944908609448007802F088FC06468D4874
:107CE0000168304602F0CAFC904908608E4800786E
:107CF00002F07CFC064687488168304602F0BEFCF4
:107D00008B4908608848007802F070FC0746874875
:107D10000168384602F0B2FC0646864801683046E3
:107D200002F0ACFA84490860084601687F480068A0
:107D300002F012FB814908607F4801687C480068B6
:107D400002F00AFB7E490860784800687D490860B7
:107D50007548007802F04AFC06466E484168304695
:107D600002F08CFC78490860764801687348006826
:107D700002F084FC064667480168304602F07BFD4D
:107D800064490860704801686C48006802F076FC3D
:107D9000064660484168304602F06DFD5D49486026
:107DA000684801686648006802F068FC0646594861
:107DB0008168304602F05FFD56498860624801687C
:107DC0005F48006802F05AFC06465248C1683046D7
:107DD00002F051FD4F49C860524801685748006899
:107DE00002F04CFC06464A480168304602F046FA6A
:107DF000474908604B4801685148006802F03EFC62
:107E0000064641480168304602F038FA3E490860AB
:107E100008460168204602F039FD4C490860BDE87B
:107E2000F0812DE9F04F8BB083468A46504602F030
:107E3000F9F98046464A474B01F01AFFCDE90201A5
:107E40003348006802F0EEF9CDE90001DDE90223D4
:107E500001F078FC04460D463F4801684FF07E5023
:107E600002F014FD804602F0DDF9064622462B465C
:107E700001F0FEFECDE9060137480168584602F0E0
:107E8000FDFB044602F0CEF9CDE90401DDE906234D
:107E900001F058FCCDE9080101F022FC1C49086002
:107EA0000BB0BDE8F08F2DE9F04104460D46E561C9
:107EB000E168206802F0E2F906463146206802F0E7
:107EC0004BFA20616168E06902F0E0FC0746216935
:107ED00002F0D4FB0646616802F0D0F960614FF011
:107EE0007E50216902F0D2FC0646216802F0C6FBF2
:107EF000A06160696060A168A06902F0BFF92060BC
:107F00006069BDE8F0810000EC000020CC0000209A
:107F1000E4000020D4000020C0000020580500200C
:107F2000C4000020F0000020D0000020F400002059
:107F3000F8000020C8000020FC0000200001002004
:107F400004010020080100200C010020E8000020AE
:107F50007B14AE47E17A743FBC000020014691F9E2
:107F60000020002A01DD00201EE091F90020002AF7
:107F700001DA042018E091F90120002A01DD012036
:107F800012E091F90120002A01DA05200CE091F9B4
:107F90000220002A01DD022006E091F90220002AD9
:107FA00001DA062000E00720704770B50546284634
:107FB000FFF7D4FF0446E81CFFF7D0FF44EAC000F7
:107FC00084B2A81DFFF7CAFF44EA801084B220469D
:107FD00070BD70B588B002A905A8FEF7E0FC0446A4
:107FE000072C3FD101A8FDF753FF059802F0E6FAF0
:107FF0000646019902F042FB054602F0A3FA0590FD
:10800000069802F0DBFA0646019902F037FB0546B6
:1080100002F098FA0690079802F0D0FA0646019905
:1080200002F02CFB054602F08DFA079005A8FEF73A
:10803000C6FF6846FDF749FFBDF8001002984843A7
:108040000290BDF80010039848430390BDF800105B
:1080500004984843049002A8FFF744F8FEA000F0FB
:108060005BFD00BF08B070BD2DE9F04304460D462E
:10807000DDE907670021012041E0DFF800C43CF89A
:108080001080A0F1010CDFF8F49329F81C8009F1AD
:10809000160C3CF81090A0F1010CDFF8E08308F119
:1080A000160828F81C9008F1160C3CF81090A0F166
:1080B000010C08F1160828F81C9008F1160C3CF881
:1080C0001090A0F1010C08F1160828F81C9008F196
:1080D000160C3CF81090A0F1010C08F1160828F8D5
:1080E0001C9008F1160C3CF81090A0F1010C08F15E
:1080F000160828F81C9000F1010C0CF0FF000A286B
:10810000BBDBDFF878C3ACF81240ACF82850ACF811
:108110003E20ACF85430ACF86A60ACF880700021B6
:10812000002008E0DFF854C33CF910C0614400F1BE
:10813000010C0CF0FF000A28F4DB4FF00A0C91FB55
:10814000FCFC0FFA8CFCDFF83483A8F814C0002183
:1081500000200AE0DFF824C30CF1160C3CF910C033
:10816000614400F1010C0CF0FF000A28F2DB4FF033
:108170000A0C91FBFCFC0FFA8CF8DFF800C3ACF89A
:108180002A80002100200AE0DFF8F0C20CF12C0C5C
:108190003CF910C0614400F1010C0CF0FF000A280A
:1081A000F2DB4FF00A0C91FBFCFC0FFA8CF8DFF8C5
:1081B000CCC2ACF84080002100200AE0DFF8BCC24D
:1081C0000CF1420C3CF910C0614400F1010C0CF0C0
:1081D000FF000A28F2DB4FF00A0C91FBFCFC0FFABF
:1081E0008CF8DFF898C2ACF85680002100200AE035
:1081F000DFF888C20CF1580C3CF910C0614400F162
:10820000010C0CF0FF000A28F2DB4FF00A0C91FB86
:10821000FCFC0FFA8CF8DFF864C2ACF86C8000212B
:1082200000200AE0DFF854C20CF16E0C3CF910C0DB
:10823000614400F1010C0CF0FF000A28F2DB4FF062
:108240000A0C91FBFCFC0FFA8CF8DFF830C2ACF89A
:108250008280BDE8F08338B50446032302226B21F7
:10826000D0200094FCF713F938BD38B5044602233A
:1082700004221B21D0200094FCF709F938BD38B541
:108280000446022304221C21D0200094FCF7FFF8AE
:1082900038BD10B50446234606226B21D020FCF7DA
:1082A0002BF910BD10B5764B01227521D020FCF7BB
:1082B00077F87348007810BD10B5FFF7F3FF682812
:1082C00001D1012010BD0020FCE710B50446234673
:1082D00005226A21D020FCF70FF910BD10B5044625
:1082E000234601223721D020FCF706F910BD10B536
:1082F0000220FFF7B0FF0320FFF7B7FF0020FFF7D2
:10830000BEFF0020FFF7C5FF0020FFF7DEFF0020C3
:10831000FFF7E4FF10BD38B5002000906B46012246
:1083200075216820FBF7DEFF56A000F0F5FB9DF8F5
:108330000000682810D000BFBFF34F8F5A48006874
:1083400000F4E06059490843001D57490860BFF335
:108350004F8F00BF00BFFEE7FDF7A7FA00283CD112
:108360007820FCF70AFF10B946A000F0D5FB782072
:10837000FDF7EAF810B94EA000F0CEFBC820FDF7DB
:10838000C4F910B954A000F0C7FBFEF77DFD10B989
:108390005BA000F0C1FB6748FFF707FE0446FEF74D
:1083A0007DFD10B964A000F0B7FB40F27310FFF739
:1083B000B6F910B96AA000F0AFFBC820FEF728FF9D
:1083C00010B971A000F0A8FBFFF703FE0120FEF733
:1083D000A1FA10B975A000F09FFB38BD2DE9F04F50
:1083E0008DB00AA87A490BAB06AACDE900107949ED
:1083F0007948FFF7F3FA7648008810F4807F29D097
:10840000069802F0DBF804464FF09D4101F0A4FF0E
:1084100072490860079802F0D1F804464FF09D4178
:1084200001F09AFF6E490860089802F0C7F8044608
:108430004FF09D4101F090FF6A490860099802F0F1
:10844000BDF804464FF09D4101F086FF6649086083
:108450006248CBE04FE1000073657474696E672079
:10846000626961732073756363657366756C6C799B
:10847000202E2E2E2E2E2E0D0A0000007605002016
:10848000680500206D70755F7365745F73656E734A
:108490006F7220636F6D706C657465202E2E2E2EAA
:1084A0002E2E0D0A000000000CED00E00000FA0581
:1084B0006D70755F636F6E6669677572655F66691B
:1084C000666F20636F6D706C657465202E2E2E2E86
:1084D0002E2E0D0A000000006D70755F7365745FCD
:1084E00073616D706C655F7261746520636F6D7030
:1084F0006C657465202E2E2E2E2E2E0D0A00000087
:10850000646D705F6C6F61645F6D6F74696F6E5FD7
:108510006472697665725F6669726D7761726520F3
:10852000636F6D706C657465202E2E2E2E2E2E0DB1
:108530000A00000020010020646D705F7365745FA5
:108540006F7269656E746174696F6E20636F6D70B0
:108550006C657465202E2E2E2E2E2E0D0A00000026
:10856000646D705F656E61626C655F666561747590
:10857000726520636F6D706C657465202E2E2E2ED3
:108580002E2E0D0A00000000646D705F7365745F2D
:108590006669666F5F7261746520636F6D706C658C
:1085A0007465202E2E2E2E2E2E0D0A006D70755FF6
:1085B0007365745F646D705F737461746520636F5D
:1085C0006D706C657465202E2E2E2E2E2E0D0A00D9
:1085D0003C01002036010020300100201001002065
:1085E00014010020180100201C01002001684FF038
:1085F000804002F043F804905C480168049802F05F
:108600003DF882465A4801684FF0404002F036F883
:10861000049058480168049802F030F883465146A7
:1086200001F02CFE059001F0FDFD804600F022FDDA
:1086300006464FF06632504B01F01AFB044601F03B
:108640004FF84E490860494801684FF0804002F0F9
:1086500015F8019045480168019802F00FF882462C
:10866000434801684FF0404002F008F8019040484C
:108670000168019802F002F88346514602F006F9BB
:1086800081464FF07E5101F0F9FD044601F0CAFD2C
:10869000CDE904013A4801684FF0804001F0EEFF57
:1086A000834633480168584601F0E8FF81462F4869
:1086B00001684FF0804001F0E1FF83462D480168DA
:1086C000584601F0DBFF8246494601F0D7FD0446DB
:1086D00001F0A8FDCDE90201DDE9042300F01AFF55
:1086E00007464FF06632244B01F0C2FA054600F00F
:1086F000F7FF244908600DB0BDE8F08F2DE9F05F69
:108700004221D020FBF729FE05464121D020FBF76E
:1087100024FE05EB0024204601F050FF82464FF076
:108720008E41504602F076F805D24FF08F41504608
:1087300002F0ACF882461449504601F00DFE834623
:1087400001F070FD8046114A114B00F0FBFF064618
:108750000022104B01F08CFA044600F0C1FF824663
:10876000504601F0EFFEBDE8F09F00001801002028
:10877000140100201C01002066A64C40400100208E
:1087800010010020440100200000AA43A4703D0A0B
:10879000D74342400000244038B5FBF7C4F8A8A2F4
:1087A00000210846FBF7C6F90C2001230090A648DB
:1087B000027800211E20FBF773F9A34800780128F6
:1087C00005D1A2A200212D20FBF7B4F912E09E48AA
:1087D0000078022805D19EA200212D20FBF7AAF9DE
:1087E00008E099480078032804D19BA200212D209D
:1087F000FBF7A0F99AA20A210020FBF79BF99A48FF
:1088000000680A2190FBF1F40C200223224600901C
:108810002D20FBF745F9944800680A2190FBF1F2FE
:1088200001FB12040C200123224600904420FBF798
:1088300037F98EA20A213A20FBF77CF98CA20A2193
:108840005020FBF777F98BA214210020FBF772F977
:108850008A48006800280FDA89A214212D20FBF72E
:1088600069F90C20052300908448006842421421D5
:108870004120FBF715F90DE082A214212D20FBF712
:1088800059F90C20052300907C48142102684120EE
:10889000FBF706F97CA21E210020FBF74BF97C4870
:1088A000006800280FDA76A21E212D20FBF742F97E
:1088B0000C20052300907648006842421E2141208A
:1088C000FBF7EEF80DE06FA21E212D20FBF732F929
:1088D0000C20052300906E481E2102684120FBF702
:1088E000DFF86CA228210020FBF724F95FA22821E1
:1088F0003A20FBF71FF969A228215020FBF71AF94B
:1089000067480068642190FBF1F40C2002232246A2
:10891000282100902D20FBF7C3F8614800686421EE
:1089200090FBF1F201FB12040C20022322462821C5
:1089300000904420FBF7B4F859480068642190FB8C
:10894000F1F201FB12000A2807DA0C2002230022B0
:10895000282100903E20FBF7A3F852A232210020EC
:10896000FBF7E8F800215148006801F053FE11D2EE
:108970004F494E48006801F081FC054601F0FEFDBC
:1089800004460C2003232246322100902D20FBF7C1
:1089900087F80CE04548006801F0F0FD04460C2023
:1089A00003232246322100902D20FBF779F8FAF7B5
:1089B00097FF38BD2DE9F84F39480068A0F25640BE
:1089C0004000032190FBF1FABAF1000F01DA4FF0F9
:1089D000000ABAF1640F01DD4FF0640A2C48006808
:1089E00001F0F3F80746334A334B01F041F90546ED
:1089F00001F0BCF88146B9F1000F01DAC9F10009B4
:108A00001E48006801F0E1F805462A4A2A4B01F0A9
:108A10002FF9074601F0AAF80446002C00DA644258
:108A20002248006801F08EFD05460AF0FF0309F0B8
:108A3000FF02E1B2009021A000F06EF8BDE8F88FCF
:108A40005741592D0000000000000020444D500007
:108A50004B616C6D616E000048756275000000002E
:108A600057656E6475000000180000202E0000009D
:108A700060430000456E636F310000000800002075
:108A80002D0000002B000000456E636F32000000D7
:108A90000C000020566F6C7461000000560000004E
:108AA0001C000020416E676C650000002000002063
:108AB0000000B4439A9999999999F13F5A25643ADB
:108AC00025643A25643A25644C240000704710B5AB
:108AD0004C1084EA530404D54042C1F1000138BF70
