:020000040800F2
:103000006809002001320008053200080732000874
:10301000093200080B3200080D32000800000000E1
:103020000000000000000000000000000F32000857
:1030300011320008000000001332000815320008A9
:10304000173200081732000817320008173200083C
:10305000173200081732000817320008173200082C
:10306000173200081732000817320008173200081C
:10307000173200081732000817320008173200080C
:1030800017320008173200081732000817320008FC
:1030900017320008173200081732000817320008EC
:1030A00017320008494A0008173200081732000892
:1030B00017320008173200081732000817320008CC
:1030C00017320008173200081732000817320008BC
:1030D0001732000893390008F5430008173200083A
:1030E00017320008173200081732000800F002F803
:1030F00000F070F80AA090E8000C82448344AAF122
:103100000107DA4501D100F065F8AFF2090EBAE81F
:103110000F0013F0010F18BFFB1A43F0010318470B
:10312000ECAD00000CAE00000A444FF0000C10F8AB
:10313000013B13F0070408BF10F8014B1D1108BF35
:1031400010F8015B641E05D010F8016B641E01F8D5
:10315000016BF9D113F0080F1EBF10F8014BAD1C25
:103160000C1B09D16D1E58BF01F801CBFAD505E043
:1031700014F8016B01F8016B6D1EF9D59142D6D39D
:10318000704700000023002400250026103A28BFC5
:1031900078C1FBD8520728BF30C148BF0B607047C9
:1031A000662909F09486642905F0D28300207047CF
:1031B0001FB506F087FB04000020002108F0A0FCEA
:1031C000401C60600020002108F084FCE0601FBD0E
:1031D00010B510BD06F07EFE1146FFF7E9FF00F0C6
:1031E0002BF807F0CDF803B4FFF7F2FF03BC00F0B3
:1031F0000BFA000030BF72B662B680F308887047E1
:1032000008480047FEE7FEE7FEE7FEE7FEE7FEE7C9
:10321000FEE7FEE7FEE7FEE703480449044A054BE4
:1032200070470000ED3000086803002068090020A6
:103230006805002068050020092000F08DF948206D
:1032400000F02CF8022000F072F9012000F06FF974
:1032500000F048FC00F07AFC4FF4E131482000F027
:10326000EBF94FF41651242001F052F81D2141F6DC
:103270001F4000F071FD41F61F41312000F0E6FCD7
:1032800001F0C9FC06E005F0B9FA034908606420C2
:1032900000F03BF8F7E70000180000204FF0E021B5
:1032A000096921F004014FF0E0221161C21700EB1F
:1032B0005272C2F3C702224B1A701946097801EB09
:1032C0004102C2EBC1114FF6FF7202EAC1011D4A71
:1032D0001180704701461A4A12784A434FF0E023A2
:1032E0005A6100229A6101221A6100BF4FF0E02268
:1032F000106910F0010F02D010F4803FF6D00022C8
:103300004FF0E0231A619A61704701460D4A128816
:103310004A434FF0E0235A6100229A6101221A6168
:1033200000BF4FF0E022106910F0010F02D010F43E
:10333000803FF6D000224FF0E0231A619A61704777
:103340003000002032000020A44A0A400243A44B6F
:103350001A6070470146072323EA01021202A04BBC
:103360001B1D18684FF6FF0318409E4B184310436F
:103370009B4B1B1D186070472DE9F041074688469E
:1033800014461D462846FFF7E5FFC5F1040007FA7D
:1033900000F60F20284100EA0800064306F00F0659
:1033A000E21704EBD26252114FF0E02303EB8202EA
:1033B000D2F800212146E31704EBD3635B11A4EBA1
:1033C000431C012303FA0CF31A432046E31704EBD2
:1033D000D3635B114FF0E02C0CEB8303C3F80021A7
:1033E0008148005D40EA06107F490855BDE8F0813C
:1033F00070B504460B46CE1701EB9676C6F38700F0
:10340000CE1701EB9676B610A1EB8606B606350E02
:10341000764B9B6943F00103744EB3614FEAB633B8
:1034200053F820300F26AE40B343714E46F820309B
:10343000334653F8203004FA05F61E436C4B43F82C
:1034400020606C4B1B6801268E403343694E33600D
:1034500012F0010F08D0674B0C331B6801268E4019
:103460003343644E0C36336012F0020F08D0614BC8
:1034700008331E6801238B401E435E4B08331E60D9
:1034800070BD00B5002059490861C860142048612A
:1034900000208861C8610846006840F001000860AB
:1034A000084640685449084050494860084600684A
:1034B000524908404D4908600846006820F48020C1
:1034C00008600846406820F4FE00486000208860DC
:1034D0004FF440514FF00060FFF736FF00BD10B5CC
:1034E0003F480830006840F004003D49083108605A
:1034F0003E48C06940F080503C49C861404840683F
:1035000040F480703E4948600846006840F004007E
:1035100008600846006840F002000860FFF76AFE95
:1035200010BD3048001D2E49091D08607047014636
:1035300049062E4A926942F001022C4B9A612C4AAC
:10354000083A526822F0E062294B083B5A601A465A
:1035500052680A435A60704730B504460025FFF7A9
:1035600090FF2248006840F480302049086000BF86
:103570001E480068400CFBD04FF480601B49486037
:10358000A01EC4B20846406840EA8440486008462D
:10359000406840F4803048601A48006840F03200CB
:1035A000184908601148006840F080700F490860B1
:1035B00000BF0E480068400EFBD00C48406840F049
:1035C00002000A49486005E008484068C0F38705E2
:1035D00005F00305022DF7D130BD000080FFFF1F6D
:1035E00008ED00E00000FA0500E400E000100240F1
:1035F00008000140000401400000FFF8FFFFF6FE54
:103600000070004000200240014600BF704700BF2C
:10361000F24A128812F0400FFAD0C2B2EF4B1B1DD3
:103620001A807047ED49091D088000BFEB490988E1
:1036300011F0400FFAD070472DE9F05F05460E46B5
:10364000300109F07FFA8146E54905FB01F009F0F8
:1036500079FA8246494609F02BF90746384609F0BF
:1036600039FA84B2204609F06DFA8346394609F0EA
:10367000AEFB82464FF0834109F0ACFA814609F077
:1036800029FA80464FF6FF7000EA041404EB0800A4
:1036900084B2D448806940F00400D2498861084669
:1036A000806940F480408861CF48006820F47F60E2
:1036B000CD4908600846006840F40B600860CA48BD
:1036C0000830006840F00400C74908310860C54868
:1036D000C06840F48040C349C8600846C06820F410
:1036E0008040C860BD4808300480001D008842F258
:1036F0000C010843B9490C3108800846008840F4A1
:10370000807008800846008840F02000088001236F
:10371000252219460020FFF72FFEBDE8F09FB34990
:10372000B34A12688854B2490968491CB04A11600A
:1037300011460968C82901DB0021116070472DE995
:10374000F04F91B0A948007818B9002011B0BDE839
:10375000F08FA8A005F0C6F8A7A1A44805F0B6FA16
:1037600010B9FFF7DEFE12E110AAA5A19F4805F0EF
:10377000B3F901283CD11098002802DB10980228E8
:1037800001DB0020E2E71098C0EBC0009F4901EB8D
:10379000800081691098C0EBC0009C4A02EB800059
:1037A0004069109AC2EBC202984B03EB8202126985
:1037B000CDE9002002911099C1EBC1011C4604EB38
:1037C0008101CB681099C1EBC10104EB81018A68CA
:1037D0001099C1EBC10104EB8100022101F0AFF9A6
:1037E0008BA005F07FF88DA0109905F07BF8CEE056
:1037F0000FAB10AA8DA17D4805F06EF902283DD1CE
:103800001098002802DB1098022801DB00209DE7B9
:103810001098C0EBC0007D4901EB800080691099D1
:10382000C1EBC101794A02EB81014969109AC2EBEF
:10383000C202764B03EB82021269CDE900210290AD
:103840001099C1EBC1011A4602EB8101CB681099B6
:10385000C1EBC10102EB810000210F9A01F06FF969
:103860006BA005F03FF80F9808F088FF0446224649
:103870000B4672A0109905F035F888E00CA80DA948
:103880000BAA0EABCDE90021029010AA6FA15748F8
:1038900005F022F9052840D11098002802DB109885
:1038A000022801DB002051E7DDE90C020B99CDE98C
:1038B000001202901099C1EBC101544B03EB81013E
:1038C0008A681099C1EBC10103EB810001210E9BB5
:1038D00001F035F94EA005F005F80C9808F04EFF00
:1038E00004460D460D9808F049FF06460F460B9812
:1038F00008F044FF804689460E9808F03FFF824654
:1039000052460B46CDE90089CDE90267CDE9044571
:1039100057A0109904F0E6FF39E00CA80DA908AAF9
:103920000AABCDE90032CDE9021007AB09AA58A1D4
:103930002E4805F0D1F8062824D1344880690D9A24
:103940000799CDE900120290304882680121099B55
:1039500001F0F5F82D4988690C9908F03BFF044601
:103960000D9908988DE813002848426A01211C30FF
:103970000A9B01F0E4F826A004F0B4FF50A004F084
:10398000B1FF04E050A004F0ADFF0020DEE601200E
:10399000DCE610B51148008810F0200F1DD00F484C
:1039A000001D00884C490870084604780A2C02D093
:1039B0000D2C00D05CB90020FFF7B1FEFFF7BFFE71
:1039C00000200B49086045A004F08CFF05E0034887
:1039D000001D04802046FFF7A2FE10BD0038014004
:1039E00040420F0000100240040801405401002032
:1039F00034000020200D0A00524553544152540017
:103A000053544F5020232564000000001C02002066
:103A10000D0A20636D64203A000000000D0A205357
:103A2000746F7020232564200D0A0000504F534509
:103A300020232564202D5020256600000D0A2050EB
:103A40002023256420253366200A0000574156456F
:103A500020232564202D41202566202D4F2025661A
:103A6000202D46202566202D5020256600000000D0
:103A70000D0A2057202325642041202566204F2051
:103A8000256620462025662050202566200A000055
:103A90004C494E4B414745202D4130202566202D75
:103AA0004F30202566202D4131202566202D4F31B5
:103AB000202566202D46202566202D5020256600D5
:103AC0000D0A2043200A00000D0A2057726F6E670E
:103AD00020636D640A00000038000020200D0A20D9
:103AE0003E3E00001448806940F010001249886191
:103AF0001248406820F00F001049486008464068AE
:103B000040F0030048600846C06840F40050C860B8
:103B100070470B490968491C094A116081420AD162
:103B2000084909686FEA0101074AC2F8B4114FF069
:103B30000001034A1160704700100240001001406C
:103B400040000020B4012242000022423748806930
:103B500040F00400354988613548006820F0704025
:103B6000334908600846006840F00040086030486B
:103B70000830006840F400402D4908310860704763
:103B800001462C48006828B92B48007810B901205C
:103B9000294A107029480078B0B9274800780128D0
:103BA00007D127480078401C254A10700120234A7D
:103BB000107023480078022806D10020204A107097
:103BC000204A1080022070471A480068012804D15A
:103BD0000020194A1070194A1070194800780128FD
:103BE0000ED118480088401C80B2164A10808842C6
:103BF00006DD0020124A1070124A10800120E2E710
:103C00000020E0E71048007838B10A48006820B981
:103C100000200D49087001207047064800680128FF
:103C200001D1094908700020F6E7000000100240A9
:103C3000040801403C0121424400002045000020CE
:103C400046000020480000204A00002070B50546CC
:103C50000C463548806940F4006033498861334838
:103C60000580001F048031482038008840F00100A2
:103C70002E49203908800846008840F0400008801E
:103C80002A482C38008840F0010028492C39088047
:103C90000223192203210120FFF76EFB70BD70B5CE
:103CA00004460D462048C06940F001001E49C86125
:103CB0000846806940F0040088611D48006820F4CF
:103CC0007F401B4908600846006840F402400860D5
:103CD000C80484850585808B40F48070C90488837E
:103CE0000846808B88830846808B88830846008C32
:103CF00008840846008C40F4805008840846808977
:103D000040F0100088810846808940F001008881D9
:103D10000846008840F00100088001231C2203218E
:103D20001846FFF729FB70BD001002402C2C014003
:103D3000000801402F48806940F008002D49886143
:103D40002D48006880B22C490860084600682B495D
:103D5000084329490860704700B503460A46FFF743
:103D6000E9FF2448C06940F004002249C8610846C0
:103D7000806940F0080088611F48001D006820F03D
:103D8000FF001D49091D08600846006840F0BB009F
:103D900008601B480380001F028019481038008803
:103DA00040F4C0401649103908800846008840F0A9
:103DB000600008800846008840F4006008800846DB
:103DC000008840F008000880081D008840F48050FA
:103DD000091D08800846008840F480700880C813D8
:103DE00007492C3908800846008840F00100088007
:103DF00000BD000000100240000C01400000222223
:103E00002C080040FE48806940F00800FC498861A9
:103E1000FC48006820F47F40FA49086008460068C2
:103E200040F44C500860704710B5F648006820F424
:103E30007040F44908600846006840F4405008604B
:103E40000120F1490860F148D0F82C0108B90020A0
:103E500010BD0120EE490860FFF73CFA0020EB4955
:103E6000C1F8AC01EB48006808B10020F0E7012080
:103E7000FFF730FA0020E64908604FF00100E7E75D
:103E800010B5E048006820F47040DE49086008463C
:103E9000006840F4405008600020DD490860DB49BC
:103EA000C1F8AC014FF00100FFF714FA0120D84926
:103EB0000860D649C1F8AC01FFF70CFA10BD10B587
:103EC0000024D048006820F47040CE4908600846BD
:103ED000006840F4004008600120CB490860FFF70B
:103EE000F9F90120C949C1F8A801FFF7F3F90AE07F
:103EF000601CC4B2322C03DDFFF7C2FF002010BDEE
:103F00000120FFF7E7F9C34800680028F0D1C04955
:103F100008604FF00100F2E710B50020BC490860CE
:103F2000B848006820F47040B64908600846006848
:103F300040F4405008604FF00000B449C1F8AC01B3
:103F40004FF00100FFF7C6F90120B1490860FFF703
:103F5000C1F90020AD49C1F8A80110BD10B500207D
:103F6000AB490860A748006820F47040A549086084
:103F70000846006840F4405008604FF00100A34933
:103F8000C1F8AC01FFF7A6F90120A1490860FFF7CD
:103F9000A1F900209D49C1F8A80110BD70B50446E3
:103FA0009848006820F47040964908600846006808
:103FB00040F440500860002095490860054619E02B
:103FC000E009914908604FEA44604FEA10644FF0FD
:103FD0000100FFF77FF901208C49C1F8A801FFF724
:103FE00079F900208A4908604FF00100FFF772F963
:103FF000681CC5B2082DE3DB70BD2DE9F041054614
:104000000E4617469846FFF70FFF10B90120BDE88E
:10401000F0816906080EFFF7C1FFFFF750FF18B9DE
:10402000FFF72EFF0120F2E73046FFF7B7FFFFF75B
:1040300046FF00240BE018F80400FFF7AFFFFFF77E
:104040003EFF18B9FFF71CFF0020E0E7641CBC42EC
:10405000F1DBFFF715FF0020D9E770B50546002416
:104060006848006820F470406649086008460068A7
:1040700040F400400860002616E000206449086013
:104080004FF00200FFF726F901206049C1F8A801AE
:104090006006040E5F48006808B1601CC4B20220CC
:1040A000FFF718F9701CC6B2082EE6DB15B1FFF752
:1040B00033FF01E0FFF752FF204670BD2DE9F041CC
:1040C00006460F4614461D46FFF7AEFE10B9012006
:1040D000BDE8F0817106080EFFF760FFFFF7EFFE05
:1040E00018B9FFF7CDFE0120F2E73846FFF756FF7B
:1040F000FFF7E5FEFFF798FE012101EB4601C8B28C
:10410000FFF74CFFFFF7DBFE0DE0012C04D1002090
:10411000FFF7A3FF287003E00120FFF79EFF287040
:104120006D1C601EC4B2002CEFD1FFF7A9FE002069
:10413000CEE770B505460E460024FFF775FE28460B
:10414000FFF72CFF641CFFF7BAFE3046FFF726FF8F
:10415000641CFFF7B4FEFFF767FE691CC8B2FFF7E7
:104160001DFF641CFFF7ABFE0020FFF776FF04463F
:10417000FFF786FE204670BD2DE9F04107468846D0
:1041800015461E460024FFF74FFE3846FFF706FF90
:10419000FFF795FE4046FFF701FFFFF790FEFFF7A0
:1041A00043FE791CC8B2FFF7F9FEFFF788FE00BF97
:1041B0000DE0681EA04204D00120FFF74EFF3055ED
:1041C00003E00020FFF749FF3055601CC4B2AC4249
:1041D000EFDBFFF755FE2046BDE8F0812DE9F04109
:1041E00080460D4616461F460024FFF71DFE40463A
:1041F000FFF7D4FEFFF763FE2846FFF7CFFE0BE084
:1042000000100240040C0140AC8121420080214298
:10421000A88121422C812142FFF751FE00BF06E018
:10422000385DFFF7BBFEFFF74AFE601CC4B2B44224
:10423000F6DBFFF725FE0120BDE8F08170B50546ED
:104240000E46144631462846FFF773FF20700120C2
:1042500070BD37B504460D4602AB01222946204603
:10426000FFF7BCFF3EBD2DE9F843074688461446DC
:104270001D46089E6A4641463846FFF7DFFF28B3D1
:10428000601CFF2101FA00F0C4F108012944491E15
:10429000FF220A41104300F0FF09C5F1080006FAA9
:1042A00000F0C6B2C4F1070006419DF8000000EA24
:1042B000090000909DF80000304300909DF8002018
:1042C00041463846FFF7C5FFBDE8F8830020FBE70D
:1042D000F8B506460F4614461D466A46394630462E
:1042E000FFF7ACFF2DB10120A0409DF8001008435E
:1042F00005E00120A0409DF8001021EA0000C0B2B6
:1043000000909DF8002039463046FFF7A2FFF8BD27
:104310002DE9F05F05460E46300108F013FC81469A
:10432000C94905FB01F008F00DFC8246494608F03A
:10433000BFFA0746384608F0CDFB84B2204608F0A5
:1043400001FC8346394608F042FD82464FF0834126
:1043500008F040FC814608F0BDFB80464FF6FF7038
:1043600000EA041404EB080084B2B848806940F005
:104370000400B64988610846C06940F40030C8614D
:10438000B348006820F47F40B149086008460068DF
:1043900040F40B400860AE480C30006840F0040068
:1043A000AB490C310860A948006940F40030A749C6
:1043B00008610846006920F400300861A5480480BF
:1043C000001D008842F20C010843A249091D088023
:1043D0000846008840F4807008800846008840F055
:1043E000200008800223262203210846FEF7C4FF8E
:1043F000BDE8F09F97480838008810F0200F7AD069
:104400009448001F00889449086008460078934942
:1044100008700846007892490978884212D18F487E
:1044200040788F49497888420CD18C4880788C49F3
:104430008978884206D100208A4908708749087027
:10444000487088708548007887490978884213D178
:10445000824840788449497888420DD17F488078E5
:1044600081498978884207D101207E49087000205F
:104470007A4908704870887077480068592802D1D6
:1044800002207A49087074480068582802D1012037
:1044900076490870704800680A2865DD6E48006833
:1044A0005A2809D10020724908707249087072496F
:1044B00008707249087057E06748006841280AD1BF
:1044C00001206B49087000206A4908706A49087029
:1044D0006A49087048E06048006845280CD100200F
:1044E0006349087001206349087000206249087020
:1044F0006249087038E0A5E057480068422807D0B4
:1045000055480068432803D05348006844280AD11E
:104510000020574908705749087057490870012012
:104520005649087020E04C480068462807D04A48A1
:104530000068472803D04848006848280BD100206D
:104540004B4908704B49087001204B490870002006
:104550004A49087008E0002045490870454908703C
:1045600045490870454908703B4800680A2862DAE6
:104570003948006848B900203D4908703D49087035
:104580003D4908703D49087055E0334800680128EE
:1045900009D137490870002036490870364908703B
:1045A0003649087047E02C48006805280BD10020E8
:1045B0002F49087001202F49087000202E490870EB
:1045C0002E49087037E024480068022807D02248A6
:1045D0000068032803D02048006804280AD100207E
:1045E0002349087023490870234908700120234992
:1045F000087020E018480068062807D016480068B0
:10460000072803D01448006808280BD10020184957
:1046100008701849087001201749087000201749D0
:10462000087008E000201249087012490870124909
:10463000087012490870094840780849887008468F
:10464000007848707047000040420F0000100240A0
:104650000008014008440040540000205800002099
:104660004F000020020000204C000020010000202C
:1046700004000020050000200600002007000020A4
:104680000146002901DA484200E00846704700B5BB
:1046900003460A46002B08DA0120FA4908604FF069
:1046A0000000F949C1F8940107E00020F5490860CD
:1046B0004FF00100F449C1F894011846FFF7E0FFFC
:1046C000F2490880002A08DD0120F14908604FF016
:1046D0000000ED49C1F89C0107E00020EC490860AA
:1046E0004FF00100E849C1F89C011046FFF7C8FFF0
:1046F000E649091D088000BD41F6BC30E54909685E
:104700004242914202DA4142E24A1160E1490968BB
:10471000814201DDDF490860DF4909684242914278
:1047200002DA4142DC4A1160DB490968814201DD5D
:10473000D949086070472DE9F04F8DB006460F4605
:10474000904699461A9807F0A2FC82460022D34B65
:1047500007F0DAFA42464B46CDE90201D048D1498A
:1047600007F0FCFCCDE90001DDE9022307F0F6FCCF
:10477000CDE90401DDE9162307F00AFACDE90601C7
:1047800007F02AF932463B46CDE9080107F0E6FC7E
:10479000CDE90A01DDE9182307F0FAF904460D46D0
:1047A0000022C14B2046294607F0D6FD02D2002444
:1047B000BD4D08E00022BD4B2046294607F092FC83
:1047C00001D20024B94D204629460DB0BDE8F08F36
:1047D0002DE9F04F8BB004468946B548006807F0D4
:1047E00056FC07460022B34B07F08EFA054607F049
:1047F0009DF90A90207820B1012813D0022848D1D1
:1048000047E0AD49A06808F0E5F90746AB4907F075
:10481000E1FF06460A9908F0DDF9054608F03EF981
:10482000606036E0206907F0A9FF05460E46A069E2
:1048300007F0A4FFCDE90601606907F09FFF074676
:104840008846E06807F09AFF82468B46CDE9036907
:104850000295DDE906013A464346CDE9000150469E
:104860005946FFF768FFCDE9080107F05FF9A0603E
:104870009149A06808F0AEF90746904907F0AAFFF1
:1048800006460A9908F0A6F9054608F007F960609F
:1048900000BF00BF60680BB0BDE8F08F10B53220DC
:1048A000FFF76EF90446012C04D185480078C04317
:1048B00083490870022C04D182480078C0438149A2
:1048C000087010BD2DE9F04F89B00646012E7DD04D
:1048D0004621D020FFF72DFC80464521D020FFF750
:1048E00028FC08EB0027384608F014F90446482154
:1048F000D020FFF71EFC80464721D020FFF719FC8F
:1049000008EB0027384608F005F905463C21D02081
:10491000FFF70FFC80463B21D020FFF70AFC08EB95
:104920000027384608F0F6F882464021D020FFF7ED
:1049300000FC80463F21D020FFF7FBFB08EB00275F
:10494000384608F0E7F883464FF08E41204608F0DD
:104950000DFA05D24FF08F41204608F043FA044685
:104960004FF08E41284608F001FA05D24FF08F41F2
:10497000284608F037FA05464FF08E41504608F0B9
:10498000F5F905D24FF08F41504608F02BFA8246D8
:104990004FF08E41584608F0E9F905D24FF08F41AB
:1049A000584608F01FFA834684F0004046490860E4
:1049B000584607F0E3FECDE90001504607F0DEFE61
:1049C0000746DDE9002306F0DBFE00E039E00022C7
:1049D0003E4BCDE9020107F0C1FB314A3C4BCDE92A
:1049E000040107F091F9CDE9060107F09FF881462F
:1049F000204607F0C3FE4FF06632364BCDE9060184
:104A000007F082F9074607F091F80446324800782B
:104A1000022806D184F000473946484603F06AF977
:104A200009E02D480078032805D184F00047394675
:104A3000484603F076FA2948006829490860294861
:104A4000056009B0BDE8F08F10B52748008810F068
:104A5000010F72D02448008820F00100224908800C
:104A60002248007808B9012000E000201F490870A2
:104A70000846007801283BD117480078FFF722FF4D
:104A8000002010BD90812142008021423C0800405E
:104A900098812142100000201400002000408F4027
:104AA000F1D4C853FB2119400000F03F0000F0BFD3
:104AB000D0CF00080070A740000016440080BB441F
:104AC0000200002003000020240000200080664037
:104AD000FB2109406666304000000020F000002005
:104AE0002000002028000020102C01409800002009
:104AF000FE480078FFF7E6FE6420FFF70AF8FFF7AC
:104B0000CDFEFB4800680A30F94908600846016894
:104B1000F848FFF75DFEF8490860F5480168F54878
:104B20001C30FFF755FEF5490860FFF7E5FDF34837
:104B30000168F1480068FFF7AAFD002010BD2DE9CB
:104B4000F05F04460D4616469946DDE90AAB4DB1C5
:104B5000012D07D0022D05D0E9A003F0C3FE0020EF
:104B6000BDE8F09F4FF07E51304608F0FFF804D3C7
:104B7000E749304607F0FAFF0AD2304607F0FEFD5B
:104B800007463A460B46E3A003F0ACFE0020E7E7F9
:104B90004FF07E51484608F0E9F804D3002148461A
:104BA00007F0E4FF04D2E0A003F09CFE0020D7E76A
:104BB0004FF07E51504608F0D9F804D3D4495046FE
:104BC00007F0D4FF04D2DCA003F08CFE0020C7E77E
:104BD000584607F0D3FD07460022DC4B07F0BCFB2C
:104BE00008D3584607F0CAFD07460022D84B07F005
:104BF00079FA04D2D7A003F075FE0020B0E7257043
:104C0000A660C4F80C90C4F810A0C4F814B00C98B6
:104C1000A0610120A4E72DE9F047D248006807F021
:104C200036FA07460022D04B07F06EF8054606F02C
:104C30007DFF8146002430E00220C4EBC401AD4A70
:104C400002F821000020C4EBC40102EB810188605E
:104C5000C4EBC40102EB8101C8604FF07E50C4EB8D
:104C6000C40102EB810148610020C4EBC40102EBE6
:104C700081010861C4EBC40102EB810188614946EE
:104C8000BA4807F0A7FF054607F008FFC4EBC401C8
:104C9000984A02EB81014860641C022CCCDB0120A5
:104CA000BDE8F0872DE9F84F05460C46B04E4FF0B1
:104CB0007C577103284608F095F800903946204645
:104CC00007F088FF82463046009907F083FF83464D
:104CD000514607F07FFD814607F0E0FE80464046E2
:104CE000BDE8F88F70B505460E46A249284607F084
:104CF0003DFF08D3A049284608F038F803D39F4861
:104D0000007801280CD1012400209D4908609D49AC
:104D1000C1F890019C4908609A49C1F89C0100E0E3
:104D20000024204670BD2DE9FC5F9848019098480A
:104D300000909848007801280AD1974800785A21B5
:104D400091FBF0F4204607F0E5FE9449086012E07C
:104D50009348007801280BD18F4800786FF05901F3
:104D600091FBF0F4204607F0D5FE8C49086002E084
:104D700000208A4908608B4909688B4A12681144EF
:104D8000084607F0C7FE894908608948006807F0AF
:104D9000F5FC06464FF06632864B07F0DFF9044615
:104DA00006F0C4FE824908608048006807F0E6FC0F
:104DB00080464FF03332804B07F0D0F904460D4661
:104DC0007B48006807F0DAFC064622462B4606F0D0
:104DD000DFFE824606F0AAFE7549086008460168B3
:104DE0007648006807F0F6FC744908606B48016873
:104DF0007248006807F0F6FF7049086070496F4814
:104E0000006807F0B3FF02D26D486C4908606D4935
:104E10006A48006807F0AAFE02D26A48674908603B
:104E200066480099006807F0D5FE0446604801997D
:104E3000006807F0CFFE0546214607F0CBFC62492B
:104E400008606248016862480068FFF74BFF01286C
:104E500002D10020594908605B48006807F01EFE37
:104E6000BDE8FC9F2DE9F84F05460E4691464A489D
:104E70000078582191FBF0F7384607F04BFE0446C6
:104E8000DFF850A14FF0000B53480078012803D001
:104E900052480078012827D14FF07E5150480068D1
:104EA00007F098FC4E49074608604FF07E5107F026
:104EB000C1FD07D1A819FFF7E3FB074607F02AFE5B
:104EC0004849086047480168474807F0F1FC4749EE
:104ED00008600846006807F051FC07464FF033327F
:104EE000434B07F0FFF885E092E00000000000204F
:104EF000600000201C020020100000201400002090
:104F00000D0A2057726F6E67206D6F6465200A006E
:104F1000000080BF0D0A2057726F6E6720504F53FC
:104F2000202566200A0000000D0A2057726F6E6768
:104F30002041200A000000000D0A2057726F6E67A2
:104F4000204F6666736574200A0000000000F83F79
:104F50000000D03F0D0A2057726F6E672046712007
:104F60000A000000D0CF00080070A7400080BB44BA
:104F70000000FA43000020C200002042020000208E
:104F80009481214200802142988121420000A04268
:104F9000CDCCCC3E04000020010000207000002099
:104FA00005000020080000200C0000206800002000
:104FB0006C0000206666E63F3333D33F7400002068
:104FC00000401C4600401CC6640000201C0000205D
:104FD00020000020000028420600002007000020DA
:104FE000880000208000002000004842840000204B
:104FF0003333E33F02D236483649086036493548F4
:10500000006807F0B3FE0BD233483249086007E06E
:105010003248304908600020314908603149086051
:1050200031480078012808D12A4801682F480068D3
:1050300007F0D8FE2D4908600FE02D4800780128C0
:1050400008D1244801682948006807F0C3FB2749B4
:10505000086002E0002025490860214623480068D6
:1050600007F084FE01D22148046084F000471F4805
:105070000168384607F07AFE03D284F000401B49ED
:1050800008601C480078012803D01B4800780128DC
:1050900002D14FF07E5B01E04FF0000B59464846CD
:1050A00007F098FD00901148006880F000485146D4
:1050B000404607F08FFD0746009907F093FE0F4921
:1050C00008600846006807F0E9FCBDE8F88F0000BA
:1050D0009A99193F84000020000040406666663FB0
:1050E00088000020800000200600002078000020BA
:1050F0000700002004000020050000207C000020A4
:1051000038B50446FB4890F82400C0B114B1022021
:10511000009001E000200090F64A1268D17BF54A29
:10512000526810786B460122FEF767FF10B14FF00E
:10513000FF3038BD9DF80010EE48417423E0ED4883
:10514000807A10B94FF0FF30F3E724B1E948407C92
:1051500008B10020EDE714B10120009001E000202B
:105160000090E44A1268D17BE24A526810786B469C
:105170000122FEF742FF10B14FF0FF30D9E79DF852
:105180000010DC4841740020D3E738B5002419E052
:10519000D8480068C07AA04204D0D6480068407D54
:1051A000A04200D10CE0D349496808786B4601223F
:1051B0002146FEF783FF10B14FF0FF3038BD00BF2E
:1051C000601CC4B2CB4840680079A042E0DC0020FB
:1051D000F4E770B504460D46C6480068C07AA042A0
:1051E00004D0C4480068407DA04202D14FF0FF3097
:1051F00070BDC04840680079A04202DC4FF0FF302B
:10520000F6E7BC49496808782B4601222146FEF79B
:1052100055FFEDE738B50446B64890F82300A042A4
:1052200001D1002038BD14B13020009001E00020F1
:105230000090B048807C20B19DF8000040F0020052
:105240000090AC4890F8220020B19DF8000040F09A
:1052500080000090A74A1268117DA64A5268107813
:105260006B460122FEF7C9FE10B14FF0FF30D9E7BF
:10527000A04880F823400020D4E738B5044614F055
:10528000700F02D00120009005E014B100200090C2
:1052900001E040200090974A1268917C954A52683C
:1052A00010786B460122FEF7A8FE20B1002191483C
:1052B0008172481E38BD9DF8000020F040018D48E5
:1052C00001730020009014F0400F04D19DF80000FD
:1052D00040F00400009014F0200F04D19DF800006D
:1052E00040F00200009014F0100F04D19DF800006F
:1052F00040F00100009014F0080F04D19DF8000068
:1053000040F0380000907B4A1268D17C794A52689C
:1053100010786B460122FEF770FE20B1002175481F
:105320008172481EC6E724B1082C02D00020FFF786
:1053300071FF70488472002101753220FDF7E5FF8E
:105340000020B7E738B504466A48807CA04201D106
:10535000002038BD002C46D0664A12681179654A93
:10536000526810786B460122FEF7A8FE10B14FF08C
:10537000FF30EEE79DF8000020F0200000905D4A2D
:10538000126811795B4A526810786B460122FEF769
:1053900034FE10B14FF0FF30DBE70320FDF7B5FF1F
:1053A00002200090534890F8220020B19DF80000A0
:1053B00040F0800000904F4890F8230020B19DF805
:1053C000000040F0300000904A4A1268117D494ABE
:1053D000526810786B460122FEF70FFE002851D06C
:1053E0004FF0FF30B5E7434A12681179414A5268DD
:1053F00010786B460122FEF761FE10B14FF0FF30CE
:10540000A7E73C48807A10F0010F05D09DF8000016
:1054100040F02000009004E09DF8000020F0200003
:105420000090344A12681179324A526810786B46FB
:105430000122FEF7E2FD10B14FF0FF3089E70320B3
:10544000FDF763FF2B4890F8220010B180200090F8
:1054500001E000200090274890F8230020B19DF83B
:10546000000040F030000090224A1268117D214A6D
:10547000526810786B460122FEF7BFFD10B14FF065
:10548000FF3066E71B488474002062E708B51948BE
:10549000807A10B94FF0FF3008BD00200090154A07
:1054A0001268D17B134A526810786B460122FEF7CE
:1054B000A4FD10B14FF0FF30EEE70E4A12685179AB
:1054C0000C4A526810786B460122FEF796FD10B127
:1054D0004FF0FF30E0E7074A12681179054A526839
:1054E00010786B460122FEF788FD28B14FF0FF309F
:1054F000D2E700009C000020F74890F82400002824
:1055000050D00C200090F44A12681179F24A526887
:1055100010786B460122FEF770FD10B14FF0FF309E
:10552000BAE7C0200090EC48807A10F0010F04D058
:105530009DF8000040F020000090E74A12681179C1
:10554000E54A526810786B460122FEF756FD10B10D
:105550004FF0FF30A0E7E048407C10B102200090FF
:1055600001E000200090DC4A1268D17BDA4A5268E0
:1055700010786B460122FEF740FD10B14FF0FF306E
:105580008AE700200090D44A12685179D24A5268C2
:1055900010786B460122FEF730FD002852D04FF004
:1055A000FF3079E704200090CB4A12681179CA4A8B
:1055B000526810786B460122FEF71FFD10B14FF0C4
:1055C000FF3069E7C448807C20B9C348807A10F076
:1055D000010F02D14020009001E060200090BE4AFF
:1055E00012681179BC4A526810786B460122FEF7A6
:1055F00004FD10B14FF0FF304EE7B748407C10B1CA
:105600000120009001E000200090B34A1268D17B95
:10561000B14A526810786B460122FEF7EEFC10B1D9
:105620004FF0FF3038E7AC4A12685179AA4A526805
:105630001078A94B10330122FEF7DFFC10B14FF0B8
:10564000FF3029E7002027E770B50446002624F044
:105650000104A14890F8240008B1002070BD9E48C4
:10566000807A10B94FF0FF30F8E79B48057C807ACC
:105670002040994908740846007CA04202D04FF0AF
:10568000FF3600E0002614B99348007D18B10120D0
:10569000FFF736FD02E00020FFF732FD3CB1FFF7D7
:1056A000F5FE20B18C4805744FF0FF30D6E7304648
:1056B000D4E738B504468848807A10B94FF0FF30F7
:1056C00038BDBC2C02DB0120009015E0622C02DB0F
:1056D0000220009010E02A2C02DB032000900BE057
:1056E000142C02DB0420009006E00A2C02DB0520CB
:1056F000009001E0062000907748C07A9DF80010E5
:10570000884201D10020DBE7734A12689178724A1F
:10571000526810786B460122FEF76FFC10B14FF013
:10572000FF30CDE79DF800106B48C1720020C7E73D
:1057300038B50446282C02DD4FF0FF3038BDDCB907
:105740000020FFF767FD00208DF8000007208DF88E
:105750000100614A1268917C5F4A526810786B467A
:105760000222FEF74AFC10B14FF0FF30E6E70021BD
:10577000594801750020E1E70120FFF74BFD20208B
:105780008DF80000012C06D100208DF801000520C5
:10579000FFF78FFF17E0052C06DC01208DF80100D4
:1057A0000520FFF786FF0EE0142C06DC02208DF8A2
:1057B00001000A20FFF77DFF05E003208DF80100BE
:1057C0001420FFF776FF9DF80100072101EB801000
:1057D000C0B28DF80100404A1268917C3E4A52687E
:1057E00010786B460222FEF708FC10B14FF0FF3034
:1057F000A4E7082138488172002101730121017555
:105800000020FFF721FF002098E738B50446324812
:10581000807A10B94FF0FF3038BD2F4890F824003F
:1058200010B14FF0FF30F7E72B48007D50B134B195
:10583000282C04DCE0B2FFF77BFF0020ECE700201F
:10584000FFF776FF042C01DA042404E0B4F57A7F34
:1058500001DD4FF47A744FF47A7090FBF4F0401E3F
:10586000C0B200901C4A126851781B4A52681078E6
:105870006B460122FEF7C1FB10B14FF0FF30CBE7C2
:105880009DF80000401C4FF47A7191FBF0F081B25A
:105890001148C1810146C9894810FFF70AFF00205D
:1058A000BAE738B504460C48807A10B94FF0FF309B
:1058B00038BD022C06D0042C07D0082C08D0102CA0
:1058C0000FD10BE0002000900EE0082000900BE0CC
:1058D0001020009008E000009C000020182000909C
:1058E00002E04FF0FF30E3E700BFF948407A9DF84F
:1058F0000010B0EBE10F01D10020D9E7F44A1268A3
:10590000D179F34A526810786B460122FEF775FB95
:1059100010B14FF0FF30CBE79DF80000C110EC480C
:1059200041720020C4E738B50446E948807A10B9CE
:105930004FF0FF3038BDFA2C09D0B4F5FA7F09D00A
:10594000B4F57A7F09D0B4F5FA6F0CD108E00020E5
:1059500000900BE00820009008E01020009005E087
:105960001820009002E04FF0FF30E3E700BFD84876
:10597000007A9DF80010B0EBE10F01D10020D9E7CB
:10598000D34A12689179D24A526810786B46012244
:10599000FEF733FB10B14FF0FF30CBE79DF800006E
:1059A000C010CB4908720020C4E71CB580208DF8D8
:1059B0000000C74A1268917CC54A526810786B464D
:1059C0000122FEF71AFB10B14FF0FF301CBD64201E
:1059D000FDF79BFC00208DF80000BD4A1268917C09
:1059E000BB4A526810786B460122FEF706FB10B1E5
:1059F0004FF0FF30EAE7B64A1268917DB44A526828
:105A000010786B460622FEF759FB10B14FF0FF30BD
:105A1000DCE79DF80500C007400F9DF8031001F07A
:105A2000010140EA41009DF8011001F0010140EA46
:105A3000010494B1012C03D10121A548C17431E0C6
:105A4000022C03D10021A248C1742BE02146A1A061
:105A500002F048FF4FF0FF30B8E79D4A1268D17856
:105A60009B4A526810786B460122FEF727FB10B163
:105A70004FF0FF30AAE79DF8000000F00F042CB9AA
:105A80009E4802F02FFF4FF0FF309FE7042C06D115
:105A90009BA002F027FF01218D48C17402E0002184
:105AA0008B48C174FF218A488172FF20884908729F
:105AB000FF2187484172C1724FF6FF71C181FF21FA
:105AC000017481740121017380F82210002180F893
:105AD00023104175017516300160416081601638F0
:105AE00080F8241080F82510C1844FF4FA60FFF785
:105AF0001AFF10B14FF0FF3068E70220FFF7D1FE28
:105B000010B14FF0FF3061E72A20FFF7D2FD10B14E
:105B10004FF0FF305AE73220FFF777FE10B14FF019
:105B2000FF3053E70020FFF78FFD10B14FF0FF303B
:105B30004CE70020FFF706FC10B14FF0FF3045E7BF
:105B40000020FFF79AFB002040E770477CB5044631
:105B50000D465F48807A10F0700F02D14FF0FF3091
:105B60007CBD5B4A1268117B594A526810786B46BB
:105B70000622FEF7A3FA10B14FF0FF30F0E79DF8D0
:105B800001009DF8001040EA012000B220809DF83D
:105B900003009DF8021040EA012000B260809DF8E9
:105BA00005009DF8041040EA012000B2A08015B164
:105BB0002846FFF7CAFF0020D2E77CB504460D4611
:105BC0004348807A10F0080F02D14FF0FF307CBDBF
:105BD0003F4A1268517B3E4A526810786B46062253
:105BE000FEF76CFA10B14FF0FF30F0E79DF80100BE
:105BF0009DF8001040EA012000B220809DF80300CB
:105C00009DF8021040EA012000B260809DF8050076
:105C10009DF8041040EA012000B2A08015B128468A
:105C2000FFF793FF0020D2E72DE9FE4F05460C4613
:105C30002748807A18B94FF0FF30BDE8FE8F244A1C
:105C40001268917B224A5268107802AB0222FEF75A
:105C500035FA10B14FF0FF30EFE79DF809009DF8DD
:105C6000081040EA012006B214B12046FFF76DFF8C
:105C700017494968C88806F065FF154901904968C9
:105C8000B1F9080006F046FF8346304606F042FFB1
:105C90005946009007F0A6F88246019906F008FEE2
:105CA00081461F4906F096FD80464FF08F4106F071
:105CB00091FF074606F0F2FE28600020BDE710B510
:105CC00088B004461CB94FF0FF3008B010BD29E081
:105CD0009C000020556E737570706F72746564203F
:105CE000736F6674776172652070726F6475637428
:105CF000207265762025642E0A00000024D000085A
:105D000048616C662073656E73697469766974792D
:105D1000207061727420666F756E642E0D0A00002B
:105D200000000C42206830B9606820B9A06810B942
:105D3000002008B010BDFA494968087806AB032274
:105D40001146FEF7BBF910B14FF0FF30F1E79DF8B7
:105D50001800082101EB201000F00F00ADF8000042
:105D60009DF8190001EB201000F00F00ADF80200C3
:105D70009DF81A0001EB201000F00F00ADF80400B0
:105D800020684100BDF90000403091FBF0F000B206
:105D9000ADF8100060684100BDF90200403091FB91
:105DA000F0F000B2ADF81200A0684100BDF90400A7
:105DB000403091FBF0F000B2ADF81400D8494968CA
:105DC000087806AB06221146FEF778F910B14FF0BD
:105DD000FF30AEE79DF819009DF8181040EA012049
:105DE00000B2ADF808009DF81B009DF81A1040EABB
:105DF000012000B2ADF80A009DF81D009DF81C10AE
:105E000040EA012000B2ADF80C00BDF81000BDF86A
:105E10000810084400B2ADF81000BDF81200BDF83B
:105E20000A10084400B2ADF81200BDF81400BDF825
:105E30000C10084400B2ADF81400BDF81000000AC0
:105E40008DF81800BDF81000C0B28DF81900BDF82B
:105E50001200000A8DF81A00BDF81200C0B28DF8C9
:105E60001B00BDF81400000A8DF81C00BDF81400DA
:105E7000C0B28DF81D00AA494968087806AB062211
:105E80001146FEF7BAF810B14FF0FF3051E700208D
:105E90004FE70146A248007A30B1012807D0022816
:105EA00009D003280FD10AE0FA2008800EE04FF451
:105EB000FA7008800AE04FF47A70088006E04FF428
:105EC000FA60088002E00020088000BF00BF0020C8
:105ED000704701469248407A30B1012807D0022825
:105EE00008D003280CD108E0022008700BE0042041
:105EF000087008E00820087005E01020087002E033
:105F00004FF0FF30704700BF8548C07C18B108785B
:105F10004006000E08700020F4E701468048C07A71
:105F2000082817D2DFE800F01704070A0D1013182D
:105F3000BC20088013E06220088010E02A2008803E
:105F40000DE0142008800AE00A20088007E0052000
:105F5000088004E000BF00BF0020088000BF00BF31
:105F60000020704701466E4890F8240010B14FF0B1
:105F7000FF3070476A48C08908800020F9E7014671
:105F800000200880401E704701464FF0FF307047E8
:105F900001466348007A30B1012807D0022808D0B2
:105FA00003280CD108E05F4808600BE05E480860F9
:105FB00008E05E48086005E05D48086002E04FF0D8
:105FC000FF30704700BF0020FBE701465448407A8D
:105FD00030B1012808D002280AD0032810D10BE0E4
:105FE0004FF4804008800EE041F69C7008800AE083
:105FF0004FF48050088006E04FF40060088002E013
:106000004FF0FF30704700BF4548C07C10B1088892
:10601000401008800020F5E701464148007C0870E8
:106020000020704701463E48807A10B10120087078
:1060300001E0002008700020704738B50446384859
:10604000807A10B94FF0FF3038BD354A1268117CA4
:10605000334A526810786B460222FEF72FF810B1CF
:106060004FF0FF30F0E79DF801009DF8001040EA86
:10607000012000B220800020E6E72DE9FE4F074610
:10608000884692461D46DDF830B00026002424489C
:1060900090F8240010B1601EBDE8FE8F002028702B
:1060A0001F48807A10B94FF0FF30F5E71C48007C9C
:1060B00010B94FF0FF30EFE71948007C10F0400FA7
:1060C00001D0B01CC6B21648007C10F0200F01D0E1
:1060D000B01CC6B21248007C10F0100F01D0B01CEA
:1060E000C6B20F48007C10F0080F01D0B01DC6B238
:1060F0000B4A1268917A0A4A526810786B4602225B
:10610000FDF7DCFF10B14FF0FF30C5E79DF801004F
:106110009DF8001040EA0129B1450BDA0020BBE7E9
:106120009C000020000003430000834233330342FD
:1061300033338341FA4840684088B9EB600F17DD7C
:10614000F74A1268517CF64A526810786B46012271
:10615000FDF7B4FF10B14FF0FF309DE79DF8000050
:1061600010F0100F04D0FFF791F96FF0010093E7E2
:106170005046FFF7EAFCEA4A1268D17AE84A5268C8
:1061800010786B463246FDF799FF10B14FF0FF30A3
:1061900082E799FBF6F0401E8BF800000020287083
:1061A000B4422AD0DE48007C10F0080F25D0601CD5
:1061B0001DF800001DF8041040EA012000B2A8F804
:1061C0000000E01C1DF80010A01C1DF8000041EAB2
:1061D000002000B2A8F80200601D1DF80010201D6C
:1061E0001DF8000041EA002000B2A8F80400287859
:1061F00040F008002870A01D84B2B44213D0C848F3
:10620000007C10F0400F0ED0601C1DF800001DF83F
:10621000041040EA012000B23880287840F04000A5
:106220002870A01C84B2B44213D0BD48007C10F08A
:10623000200F0ED0601C1DF800001DF8041040EA6D
:10624000012000B27880287840F020002870A01C3F
:1062500084B2B44213D0B248007C10F0100F0ED0BC
:10626000601C1DF800001DF8041040EA012000B277
:10627000B880287840F010002870A01C84B200205C
:106280000AE7F8B504460F461646A54890F82400DC
:1062900010B94FF0FF30F8BDA148807A10B94FF027
:1062A000FF30F8E79E4A1268917A9D4A526810784A
:1062B0006B460222FDF702FF10B14FF0FF30EAE714
:1062C0009DF801009DF8001040EA0125A54203DA7F
:1062D00000203070401EDEE7914840684088B5EBF2
:1062E000600F17DD8E4A1268517C8D4A5268107813
:1062F0006B460122FDF7E2FE10B14FF0FF30CAE716
:106300009DF8000010F0100F04D0FFF7BFF86FF0F9
:106310000100C0E7E2B2824B1B68D97A804B5B6810
:1063200018783B46FDF7CAFE10B14FF0FF30B2E7D8
:1063300095FBF4F0401E30700020ACE70146784831
:1063400080F82210002070477CB5054674494968E2
:10635000087801AB04220D21FDF7B0FE08B107203B
:106360007CBD9DF80700C0F301109DF8041001F0FA
:10637000E00140EAE1008DF800009DF80700C0F35D
:1063800081009DF8051001F0E00140EAE1008DF880
:1063900001009DF8070000F003009DF8061001F0D1
:1063A000E00140EAE1008DF8020000241CE01DF845
:1063B000040018B9002045F8240013E0594845F8B6
:1063C000240006E055F82400574906F003FC45F880
:1063D00024001DF80400401E10F0FF000DF804001A
:1063E000F0D100BF601CC4B2032CE0DB0020B7E793
:1063F0002DE9FE4F06460F4600256846FFF7A4FF2D
:10640000002440E056F8240057F82410B0EB010AAD
:1064100001D4514601E0CAF10001084606F07AFBBA
:1064200083464FF08F4106F043FA80465DF8240022
:10643000002106F0FFFA16D05DF82410404606F061
:1064400037FA82464FF07E5106F0CCFC814629F0A7
:10645000004A3648416A504606F088FC12D20120B4
:10646000A04005430EE03148C169404606F07EFB7E
:1064700005D32E48016A404606F078FC02D201207E
:10648000A0400543641C032CBCDB2846BDE8FE8FFE
:106490002DE9FC5F06460F4600252149496808782A
:1064A00001AB03220D21FDF709FE10B10720BDE865
:1064B000FC9F9DF8040000F01F008DF804009DF87B
:1064C000050000F01F008DF805009DF8060000F0A3
:1064D0001F008DF80600002460E056F8240057F8ED
:1064E0002410B0EB010B01D4594601E0CBF10001BF
:1064F000084606F00FFB4FF08F41009006F0D8F9E8
:10650000814601A8005DC0B30849086806F01AFB7F
:1065100083465946064806F0CBF980460FE0000056
:106520009C0000207B14AE3E1D5A843FFCCF000827
:1065300000B04C45FE49404606F04CFB804601A8A1
:10654000005D401E10F0FF0001A90855F2D1414640
:10655000484606F0ADF983464FF07E5106F042FC06
:1065600082462AF0004BF3488169584606F0FEFB4C
:1065700013D20120A04005430FE0FFE7ED48016979
:10658000484606F0F3FA05D3EA484169484606F062
:10659000EDFB02D20120A0400543641C032C9CDBD0
:1065A000284684E72DE9F04F87B005460C46914612
:1065B00001208DF8100000208DF81100DE4A1268CD
:1065C000917CDD4A5268107804AB0222FDF715FD7C
:1065D00020B14FF0FF3007B0BDE8F08FC820FCF7C6
:1065E00094FE00208DF81000D34A1268D17BD24A65
:1065F0005268107804AB0122FDF7FFFC10B14FF098
:10660000FF30E8E7CC4A12685179CB4A52681078DB
:1066100004AB0122FDF7F1FC10B14FF0FF30DAE7D7
:10662000C54A1268917CC44A5268107804AB0122B2
:10663000FDF7E3FC10B14FF0FF30CCE7BE4A126823
:10664000D17DBD4A5268107804AB0122FDF7D5FC1C
:1066500010B14FF0FF30BEE7B74A12681179B64A61
:106660005268107804AB0122FDF7C7FC10B14FF05F
:10667000FF30B0E70C208DF81000AF4A1268117996
:10668000AD4A5268107804AB0122FDF7B6FC10B198
:106690004FF0FF309FE70F20FCF737FEA648806AD7
:1066A000407A8DF81000A44A12689178A24A526884
:1066B000107804AB0122FDF7A0FC10B14FF0FF30C1
:1066C00089E79D48806A007A8DF810009A4A12681E
:1066D0005178994A5268107804AB0122FDF78DFC7D
:1066E00010B14FF0FF3076E7B9F1000F07D09248B4
:1066F000806A807A40F0E0008DF8100004E08E4857
:10670000806A807A8DF810008B4A126891798A4AE3
:106710005268107804AB0122FDF76FFC10B14FF006
:10672000FF3058E7B9F1000F07D08348806AC07A7C
:1067300040F0E0008DF8100003E07E48C07A8DF84C
:1067400010007D4A1268D1797B4A5268107804ABF8
:106750000122FDF752FC10B14FF0FF303BE7B9F1D9
:10676000000F02D0C820FCF7D0FD40208DF81000AB
:10677000714A12681179704A5268107804AB01228C
:10678000FDF73BFC10B14FF0FF3024E778208DF887
:106790001000694A12685179674A5268107804AB50
:1067A0000122FDF72AFC10B14FF0FF3013E76149D9
:1067B0008889FCF7AAFD00208DF810005E4A126857
:1067C00051795D4A5268107804AB0122FDF715FC3F
:1067D00010B14FF0FF30FEE6574A1268917A564AE0
:1067E0005268107804AB0222FDF768FC10B14FF03C
:1067F000FF30F0E69DF811009DF8101040EA012BE3
:106800000C209BFBF0F0C6B20020A86068602860F6
:10681000A06060602060824665E0474A1268D17AD5
:10682000454A5268107804AB0C22FDF747FC10B1C2
:106830004FF0FF30CFE69DF811009DF8101040EAB0
:10684000012000B2ADF808009DF813009DF8121069
:1068500040EA012000B2ADF80A009DF815009DF84D
:10686000141040EA012000B2ADF80C00BDF9081088
:10687000206808442060BDF90A1060680844606020
:10688000BDF90C10A0680844A0609DF817009DF8A1
:10689000161040EA012000B2ADF800009DF8190082
:1068A0009DF8181040EA012000B2ADF802009DF8F2
:1068B0001B009DF81A1040EA012000B2ADF8040058
:1068C000BDF90010286808442860BDF90210686806
:1068D00008446860BDF90410A8680844A8600AF17B
:1068E000010000F0FF0AB24597DB1248D0F800C063
:1068F0002868C117090441EA1041070462460023D1
:10690000384601F0CAFF32460023CDE9020101F00A
:10691000C4FF28600748D0F800C06868C1170904A0
:1069200041EA1041070462460023384606E00000B1
:1069300054E3853FFCCF00089C00002001F0ADFF30
:1069400032460023CDE9020101F0A7FF6860FE484E
:10695000D0F800C0A868C117090441EA1041070433
:1069600062460023384601F098FF32460023CDE905
:10697000020101F092FFA860F348D0F804C021683A
:10698000C817000440EA11480F0462460023384645
:10699000414601F082FF32460023CDE9020101F0B9
:1069A0007CFF2060E848D0F804C06068C117090483
:1069B00041EA1041070462460023384601F06DFFAA
:1069C00032460023CDE9020101F067FF6060DE4836
:1069D000D0F804C0A068C117090441EA10410704B7
:1069E00062460023384601F058FF32460023CDE9C5
:1069F000020101F052FFA060A068002804DDA06839
:106A0000A0F58030A06003E0A06800F58030A060B1
:106A10000020E0E538B50446CC4890F82400A042B8
:106A200001D1002038BD24B3C84890F8250010B922
:106A30004FF0FF30F6E70020FEF762FB0020FEF784
:106A400081FCC249C88CFEF7E0FE00200090BF49DF
:106A5000496808786B4601222321FDF7CEFA01210F
:106A6000BA4880F824100120FEF74AFBFEF70EFD1D
:106A700013E00020FEF744FBB448007C0090B349CB
:106A8000496808786B4601222321FDF7B6FA0021F8
:106A9000AE4880F82410FEF7F9FC0020C2E72DE98B
:106AA000F04F8DB083460F4602200C90A74890F817
:106AB000240020B10020FFF7ADFF012600E00026F2
:106AC00003A8FFF7E6F905A8FFF703FA01A8FFF707
:106AD00024FA02A8FFF746FA9C4890F80AA004A8F6
:106AE000FFF79AFA002407E0002239465846FFF7DC
:106AF00059FD00B902E0641C022CF5DB00BF022C3A
:106B000001D1002528E0002407E0012206A909A8F8
:106B1000FFF748FD00B902E0641C022CF5DB00BF62
:106B2000022C01D1002517E006A93846FFF760FCCA
:106B300000F0FF0809A95846FFF7AAFC00F0FF097A
:106B40000025B9F1000F01D145F00105B8F1000FA2
:106B500001D145F0020500BFFF207C490872FF21EA
:106B60007A484172C1724FF6FF71C181FF21817273
:106B7000017401210173BDF80C00FEF7D4FE9DF8ED
:106B80001400FEF78EFEBDF80400FEF792FDBDF87E
:106B90000800FEF73AFE5046FEF76FFB9DF8100026
:106BA000FEF752FD16B10120FFF734FF28460DB065
:106BB000BDE8F08FF8B504460D46164616B94FF0FD
:106BC000FF30F8BD6148807A10B94FF0FF30F8E728
:106BD00020128DF80000E0B28DF801009DF8010050
:106BE00028445A4949684989884202DD4FF0FF30FC
:106BF000E7E7564A1268117E544A526810786B468D
:106C00000222FDF7FAF910B14FF0FF30D9E7EAB2EE
:106C10004E4B1B68597D4D4B5B6818783346FDF72A
:106C2000ECF910B14FF0FF30CBE70020C9E7F8B521
:106C300004460D46164616B94FF0FF30F8BD4348DE
:106C4000807A10B94FF0FF30F8E720128DF800007D
:106C5000E0B28DF801009DF8010028443B494968E5
:106C60004989884202DD4FF0FF30E7E7374A126872
:106C7000117E364A526810786B460222FDF7BDF944
:106C800010B14FF0FF30D9E7EAB2304B1B68597DA5
:106C90002E4B5B6818783346FDF710FA10B14FF0B1
:106CA000FF30CBE70020C9E72DE9F04385B005466A
:106CB0000E4690469946254890F8250020B14FF0A1
:106CC000FF3005B0BDE8F08316B94FF0FF30F8E7AC
:106CD000002423E0281B102801DD102000E0281BE1
:106CE00087B2321939462046FFF764FF10B14FF0E2
:106CF000FF30E6E701AA39462046FFF798FF10B1BA
:106D00004FF0FF30DDE730193A4601A901F0AAFF44
:106D100010B16FF00100D4E7E01984B2AC42D9DBC6
:106D20004FEA28208DF8000008F0FF008DF80100E0
:106D3000064A1268917E054A526810786B46022214
:106D4000FDF75BF938B103E0FCCF00089C000020A0
:106D50004FF0FF30B5E701218A4880F82510A0F8F0
:106D600026900020ADE70146864890F82400087080
:106D70000020704702464FF0FF30704701464FF049
:106D8000FF307047F8B505460F461446002C70D00A
:106D9000B5F5FF5F01DDFF2605E0202D01DA0126B4
:106DA00001E0C5F3471607B90127282C02DD4FF093
:106DB000FF30F8BD7348407D28BB724890F824002E
:106DC00038B10020FFF726FE01216E4880F8201020
:106DD00003E000216B4880F820106A481630FFF766
:106DE00058F868481830FFF774F866481A30FFF70B
:106DF00094F864481C30FFF7B5F86248817A8177CF
:106E00001F30FFF709F90020FEF77AF90020FEF79E
:106E10008FFC00208DF800005A4A12689178594A78
:106E2000526810786B460122FDF7E7F810B14FF079
:106E3000FF30BEE740208DF80000524A1268D17B37
:106E4000504A526810786B460122FDF7D6F800B11F
:106E500065E08DF800608DF801704A4A1268117A79
:106E6000484A526810786B460222FDF7C6F808B10E
:106E700055E047E00520FCF748FA4248407A0721F0
:106E800001EBC000C0B28DF800003E4A1268D17913
:106E90003C4A526810786B460122FDF7AEF800B10B
:106EA0003DE020208DF80000012C03D100208DF85A
:106EB00001000EE0052C03DC01208DF8010008E044
:106EC000142C03DC02208DF8010002E003208DF871
:106ED00001009DF80100072101EB8010C0B28DF880
:106EE0000100284A1268917C264A526810786B4645
:106EF0000222FDF782F800B111E00121214841751D
:106F0000002056E71F4A1632002103E0505C00B112
:106F100005E0491C0C29F9D34FF0FF3049E7FF2069
:106F200018490872FF2117484172C1724FF6FF716C
:106F3000C181FF2181720174012101730146887FA3
:106F4000FEF79BF90F49C88AFEF7EDFC0D49087E54
:106F5000FEF7A7FC0B49488BFEF7ABFB0949888B72
:106F6000FEF753FC0749C87FFEF76EFB054890F813
:106F7000200010B10120FFF74DFD002101484175AF
:106F8000002016E79C00002010B5C8234FF4806253
:106F9000F74940F6F630FFF787FE10BD10B586B012
:106FA0000446F4A000680390F3A000680290F3A0E8
:106FB00000680190F2A00068009004F0030003A9AB
:106FC000085C8DF8140003A8C4F3C101405C8DF87F
:106FD000150003A8C4F38111405C8DF8160004F07D
:106FE000030002A9085C8DF8100002A8C4F3C101D7
:106FF000405C8DF8110002A8C4F38111405C8DF84B
:10700000120005AA032140F22640FFF7D3FD18B174
:107010004FF0FF3006B010BD04AA032140F22A4011
:10702000FFF7C8FD10B14FF0FF30F3E7019805906E
:107030000098049014F0040F0BD09DF8140040F059
:1070400001008DF814009DF8100040F001008DF84B
:10705000100014F0200F0BD09DF8150040F0010037
:107060008DF815009DF8110040F001008DF8110019
:1070700014F4807F0BD09DF8160040F001008DF8CD
:1070800016009DF8120040F001008DF8120005AACC
:1070900003214FF48860FFF78DFD10B14FF0FF30F2
:1070A000B8E704AA032140F23140FFF783FD10B195
:1070B0004FF0FF30AEE7B34804810020AAE71FB5C8
:1070C0000446B048007A00F0030054F82000019014
:1070D000AC48007A10F0040F02D0019840420190B1
:1070E000A848007AC0F3C10054F820000290A548D7
:1070F000007A10F0200F02D0029840420290A1487E
:10710000007AC0F3811054F8200003909D48008954
:1071100010F4807F02D00398404203909A4901986E
:1071200080FB0101800F40EA81000190964902989E
:1071300080FB0110820042EA91700290924903980C
:1071400080FB0110820042EA917003900198000ECA
:107150008DF800000198000C8DF801000198000ADC
:107160008DF802000198C0B28DF803006A46042130
:107170004FF47470FFF71EFD18B14FF0FF3004B0EC
:1071800010BD0298000E8DF800000298000C8DF8DA
:1071900001000298000A8DF802000298C0B28DF832
:1071A00003006A4604214FF47570FFF703FD10B128
:1071B0004FF0FF30E3E70398000E8DF800000398CE
:1071C000000C8DF801000398000A8DF80200039866
:1071D000C0B28DF803006A4604214FF47670FFF7C1
:1071E000E9FCCCE770B588B0064601A8FEF7EDFED5
:1071F000BDF804000021C90341EA5045C4036148B9
:10720000007A00F0030056F8200005905D48007AEF
:1072100010F0040F02D00598404205905948007ABA
:10722000C0F3C10056F8200006905648007A10F0CE
:10723000200F02D00698404206905248007AC0F3D0
:10724000811056F8200007904E48008910F4807F86
:1072500002D00798404207900598C117A0FB04236D
:1072600001FB043100FB0510810041EA927005909A
:107270000698C117A0FB042301FB043100FB051095
:10728000810041EA927006900798C117A0FB042381
:1072900001FB043100FB0510810041EA9270079068
:1072A0000598000E8DF808000598000C8DF809006F
:1072B0000598000A8DF80A000598C0B28DF80B00F9
:1072C0000698000E8DF80C000698000C8DF80D0045
:1072D0000698000A8DF80E000698C0B28DF80F00CF
:1072E0000798000E8DF810000798000C8DF811001B
:1072F0000798000A8DF812000798C0B28DF81300A5
:1073000002AA0C214FF42570FFF754FC08B070BDA1
:1073100030B585B004461DA207CA02AB07C3C82C0E
:1073200003DD4FF0FF3005B030BDC82090FBF4F016
:10733000401E85B2280A8DF80000E8B28DF80100E1
:107340006A46022140F21620FFF734FC10B14FF0DC
:10735000FF30E8E702AA0C2140F6C120FFF72AFC23
:1073600010B14FF0FF30DEE7064884810020DAE7F5
:1073700072D000084CCD6C000CC92C00365676003B
:10738000264666005402002009E3CA02FEF2ABC49E
:10739000AAF1DFDFBBAFDFDF0146FC488089088050
:1073A000002070472DE9FC4706460F4616F0070FF0
:1073B00002D0B7F5C86F03DD4FF0FF30BDE8FC87A2
:1073C000384605F0BFFB8146F14905F071FA804669
:1073D0006846FEF77EFD9DF80000022806D00428CE
:1073E00016D0082826D0102848D135E04FF08D411E
:1073F000404605F0EFFB814605F06CFB84B2E549A1
:10740000404605F0E7FB814605F064FB85B238E0B5
:107410004FF08C41404605F0DDFB814605F05AFBFC
:1074200084B2DD49404605F0D5FB814605F052FBAC
:1074300085B226E04FF08B41404605F0CBFB8146FC
:1074400005F048FB84B2D549404605F0C3FB8146B0
:1074500005F040FB85B214E04FF08A41404605F04C
:10746000B9FB814605F036FB84B2CD49404605F0B4
:10747000B1FB814605F02EFB85B202E04FF0FF30F4
:107480009CE700BF20128DF80400E0B28DF80500E3
:1074900028128DF80600E8B28DF8070016F0010FEB
:1074A00014D001AA02214FF4EA70FFF783FB10B158
:1074B0004FF0FF3082E70DF1060202214FF4927087
:1074C000FFF778FB10B14FF0FF3077E716F0020FAF
:1074D00014D001AA02214FF4EC70FFF76BFB10B13E
:1074E0004FF0FF306AE70DF1060202214FF494706D
:1074F000FFF760FB10B14FF0FF305FE716F0040FAD
:1075000014D001AA02214FF4EE70FFF753FB10B123
:107510004FF0FF3052E70DF1060202214FF4967052
:10752000FFF748FB10B14FF0FF3047E7002045E779
:1075300038B504460020009014F0010F04D09DF8E7
:10754000000040F03000009014F0020F04D09DF8CD
:10755000000040F00C00009014F0040F04D09DF8DF
:10756000000040F0030000906A4601214FF4A4702F
:10757000FFF720FB38BD38B50446012C01DA0124A1
:1075800002E0042C00DD0424601EC0B200906A46B4
:10759000012140F24F10FFF70DFB38BD38B504460E
:1075A000052094FBF0F085B228128DF80000E8B2B7
:1075B0008DF801006A4602214FF4EF70FFF7FAFAE6
:1075C00038BD38B50446052094FBF0F085B228128A
:1075D0008DF80000E8B28DF801006A4602214FF4F0
:1075E000ED70FFF7E7FA38BDF8B505460E464FF4E3
:1075F0007A7095FBF0F000FB06F4200E8DF8000089
:10760000200C8DF80100200A8DF80200E0B28DF800
:1076100003006A4604214FF4AE70FFF7CBFAF8BDC1
:1076200038B50446052094FBF0F084B220128DF8A2
:107630000000E0B28DF801006A4602214FF4AD70FF
:10764000FFF7B8FA38BD38B50446052094FBF0F0D2
:1076500084B220128DF80000E0B28DF801006A4675
:1076600002214FF4AC70FFF7A5FA38BD38B50446D7
:1076700014B94FF0FF3038BD6A4604214FF45870FA
:10768000FFF7D5FA10B14FF0FF30F4E79DF8000096
:1076900000069DF8011040EA01409DF8021040EA02
:1076A00001209DF80310084320600020E3E738B56F
:1076B0000446200E8DF80000200C8DF80100200AF1
:1076C0008DF80200E0B28DF803006A4604214FF401
:1076D0005870FFF76FFA38BD38B5044614B94FF04B
:1076E000FF3038BD6A4604214FF47170FFF79FFAEE
:1076F00010B14FF0FF30F4E79DF8000000069DF850
:10770000011040EA01409DF8021040EA01209DF876
:107710000310084300EB8000800020600020E0E7B9
:1077200038B504461420B4FBF0F4200E8DF80000A8
:10773000200C8DF80100200A8DF80200E0B28DF8CF
:1077400003006A4604214FF47170FFF733FA38BD25
:1077500038B5044664B120208DF8000028208DF84B
:10776000010030208DF8020038208DF8030004E07D
:10777000A3220421684601F0A1FA6A46042140F6DA
:107780009E20FFF717FAFDF781FE38BD5402002056
:1077900000004843000040460000C045000040454E
:1077A0000000C04438B5044664B1C0208DF8000024
:1077B000C2208DF80100C4208DF80200C6208DF88B
:1077C000030004E08B220421684601F077FA6A4640
:1077D000042140F69820FFF7EDF9FDF757FE38BD7C
:1077E0003EB504466CB1FCA1D1E900208968CDE921
:1077F000002002916A4609214FF49760FFF7DAF9F9
:107800003EBDF8A2D2E900109268CDE901020091D4
:107810006A4609214FF49760FFF7CCF9F0E73EB5CF
:10782000044602208DF80000CA208DF80100E320F4
:107830008DF8020009208DF803006A4604216820B3
:10784000FFF7B8F9A3208DF8000014F0400F09D01D
:10785000C0208DF80100C8208DF80200C2208DF8EC
:10786000030006E0A3208DF801008DF802008DF8DA
:10787000030014F4C07F09D0C4208DF80400CC208C
:107880008DF80500C6208DF8060006E0A3208DF8CF
:1078900004008DF805008DF80600A3208DF8070080
:1078A0008DF808008DF809006A460A2140F6A720E5
:1078B000FFF780F914F0030F03D020208DF80000AB
:1078C00002E0D8208DF800006A46012140F6B6207B
:1078D000FFF770F914F0200F03D00120FFF780FFAD
:1078E00002E00020FFF77CFF14F4C07F21D014F4E5
:1078F000807F0CD0B2208DF800008B208DF8010025
:10790000B6208DF802009B208DF803000BE0B0201C
:107910008DF8000080208DF80100B4208DF8020061
:1079200090208DF803006A46042140F6A220FFF75C
:1079300041F914F0010F24D0F8208DF800006A46B8
:1079400001214FF40B60FFF735F9FA210720FFF70B
:1079500029FD0720FFF7ECFD0120FFF70CFE642056
:10796000FFF71CFE4FF4FA70FFF72BFEC821A0486A
:10797000FFF73AFE2820FFF753FE0A20FFF763FEC9
:1079800008E0D8208DF800006A4601214FF40B6012
:10799000FFF710F914F0020F03D0D9208DF8000082
:1079A00002E0D8208DF800006A46012140F23D70C7
:1079B000FFF700F914F0040F03D00120FFF7F2FEE7
:1079C00002E00020FFF7EEFE14F0100F03D00120BC
:1079D000FFF7BEFE02E00020FFF7BAFE44F0080009
:1079E00084494881FDF752FD00208249887314F0D4
:1079F000400F03D00846807B801D887314F4C07F3D
:107A000004D07C48807B801D7A49887314F0140F61
:107A100004D07848807B10307649887314F0030FC7
:107A200004D07448807B001D7249887300203EBDDD
:107A30000146704840890880002070472DE9F041D8
:107A40000446E07800F0C006E07800F03F0560787A
:107A500010F0010F13D0EF102846E91705EB517114
:107A6000C910A5EBC101491C01F0FF08614800687D
:107A700020B16048414602683846904700BF6078B0
:107A800010F0080F06D05B48406818B1B011594A91
:107A9000516888470020BDE8F08110B586B00446E3
:107AA00055A207CA03AB07C356A207CA8DE8070051
:107AB000012C09D0022C0ED103AA0B2140F6822002
:107AC000FFF778F806B010BD6A460B2140F6822019
:107AD000FFF770F8F6E74FF0FF30F3E72DE9F04FCE
:107AE0008DB00746884615469946DDE9166B002499
:107AF000002030803F49887B5A4605A9FEF7C1FB2C
:107B000018B1601E0DB0BDE8F08F3A48807A10F0D1
:107B1000140F7DD09DF8140000069DF8151040EA62
:107B200001409DF8161040EA01209DF81710084307
:107B300028609DF8180000069DF8191040EA0140E1
:107B40009DF81A1040EA01209DF81B100843686058
:107B50009DF81C0000069DF81D1040EA01409DF8AC
:107B60001E1040EA01209DF81F100843A8609DF8F0
:107B7000200000069DF8211040EA01409DF82210E7
:107B800040EA01209DF823100843E86004F110004A
:107B9000C4B2286800140190686800140290A868B4
:107BA00000140390E868001404900198404302997F
:107BB00001FB0100039901FB0100049901FB010A8B
:107BC000BAF1706F02DBBAF1885F22DDFDF75EFC6F
:107BD00000203080401E95E7B8AAB38DB4980D35CB
:107BE0005D000000B8AAAAAAB088C3C5C7000000FB
:107BF00009E3CA0254020020D8B1B9F38BA391B6AD
:107C000009B4D900DAB1B9F38BA391B6DAB4DA00CA
:107C100005E0B6F9000040F48070308000BF3448C1
:107C2000807A10F0400F24D005A9601C085C095D23
:107C300040EA012000B2A8F8000005A9E01C095C98
:107C400005AAA01C105C41EA002000B2A8F80200BE
:107C500005A9601D095C201D105C41EA002000B2EE
:107C6000A8F80400A01DC4B2B6F9000040F0080056
:107C700030801F48408910F4C07F21D005A9601CC6
:107C8000085C095D40EA012000B2388005A9E01CCB
:107C9000095C05AAA01C105C41EA002000B27880B3
:107CA00005A9601D095C201D105C41EA002000B29E
:107CB000B880A01DC4B2B6F9000040F0700030805A
:107CC0000B48807A10F0030F03D005A90819FFF7BD
:107CD000B5FE4846FDF739FF002013E7014604488A
:107CE0000160002070470146014841600020704754
:107CF000540200202DE9F04105460C46C2480168B7
:107D0000204605F06FF80746C0480168384604F081
:107D100061FF0646BE480168304604F05BFDBC4981
:107D20000860BC484168BC48006805F05BF806463E
:107D3000B8488168304605F055F8B8490860B5483C
:107D4000C06880F000404860B248C06880F00040E1
:107D50008860B3480068C8600868AC49096804F0E6
:107D600039FF0646AB480168304604F033FDA949A7
:107D70000860AA494868A549096804F02BFF06462F
:107D8000A4484168304604F025FDA2494860A34953
:107D900088689E49096804F01DFF06469D48816871
:107DA000304604F017FD9B4988609C49C868974994
:107DB000096804F00FFF06469648C168304604F093
:107DC00009FD9449C86092480168284605F00AF800
:107DD000944908609448007804F0B4FE06468D4843
:107DE0000168304604F0F6FE904908608E4800783D
:107DF00004F0A8FE064687488168304604F0EAFE93
:107E00008B4908608848007804F09CFE0746874844
:107E10000168384604F0DEFE0646864801683046B2
:107E200004F0D8FC84490860084601687F4800686F
:107E300004F03EFD814908607F4801687C48006885
:107E400004F036FD7E490860784800687D49086086
:107E50007548007804F076FE06466E484168304664
:107E600004F0B8FE784908607648016873480068F5
:107E700004F0B0FE064667480168304604F0A7FFEC
:107E800064490860704801686C48006804F0A2FE0C
:107E9000064660484168304604F099FF5D494860F5
:107EA000684801686648006804F094FE0646594830
:107EB0008168304604F08BFF56498860624801684B
:107EC0005F48006804F086FE06465248C1683046A6
:107ED00004F07DFF4F49C860524801685748006868
:107EE00004F078FE06464A480168304604F072FC09
:107EF000474908604B4801685148006804F06AFE31
:107F0000064641480168304604F064FC3E4908607A
:107F100008460168204604F065FF4C490860BDE84A
:107F2000F0812DE9F04F8BB083468A46504604F02D
:107F300025FC8046464A474B04F010F9CDE9020182
:107F40003348006804F01AFCCDE90001DDE90223A2
:107F500003F01EFE04460D463F4801684FF07E5078
:107F600004F040FF804604F009FC064622462B46FA
:107F700004F0F4F8CDE9060137480168584604F0EA
:107F800029FE044604F0FAFBCDE90401DDE90623ED
:107F900003F0FEFDCDE9080103F0C8FD1C490860AF
:107FA0000BB0BDE8F08F2DE9F04104460D46E561C8
:107FB000E168206804F00EFC06463146206804F0B3
:107FC00077FC20616168E06904F00CFF07462169D5
:107FD00004F000FE0646616804F0FCFB60614FF0AF
:107FE0007E50216904F0FEFE0646216804F0F2FD91
:107FF000A06160696060A168A06904F0EBFB20608B
:108000006069BDE8F0810000F8000020D800002081
:10801000F0000020E0000020CC00002064020020DE
:10802000D0000020FC000020DC0000200001002027
:1080300004010020D4000020080100200C010020D1
:10804000100100201401002018010020F40000207D
:108050007B14AE47E17A743FC8000020014691F9D5
:108060000020002A01DD00201EE091F90020002AF6
:1080700001DA042018E091F90120002A01DD012035
:1080800012E091F90120002A01DA05200CE091F9B3
:108090000220002A01DD022006E091F90220002AD8
:1080A00001DA062000E00720704770B50546284633
:1080B000FFF7D4FF0446E81CFFF7D0FF44EAC000F6
:1080C00084B2A81DFFF7CAFF44EA801084B220469C
:1080D00070BD70B588B002A905A8FEF7E0FC0446A3
:1080E000072C3FD101A8FDF753FF059804F012FDBE
:1080F0000646019904F06EFD054604F0CFFC05909C
:10810000069804F007FD0646019904F063FD054654
:1081100004F0C4FC0690079804F0FCFC06460199A4
:1081200004F058FD054604F0B9FC079005A8FEF7D9
:10813000C6FF6846FDF749FFBDF8001002984843A6
:108140000290BDF80010039848430390BDF800105A
:1081500004984843049002A8FFF744F8FEA000F0FA
:10816000C1FB00BF08B070BD2DE9F04304460D46C9
:10817000DDE907670021012041E0DFF800C43CF899
:108180001080A0F1010CDFF8F49329F81C8009F1AC
:10819000160C3CF81090A0F1010CDFF8E08308F118
:1081A000160828F81C9008F1160C3CF81090A0F165
:1081B000010C08F1160828F81C9008F1160C3CF880
:1081C0001090A0F1010C08F1160828F81C9008F195
:1081D000160C3CF81090A0F1010C08F1160828F8D4
:1081E0001C9008F1160C3CF81090A0F1010C08F15D
:1081F000160828F81C9000F1010C0CF0FF000A286A
:10820000BBDBDFF878C3ACF81240ACF82850ACF810
:108210003E20ACF85430ACF86A60ACF880700021B5
:10822000002008E0DFF854C33CF910C0614400F1BD
:10823000010C0CF0FF000A28F4DB4FF00A0C91FB54
:10824000FCFC0FFA8CFCDFF83483A8F814C0002182
:1082500000200AE0DFF824C30CF1160C3CF910C032
:10826000614400F1010C0CF0FF000A28F2DB4FF032
:108270000A0C91FBFCFC0FFA8CF8DFF800C3ACF899
:108280002A80002100200AE0DFF8F0C20CF12C0C5B
:108290003CF910C0614400F1010C0CF0FF000A2809
:1082A000F2DB4FF00A0C91FBFCFC0FFA8CF8DFF8C4
:1082B000CCC2ACF84080002100200AE0DFF8BCC24C
:1082C0000CF1420C3CF910C0614400F1010C0CF0BF
:1082D000FF000A28F2DB4FF00A0C91FBFCFC0FFABE
:1082E0008CF8DFF898C2ACF85680002100200AE034
:1082F000DFF888C20CF1580C3CF910C0614400F161
:10830000010C0CF0FF000A28F2DB4FF00A0C91FB85
:10831000FCFC0FFA8CF8DFF864C2ACF86C8000212A
:1083200000200AE0DFF854C20CF16E0C3CF910C0DA
:10833000614400F1010C0CF0FF000A28F2DB4FF061
:108340000A0C91FBFCFC0FFA8CF8DFF830C2ACF899
:108350008280BDE8F08338B50446032302226B21F6
:10836000D0200094FBF77FFF38BD38B504460223C8
:1083700004221B21D0200094FBF775FF38BD38B5CF
:108380000446022304221C21D0200094FBF76BFF3B
:1083900038BD10B50446234606226B21D020FBF7DA
:1083A00097FF10BD10B5764B01227521D020FBF749
:1083B000E3FE7348007810BD10B5FFF7F3FF68289F
:1083C00001D1012010BD0020FCE710B50446234672
:1083D00005226A21D020FBF77BFF10BD10B50446B3
:1083E000234601223721D020FBF772FF10BD10B5C4
:1083F0000220FFF7B0FF0320FFF7B7FF0020FFF7D1
:10840000BEFF0020FFF7C5FF0020FFF7DEFF0020C2
:10841000FFF7E4FF10BD38B5002000906B46012245
:1084200075216820FBF74AFE56A000F05BFA9DF824
:108430000000682810D000BFBFF34F8F5A48006873
:1084400000F4E06059490843001D57490860BFF334
:108450004F8F00BF00BFFEE7FDF7A7FA00283CD111
:108460007820FCF70AFF10B946A000F03BFA78200C
:10847000FDF7EAF810B94EA000F034FAC820FDF775
:10848000C4F910B954A000F02DFAFEF77DFD10B923
:108490005BA000F027FA6748FFF707FE0446FEF7E7
:1084A0007DFD10B964A000F01DFA40F27310FFF7D3
:1084B000B6F910B96AA000F015FAC820FEF728FF37
:1084C00010B971A000F00EFAFFF703FE0120FEF7CD
:1084D000A1FA10B975A000F005FA38BD2DE9F04FEA
:1084E0008DB00AA87A490BAB06AACDE900107949EC
:1084F0007948FFF7F3FA7648008810F4807F29D096
:10850000069804F007FB04464FF09D4104F0D0F9B3
:1085100072490860079804F0FDFA04464FF09D4147
:1085200004F0C6F96E490860089804F0F3FA0446AE
:108530004FF09D4104F0BCF96A490860099804F0C5
:10854000E9FA04464FF09D4104F0B2F9664908602B
:108550006248CBE04FE1000073657474696E672078
:10856000626961732073756363657366756C6C799A
:10857000202E2E2E2E2E2E0D0A000000820200200C
:10858000740200206D70755F7365745F73656E7340
:108590006F7220636F6D706C657465202E2E2E2EA9
:1085A0002E2E0D0A000000000CED00E00000FA0580
:1085B0006D70755F636F6E6669677572655F66691A
:1085C000666F20636F6D706C657465202E2E2E2E85
:1085D0002E2E0D0A000000006D70755F7365745FCC
:1085E00073616D706C655F7261746520636F6D702F
:1085F0006C657465202E2E2E2E2E2E0D0A00000086
:10860000646D705F6C6F61645F6D6F74696F6E5FD6
:108610006472697665725F6669726D7761726520F2
:10862000636F6D706C657465202E2E2E2E2E2E0DB0
:108630000A0000002C010020646D705F7365745F98
:108640006F7269656E746174696F6E20636F6D70AF
:108650006C657465202E2E2E2E2E2E0D0A00000025
:10866000646D705F656E61626C655F66656174758F
:10867000726520636F6D706C657465202E2E2E2ED2
:108680002E2E0D0A00000000646D705F7365745F2C
:108690006669666F5F7261746520636F6D706C658B
:1086A0007465202E2E2E2E2E2E0D0A006D70755FF5
:1086B0007365745F646D705F737461746520636F5C
:1086C0006D706C657465202E2E2E2E2E2E0D0A00D8
:1086D00048010020420100203C0100201C01002034
:1086E00020010020240100202801002001684FF013
:1086F000804004F06FFA04905C480168049804F02C
:1087000069FA82465A4801684FF0404004F062FA24
:10871000049058480168049804F05CFA8346514676
:1087200004F058F8059004F029F8804602F0D8FDCE
:1087300006464FF06632504B03F010FD044603F03E
:10874000F5F94E490860494801684FF0804004F04F
:1087500041FA019045480168019804F03BFA8246CD
:10876000434801684FF0404004F034FA019040481B
:108770000168019804F02EFA8346514604F032FB5A
:1087800081464FF07E5104F025F8044603F0F6FFD1
:10879000CDE904013A4801684FF0804004F01AFA2C
:1087A000834633480168584604F014FA81462F483E
:1087B00001684FF0804004F00DFA83462D480168AF
:1087C000584604F007FA8246494604F003F8044686
:1087D00003F0D4FFCDE90201DDE9042302F0D0FF6C
:1087E00007464FF06632244B03F0B8FC054603F011
:1087F0009DF9244908600DB0BDE8F08F2DE9F05FC8
:108800004221D020FBF795FC05464121D020FBF703
:1088100090FC05EB0024204604F07CF982464FF0E2
:108820008E41504604F0A2FA05D24FF08F415046D7
:1088300004F0D8FA82461449504604F039F88346C9
:1088400003F09CFF8046114A114B03F0A1F9064644
:108850000022104B03F082FC044603F067F98246C5
:10886000504604F01BF9BDE8F09F000024010020F1
:10887000200100202801002066A64C404C01002069
:108880001C010020500100200000AA43A4703D0AF2
:10889000D743424000002440704710B54C1084EA92
:1088A000530404D54042C1F1000138BF491E1B42A8
:1088B00004D55242C3F1000338BF5B1E00F04AFAF0
:1088C00014F0804F04D04042C1F1000138BF491E6E
:1088D00014F0004F04D05242C3F1000338BF5B1EB6
:1088E00010BD00000FB4044910B503AA029800F0AF
:1088F0001FFD10BC5DF814FB3C00002070B5044661
:1089000085690068C10601D5302600E02026C00731
:1089100008D070BDD4E9012130469047206A00F1AB
:10892000010020626D1EF5D570BD70B504468569E5
:108930000078C00708D170BDD4E9012120209047FC
:10894000206A00F1010020626D1EF5D570BD0000A7
:108950002DE9F0410646002410687529314616A518
:1089600011D0AFF30080002803DAC0F1000013A596
:1089700007E031688A0701D511A502E0490704D54F
:1089800010A5012401E0AFF3008000210A2306F1C5
:10899000240707E0B0FBF3F203FB120030307854F9
:1089A0001046491C0028F5D123462A463046BDE82A
:1089B000F04100F051BA0000000000002D0000005E
:1089C0002B000000200000002DE9F0474FF0000AC6
:1089D00089460446C0F820A02046E1688847002860
:1089E00076D0252806D0D4E901219047206A401C82
:1089F0002062F1E7E168204600258847C4F81CA002
:108A000006460027C4F818A02A2E09D0304602F0E6
:108A100060FC38B304EB8708303EC8F8186019E0F2
:108A200059F8041B204604EB87029161E1688847EE
:108A3000012F064618D1E069002820DA25F020052C
:108A40001DE0D8F8180000EB800006EB400030383D
:108A5000C8F818002046E1688847064602F039FC4D
:108A60000028EED1012F0AD02E2E08D12046E16831
:108A700088477F1C0646022F45F02005C4DBA0690D
:108A8000002803DA404245F00105A061E80701D063
:108A900025F01005B6B1A6F14100192802D82036FC
:108AA00045F400654A463146204625604D46FAF7B2
:108AB00077FB58B1012806D0ED1D25F0070000F125
:108AC000080989E704E005F1040985E730468AE7EB
:108AD000206ABDE8F08700000FB400B58DB010A982
